:020000040000fa
:080000000002040000000000f2
:020000040000fa
:04000800fe020000f4
:020000040000fa
:04000c00fe020000f0
:020000040000fa
:04001000fe020000ec
:020000040000fa
:04001400fe020000e8
:020000040000fa
:04001800fe020000e4
:020000040000fa
:04001c00fe020000e0
:020000040000fa
:04002000fe020000dc
:020000040000fa
:04002400fe020000d8
:020000040000fa
:04002800fe020000d4
:020000040000fa
:04002c00fe020000d0
:020000040000fa
:04003000e2020000e8
:020000040000fa
:04003400d4020000f2
:020000040000fa
:04003800fe020000c4
:020000040000fa
:04003c00fe020000c0
:020000040000fa
:04004000f0020000ca
:020000040000fa
:04004400fe020000b8
:020000040000fa
:04004800fe020000b4
:020000040000fa
:04004c00fe020000b0
:020000040000fa
:04005000cc020000de
:020000040000fa
:04005400fe020000a8
:020000040000fa
:04005800fe020000a4
:020000040000fa
:04005c00fe020000a0
:020000040000fa
:04006000fe0200009c
:020000040000fa
:04006400fe02000098
:020000040000fa
:04006800fe02000094
:020000040000fa
:04006c00fe02000090
:020000040000fa
:04007000fe0200008c
:020000040000fa
:04007400fe02000088
:020000040000fa
:04007800fe02000084
:020000040000fa
:04007c00fe02000080
:020000040000fa
:04008000fe0200007c
:020000040000fa
:04008400fe02000078
:020000040000fa
:04008800fe02000074
:020000040000fa
:04008c00fe02000070
:020000040000fa
:04009000fe0200006c
:020000040000fa
:04009400fe02000068
:020000040000fa
:04009800fe02000064
:020000040000fa
:04009c00fe02000060
:020000040000fa
:0400a000fe0200005c
:020000040000fa
:0400a400fe02000058
:020000040000fa
:0400a800fe02000054
:020000040000fa
:0400ac00fe02000050
:020000040000fa
:0400b000fe0200004c
:020000040000fa
:0400b400fe02000048
:020000040000fa
:0400b800fe02000044
:020000040000fa
:0400bc00fe02000040
:020000040000fa
:0400c000fe0200003c
:020000040000fa
:0400c400fe02000038
:020000040000fa
:0400c800fe02000034
:020000040000fa
:0400cc00fe02000030
:020000040000fa
:0400d000fe0200002c
:020000040000fa
:0400d400fe02000028
:020000040000fa
:0400d800fe02000024
:020000040000fa
:0400dc00fe02000020
:020000040000fa
:0400e000fe0200001c
:020000040000fa
:0400e400fe02000018
:020000040000fa
:0400e800fe02000014
:020000040000fa
:0400ec00fe02000010
:020000040000fa
:0400f000fe0200000c
:020000040000fa
:0400f400fe02000008
:020000040000fa
:0400f800fe02000004
:020000040000fa
:0400fc00fe02000000
:020000040000fa
:04010000fe020000fb
:020000040000fa
:04010400fe020000f7
:020000040000fa
:04010800fe020000f3
:020000040000fa
:04010c00fe020000ef
:020000040000fa
:04011000fe020000eb
:020000040000fa
:04011400fe020000e7
:020000040000fa
:04011800fe020000e3
:020000040000fa
:04011c00fe020000df
:020000040000fa
:04012000fe020000db
:020000040000fa
:04012400fe020000d7
:020000040000fa
:04012800fe020000d3
:020000040000fa
:04012c00fe020000cf
:020000040000fa
:04013000fe020000cb
:020000040000fa
:04013400fe020000c7
:020000040000fa
:04013800fe020000c3
:020000040000fa
:04013c00fe020000bf
:020000040000fa
:04014000fe020000bb
:020000040000fa
:04014400fe020000b7
:020000040000fa
:04014800fe020000b3
:020000040000fa
:04014c00fe020000af
:020000040000fa
:04015000fe020000ab
:020000040000fa
:04015400fe020000a7
:020000040000fa
:04015800fe020000a3
:020000040000fa
:04015c00fe0200009f
:020000040000fa
:04016000fe0200009b
:020000040000fa
:04016400fe02000097
:020000040000fa
:04016800fe02000093
:020000040000fa
:04016c00fe0200008f
:020000040000fa
:04017000fe0200008b
:020000040000fa
:04017400fe02000087
:020000040000fa
:04017800fe02000083
:020000040000fa
:04017c00fe0200007f
:020000040000fa
:04018000fe0200007b
:020000040000fa
:04020800fe020000f2
:020000040000fa
:04020c00fe020000ee
:020000040000fa
:04021000fe020000ea
:020000040000fa
:04021400fe020000e6
:020000040000fa
:04021800fe020000e2
:020000040000fa
:04021c00fe020000de
:020000040000fa
:04022000fe020000da
:020000040000fa
:04022400fe020000d6
:020000040000fa
:04022800fe020000d2
:020000040000fa
:04022c00fe020000ce
:020000040000fa
:04023000fe020000ca
:020000040000fa
:04023400fe020000c6
:020000040000fa
:04023800fe020000c2
:020000040000fa
:04023c00fe020000be
:020000040000fa
:04024000fe020000ba
:020000040000fa
:04024400fe020000b6
:020000040000fa
:04024800fe020000b2
:020000040000fa
:04024c00fe020000ae
:020000040000fa
:04025000fe020000aa
:020000040000fa
:04025400fe020000a6
:020000040000fa
:04025800fe020000a2
:020000040000fa
:04025c00fe0200009e
:020000040000fa
:04026000fe0200009a
:020000040000fa
:04026400fe02000096
:020000040000fa
:04026800fe02000092
:020000040000fa
:04026c00fe0200008e
:020000040000fa
:04027000fe0200008a
:020000040000fa
:04027400fe02000086
:020000040000fa
:04027800fe02000082
:020000040000fa
:04027c00fe0200007e
:020000040000fa
:04028000fe0200007a
:020000040000fa
:04028400fe02000076
:020000040000fa
:04028800fe02000072
:020000040000fa
:04028c00fe0200006e
:020000040000fa
:04029000fe0200006a
:020000040000fa
:04029400fe02000066
:020000040000fa
:04029800fe02000062
:020000040000fa
:04029c00fe0200005e
:020000040000fa
:0402a000fe0200005a
:020000040000fa
:0402a400fe02000056
:020000040000fa
:0402a800fe02000052
:020000040000fa
:0402ac00fe0200004e
:020000040000fa
:0402b000fe0200004a
:020000040000fa
:0402b400fe02000046
:020000040000fa
:0402b800fe02000042
:020000040000fa
:0402bc00fe0200003e
:020000040000fa
:0402c000fe0200003a
:020000040000fa
:0402c400fe02000036
:020000040000fa
:0402c800fe02000032
:020000040000fa
:0402cc00fe0200002e
:020000040000fa
:0402d000fe0200002a
:020000040000fa
:0402d400fe02000026
:020000040000fa
:0402d800fe02000022
:020000040000fa
:0402dc00fe0200001e
:020000040000fa
:0402e000fe0200001a
:020000040000fa
:0402e400fe02000016
:020000040000fa
:0402e800fe02000012
:020000040000fa
:0402ec00fe0200000e
:020000040000fa
:0402f000fe0200000a
:020000040000fa
:0402f400fe02000006
:020000040000fa
:0402f800fe02000002
:020000040000fa
:0402fc00fe020000fe
:020000040000fa
:04030000fe020000f9
:020000040000fa
:04030400fe020000f5
:020000040000fa
:04030800fe020000f1
:020000040000fa
:04030c00fe020000ed
:020000040000fa
:04031000fe020000e9
:020000040000fa
:04031400fe020000e5
:020000040000fa
:04031800fe020000e1
:020000040000fa
:04031c00fe020000dd
:020000040000fa
:04032000fe020000d9
:020000040000fa
:04032400fe020000d5
:020000040000fa
:04032800fe020000d1
:020000040000fa
:04032c00fe020000cd
:020000040000fa
:04033000fe020000c9
:020000040000fa
:04033400fe020000c5
:020000040000fa
:04033800fe020000c1
:020000040000fa
:04033c00fe020000bd
:020000040000fa
:04034000fe020000b9
:020000040000fa
:04034400fe020000b5
:020000040000fa
:04034800fe020000b1
:020000040000fa
:04034c00fe020000ad
:020000040000fa
:04035000fe020000a9
:020000040000fa
:04035400fe020000a5
:020000040000fa
:04035800fe020000a1
:020000040000fa
:04035c00fe0200009d
:020000040000fa
:04036000fe02000099
:020000040000fa
:04036400fe02000095
:020000040000fa
:04036800fe02000091
:020000040000fa
:04036c00fe0200008d
:020000040000fa
:04037000fe02000089
:020000040000fa
:04037400fe02000085
:020000040000fa
:04037800fe02000081
:020000040000fa
:04037c00fe0200007d
:020000040000fa
:04038000fe02000079
:020000040000fa
:100400008f8420000e7f22000e0188000000000073
:10041000000020000000e000020032000001200087
:100420002002880014000700760007000000e000aa
:1004300003003a00a0db2100010020000200370089
:100440000000200001002000810f70000100320038
:1004500014000700000020000000e000020032004d
:1004600000000200000000006c1d020000000000ff
:100470000040da000000fe004440a90060022000b5
:100480000000e0000300320000002000a00188000e
:100490004440a800000006008a1f78008b1f7800e7
:1004a0000000060091018800800478000000eb0045
:1004b0001a003700e284440032a0b4009905ba0063
:1004c000e284440032a0b4009906ba00e2844400f9
:1004d00032a0b4000006eb00476fde00fd07b2005b
:1004e000636ce10003003a00ebff07000000eb0043
:1004f0000a003700606ce10004003a00005deb0088
:100500008b05e900fdff3e00040037006168e10053
:10051000010032000086eb000b00070019c7ba008b
:100520001905ba000e04e00003003a000a00e000da
:10053000e0ff3a0000000600fe07b2009e018800be
:100540008a047800f5ff3700395dba008b05e900b1
:100550000c003200295dba008b05e900080032006a
:100560000c00e00003003a00e284440032a0b40032
:10057000f5ff370019ddba008b05e900faff3a00f4
:100580008904e800e184440032a0b40000000600c1
:1005900000000000000000000000fa008540a900f3
:1005a0000080fa00004006000000fa009460a900f4
:1005b0008460a9009460a8008460a9000080fa000b
:1005c000004006000000fa009440a9008440a90001
:1005d0008440a9009440a8000080fa000040060072
:1005e0000000fa0094c0a90084c0a90084c0a9003a
:1005f00094c0a8000080fa00004006000040da0025
:100600000000fe000000050003f0a200889fbe006d
:100610008a9fbe008c1f78007e0107008501330091
:100620006450e1004f0032006420e10052003200cb
:1006300003826c0007003b000905d0000306d000d0
:10064000820f54000c065d000200390002003200e7
:1006500089017800030678008582550004003d007a
:100660000003fd008103fd008502ea008b85420046
:10067000840f720002003b0060001000e080180050
:100680006011b8000005eb007a28e1000a0039008b
:1006900006007800c75ddd00f707b20087807500af
:1006a0002d003700828171000a0178006105600029
:1006b0008180d1000080d3008502e900f9ff3b0072
:1006c000060440008784480002003b0060041400d8
:1006d000e0841c000988a300070032008a817100b1
:1006e00082817100610164008904d1000884d30013
:1006f0008b05e800170037000978a30013003a00c3
:100700000b00e000130034008b05e90008044400ee
:1007100089844c000a4474000978a3000d003a0053
:100720000b00e000070034008b05e90008044400da
:1007300089844c0001003a000b0020000978a300d6
:10074000f7ff32000001eb000200370082817100e8
:100750000a017800f40007000cf0a70001f0a000e7
:100760003d0137006420e10002003a00838f6c00f5
:100770003d0133000801be000200be003601370013
:10078000889fbe008a9fbe008c9fbe000004be00f2
:100790000b0107000800be00890678006420e10014
:1007a00008003900040032000160a000120220009d
:1007b000524088005300370091fc2300b0fd200018
:1007c0004e0037000006eb0009f0a10003f82300fb
:1007d000020020000800be00900007000600340060
:1007e00001f82300000020000801be0049000700b6
:1007f0000004be002c0020000800be0093e8230087
:10080000320a230085000700120034000801be00f0
:10081000d1fd2300703d2b007cff07000005be00ca
:10082000b3f32300f27a26000800be00110107008e
:1008300003f823000200200073ff07000801be0038
:1008400072ff07000a01be00320007000004be006c
:100850000c06e8000800be0001f0a1000200200024
:10086000039823006d0007000800be001600350045
:100870000801be00ff0007000005be0032cd2c00bd
:1008800043fb230061ff0700809fbe001269280020
:1008900003d52b000a00be00f6000700620f2100fe
:1008a00013ef2b0059ff07000a01be00f1000700fb
:1008b0004f01be00170007000801be00ed00070051
:1008c0000801be0051ff07000c00e0000b003200e1
:1008d0000c10a70001f0a200b2fd200093fc230041
:1008e0006260e1000400320022a9200063f02300ce
:1008f0000c10a70063f8230044ff07000df0a700c9
:1009000001f0a2004f06be004f05be004f04be001e
:1009100000000600889fbe008a9fbe008c1f7800e2
:10092000bc000700c300330003866c006450e10084
:100930002e0032006420e100330032006150e100fb
:100940002f0032006120e100310032008585550022
:10095000eb07b00009002000080420000500370064
:100960000804440089844c000a0031000603430057
:1009700087834b000001530081815b00f8ff330047
:100980000203be000800a0000804440089844c0053
:10099000f6ff3900c639dd00830173000100320023
:1009a000130020008904d1000884d3000998a30013
:1009b000050032000800a7000300a0008904d10050
:1009c0000884d3008b05e8008904d1000884d30093
:1009d0000001eb000281d2005300070001f0a100ea
:1009e0000cf0a70001f0a0009b0037006420e1009c
:1009f0009d0032000801be000200be00f7ff370074
:100a00006120e100980032006000b800f3ff370079
:100a10000000200001f82700f0ff3700140020003c
:100a2000ff003700f4ff2f00fd0037000001be007b
:100a3000630007000470a70003f0a1006509b1007e
:100a4000160032000d0035006828e1000600350070
:100a5000f0ff2f00f1ff27000300e00013003b0030
:100a600001002800000005000000400081804800cf
:100a70008502e900fcff3a0008003700f88f4200c9
:100a800002003c008000eb00000005008100d10066
:100a90000080d3008502e800fcff3a000300e0007c
:100aa00002003b0060001000e0801800000006001b
:100ab0000001be00420007000470a70003f0a1007f
:100ac00003f8a30013003a006509b10010003200da
:100ad000090035006928e100020035000100280006
:100ae0000000050000004000818048008502e90008
:100af000fcff3a0000000600f88f420005003500b8
:100b00008100d1000080d3008502e800fcff3a009c
:100b1000000006008000eb00000005004f89de00a9
:100b200082017800d90037008100200061805500e3
:100b30000b003d000b00200061fe2f000100e100d2
:100b40001d00340082817100610164008904d100bc
:100b50000884d3000000e800faff3a00710020008a
:100b600061006400030070000200600009003200b0
:100b700061044400e0844c000988a50005003200af
:100b80008b05e8006808e10002003a008904d10002
:100b90000884d300f20f20000258e10005003d0058
:100ba000c75ddd00f907b200898075000800780094
:100bb000000006000bf827008b00780000000500fd
:100bc000c70ade00f107b200f50fb20008003200dc
:100bd000e1cf4200020032000170a00024000500b5
:100be000810f700001003200040805004400050078
:100bf000810f700002003a00140005008502e90030
:100c00000000400081c04800fcff3b000170a000d4
:100c1000240005000004be00e9ff07000003be0039
:100c20000405be000200be00e5ff0700844f75000a
:100c3000000006000200be006450e100050036001e
:100c40006420e100020036000968a30001003a00b8
:100c50000800be000160a0004f0678004f05be00ee
:100c60004f04be0000000600f0ff2f00f1ff270038
:100c7000f9ff3700889fbe008a9fbe008c1f780056
:100c8000e4ff0700ebff330003866c006450e100d3
:100c9000240032006420e100270032006150e100ae
:100ca000220032006120e100210032008b854200e9
:100cb000eb07b1000134b800003ab8000804420064
:100cc00089844a00013ab8000030b80088804000aa
:100cd00009014a0004003300000040008180480000
:100ce000020149008b05e900c909dd00830170009c
:100cf0000100320013002000c814de004814dd009b
:100d00004709de001200b200c808de000884700047
:100d100085ff070001f0a1000cf0a70001f0a00082
:100d2000cdff37006120e100cfff32000801be0097
:100d30000200be00f7ff37006150e100fcff3a00ff
:100d4000c9ff37000001eb008f003700889fbe000d
:100d50008a9fbe008c1f78000004be0098ff070029
:100d60000478a30026003a006120e100250032004b
:100d700009f8a30025003a006420e10021003200b8
:100d8000f507b1000508a300020032000000400092
:100d9000818048006044b800031020000200200059
:100da00000004000818048000805440089854c000f
:100db0000a0541008b8549000a0550008b855800c3
:100dc000030033000a00be00020474008384740030
:100dd0008301d1000281d300830f7100f0ff3a003c
:100de0008904d1000884d3006001490082017800a1
:100df000c1adde00fb07b0004bff070096ff3700d8
:100e00000960a0000800be0093ff37001202200016
:100e100052408800f0ff2f00f1ff27008eff3700bf
:100e2000889fbe008a9fbe00841f780079ff07005c
:100e30004f00780011003300f0ff2f00838f6c000b
:100e400006003b00040565000a00a7000800370003
:100e500009f0a6001000200008003700820f54009f
:100e6000838f5c00030039001000200001003e0069
:100e70000000200009f0a7000000ea004f05be00b6
:100e80004f04be000000e00000000600881f78004c
:100e9000030478000300e00007003d00600010003c
:100ea000e080180060011900e081190002003b0099
:100eb00001f02d00030037000400070008f0a70030
:100ec00001f0a0004f04780000000600889fbe00db
:100ed0008a9fbe00008270000402710004827100cb
:100ee000260032000004be000200be006011b800ff
:100ef0006b092000950220000182cf000a00390012
:100f00000541b1000082cf00070039000541b10062
:100f10000982cf00040039000541b1000882cf00ea
:100f2000010039000541b1000542520012003200b3
:100f30000a003b0082817100610164008100d100e0
:100f40000080d3008984d3000884d3008b05e80097
:100f50000442e800f7ff3a000700370008044400a5
:100f600089844c0000004800818048008b05e9001e
:100f70000442e900f9ff3a00ebfe07004f05be000e
:100f80004f04be0000000600889fbe008a9fbe007e
:100f90008c9fbe00820578000004be0008ff070099
:100fa0000800be006420e1000700390002003a009a
:100fb000f1ff2700f0ff2f000160a00012022000c7
:100fc00052408800550037006120e10003003a00dc
:100fd0000b00a70001f823005000370001f0a1002a
:100fe00002002100936424008cfe07000800be006c
:100ff00004003500b2fd2000930c24004b000700d4
:101000000004be000005eb000b00a6004f0dde0043
:1010100001f0a1000004be0032982f0023ea230053
:1010200014ff07000001eb0003f023000b00a700f2
:1010300003f8230075fd07007cfe07000000a700f1
:101040000a00a200b5fe07000b00e000030032001a
:101050000200200003f023006bfd070001f0a20056
:101060000006be00020020009304240001ff0700d8
:101070000801be0065fd0700809fbe000c00be0099
:1010800022a22a00d3a72300fafe07004f01be00c8
:101090005efd07000004be0001f0a1000200200078
:1010a000039823005dfe07000800be00190035000c
:1010b0000001be00effe07000006be00b2c5290019
:1010c000e3622300ebfe070022222b00f3942b00a7
:1010d0004efd07000c01be00e6fe0700e27328008b
:1010e00083c0230049fd07000c01be00e1fe07009c
:1010f00042aa2a00a3e22b0044fd07000c01be0017
:10110000dcfe07000801be00dafe07000801be0091
:101110003efd07000a00a70001f0a2004f06be0036
:101120004f05be004f04be00000006000400200072
:1011300000003700889fbe008a9fbe008c1f780089
:101140004f26dd00b3fe0700bafe33006120e10048
:10115000430032006250e10041003e003e00390091
:101160006420e1003c003200058255000f003b0086
:101170000402e80038003a00800f5300818f5b00c2
:10118000350034000800be0003f0a10001f0a60005
:1011900003f0a0000cf0a7001cfd0700aefe370016
:1011a0000603430087834b000c46460000055300ae
:1011b00081855b00020033000a03be000c00a00022
:1011c0000402e900f6ff3b008505780006024300b3
:1011d00087824b0004003a006000b80009f0a700c5
:1011e00001f0a0009cfe37000002520081825a00ec
:1011f0000704e000040033000603430087834b002c
:101200008b05e900faff3700090578000604be00e7
:101210000203be006011b80043fe0700e00f520059
:10122000e08f5a000700350002003c000c08a300c4
:10123000040032000601be0003f0a0000cf0a7007d
:10124000f2fc07000a85680001f0a1000af0a7007f
:1012500001f0a00080fe37000800be007efe3700cf
:10126000100220000cf0a600504088007efe3700df
:10127000881f78000204780008017800c400070085
:10128000080040004f047800000006000000fa004b
:10129000881f780000047800ea8157003fb9970062
:1012a0008800780080932000070007000000e0001d
:1012b000020035008040eb00017478004f04780094
:1012c0000080fa00000006006200fa00889fbe005d
:1012d0008a1f7800000578008104780002047800f5
:1012e0008300780080f92f000f004000770107008d
:1012f0009a979f00a9979f000000eb00b09f9f0066
:101300001885fb008a04fb000a05ea004f55de0041
:1013100050022000808f54000d003200e10f550074
:101320000b003a000a017800880078002f9097009f
:101330009f91970003000100a0979f000000e0002c
:101340008e0032003f9897000000e800b09f9f0099
:101350000a04440050022000808f54000400320030
:101360000900e000e6ff3a003f989700840037004c
:101370000000eb00909f9f00809f9f00f0979f00d0
:10138000e0979f00d0979f00c0979f00070037000d
:1013900021842000010050000000400061832000f3
:1013a00061007800df98970001007000d09f9f00d7
:1013b0008804780009047800384578008a00fb002a
:1013c00020842000790007000000e000f0ff3a00d0
:1013d000a1c2b300814f55000e003a00cf8897009c
:1013e0000180e900c08f9f0010007800c09f9f001f
:1013f0000000e00005003d000000ea00c09f9f00e3
:101400005f9897000020a000d09f9f000904e8008b
:101410000f003700c09f9f000000eb000500370061
:10142000f2ff2700820f5000020032006a01b9006b
:10143000028040000904780088047800b900fb00ad
:101440000103b100e98f5000f5ff3600c09f9f00f7
:10145000e0c2b300984f1000020032000080eb00a1
:1014600019003700a0c2b300d84f100007003a009f
:10147000cf8897000180e900c08f9f00100078009e
:10148000a09f9f000804e800100037000000eb0058
:10149000a09f9f008800780005003700f3ff270019
:1014a000830f5000020032006a02b90004004100bc
:1014b00001047800880078003101fb000203b100cc
:1014c000e90f5100f5ff3600a09f9f009844780077
:1014d0008900fb00e0822000340007000000e000eb
:1014e000020032000804e800010037008044eb00ed
:1014f000c97f9f0080c6b30080cf540004003a002b
:1015000098cf14000a003a006640500006003700e9
:10151000c0c6b30080cf540005003a0098cf140035
:1015200003003a0065404000c07f9f000804e800c7
:101530001801fb00e3fb2f008f81410081f92f0090
:101540008f804000a0f92f000f004000e10007004d
:101550000000e00009003a00e1fb2f008f8040000e
:10156000a0f92f000f0040001c0007000000e00061
:10157000020035000804e80061ff37000080eb003e
:101580004f0578004f04be000080fa0000000600fe
:101590008001780002003700b15978000201e900ab
:1015a0000200e000fcff3a000000060002003700e5
:1015b0000304e00006003200000178000200780019
:1015c000b041780081cf5100f9ff3a0001003700a7
:1015d0000001eb0002007800000006000400fa00a1
:1015e000889fbe008a9fbe008c1f78000004780090
:1015f00001067800f80d9000780090008085550075
:1016000008089000808555001808900080855500d6
:101610002808900080855500380890008085550086
:1016200048089000808555000002220090bf9f006e
:1016300000032300a0bf9f00081090000028a30013
:1016400015003a000b00e000130034000b05780091
:101650008a047800e20f55000100360029002000be
:10166000c801900009017800ee80570058009000f2
:1016700003000100500498000000e0008c003200dc
:101680006808900009004000600c980009055500aa
:101690004240a900eeff3c00780190000200e0000b
:1016a0000c003400c80190008c00780058009000b5
:1016b00003000100500498008080eb000000e0006f
:1016c0007c003200e8089000780090000080400024
:1016d000600c9800880c90000900e00011003400b4
:1016e00009057800e28f5400010036002a0020002e
:1016f000c80190000a017800ec8057005800900063
:1017000003000100500498000000e000680032006f
:10171000680890000a004000600c98008a84540019
:10172000edff3700180990000200e0000c003400c3
:10173000c8019000e80090005800900003000100ec
:10174000500498008080eb000000e0005900320057
:10175000e80890001808900000804000600c980095
:10176000a80c90000900e000110034000905780081
:10177000e28f5400010036002a002000c8019000ca
:101780000a017800ec805700580090000300010027
:10179000500498000000e000450032006808900006
:1017a0000a004000600c98008a845400edff370066
:1017b000380990000200e0000e003400e8009000bc
:1017c0001808900080804000c801900058009000e8
:1017d00003000100500498008080eb000000e0004e
:1017e00034003200e8089000380890000080400083
:1017f000600c9800c80c90000900e0001100340053
:1018000009057800e28f5400010036002a0020000c
:10181000c80190000a017800ec8057005800900041
:1018200003000100500498000000e0002000320096
:10183000680890000a004000600c98008a845400f8
:10184000edff3700081090008000eb000028a30097
:10185000180032000b00e000160034008b04780002
:1018600009057800e28f5400010036002a002000ac
:10187000c80190000a017800ee80570058009000df
:1018800003000100500498000000e000080032004e
:10189000680890000a004000600c98008a84540098
:1018a0004240a900eeff3c008000eb000100370041
:1018b0008080eb00010078004f0678004f05be00e5
:1018c0004f04be000080fa00000006000108780006
:1018d00000000600889fbe008a9fbe00e4c6b300d9
:1018e000844f5100be00320010003c006b42520099
:1018f000844f51001800320005003c0054c2b30070
:10190000844f5100f600320084c5b3000f00370049
:1019100044c6b300844f51001400320065424200b7
:10192000844f5100f1003a001000370004c7b300a3
:10193000844f5100dd003200560035006542420000
:10194000844f51005300320063424200844f5100e3
:10195000e6003a004f0037001181e9008208780064
:10196000f000900012417800de0037002062900005
:10197000c5c6b300854f520007003a0091027800b7
:1019800064825200840878001402be004fabde006f
:10199000860378001400370015c7b300854f520046
:1019a00003003a0011047800680254000500370073
:1019b000a5c6b300854f520006003a009104780096
:1019c00068825400840878005403be004402be00bc
:1019d000050037001182e9008408780014027800bd
:1019e000cfa2de00612bb9000498be000690be00b5
:1019f000a060900088c6b30088cf50000d00320070
:101a000028c6b30088cf500004003a000402fb004f
:101a1000cfa2de00612bb9000800370048c7b30031
:101a200088cf5000030032006644440088cf500045
:101a300004003a00cfa2de00612bb9000498be007a
:101a40000690be003002be002003be00f0009000f1
:101a5000e00f5200e08f5a00e00f5b00e08f5b0068
:101a600002003d00d4c2b30008003700001290000d
:101a70000418a30002003200b4c2b3000300370010
:101a80000408a3005100320004c2b30084f17800be
:101a90004c00370020629000c5c6b300854f52004d
:101aa00008003a00110578006402550084087800a7
:101ab0001404be006055b8000802be000a03be0050
:101ac0001400370015c7b300854f520003003a00d9
:101ad000910478006882540005003700a5c6b30061
:101ae000854f520006003a00110578006802550043
:101af000840878005403be004402be00050037008d
:101b00001182e90084087800140278008002eb005a
:101b10006033b8000498be000690be00a06090003c
:101b200088c6b30088cf50000d00320028c6b3002d
:101b300088cf500004003a000482fb008002eb00d2
:101b40006033b8000800370048c7b30088cf5000a2
:101b5000030032006644440088cf500004003a007d
:101b60008002eb006033b8000498be000690be000f
:101b7000801090000138a300140032003002be0033
:101b80002003be00e00f5200e08f5a00e00f5b0020
:101b9000e08f5b000d00320081c7b300814f510020
:101ba0000300320081c5b300814f510007003a00a5
:101bb000f000900004c3b30084f178008100e800d5
:101bc00082f178008100e80071009800f000900038
:101bd0008181410063009800824078003e00370018
:101be000a0619000c4c6b3001181e90084cf510008
:101bf000220032000a003c006442520084cf5100af
:101c00002500320004c2e80084cf510013003200e6
:101c10006842520084cf51001e003a000a0037008b
:101c200044c7b30084cf51001b003200664242001b
:101c300084cf5100180032006942520084cf510015
:101c400014003a00050037008208780092007800fe
:101c500040589000804878002c00370082087800b7
:101c600092007800600a9000cfa2de00612bb900dc
:101c70008498be008690be00240037008208780059
:101c80009200780060099000cf91de008288be004b
:101c90001e0037001181e900820878009200780068
:101ca0006008900080087800180037001181e90072
:101cb0008208780012027800cfa2de00612bb90002
:101cc0000498be000690be00f000900081814100a3
:101cd0006300980081c7b300100007000b003700b5
:101ce000f000900082f1780006003700f0009000cc
:101cf000818141000204e00001003a0052c2b300b9
:101d0000824978008100e800710098000000eb0033
:101d10004f05be004f04be0000000600fc874700d0
:101d2000889fbe008a9fbe008c9fbe008e1f7800d9
:101d30000006780080c5b30080cf50000a00320052
:101d40007740400080cf50000a00320069404000d8
:101d500080cf50000b003200d081200080bf9f0058
:101d6000ae0020000a003700c280200082bf9f0022
:101d700006003700d381200083bf9f008e00200023
:101d800003003700d481200084bf9f000e01200093
:101d90003c02be002c03be000605be000404be00cb
:101da00040c6b30080cf50000300320065404000c1
:101db00080cf50000b003a00e00f5200e08f5a0035
:101dc000e00f5b00e08f5b0006003d006000b800a4
:101dd0006011b800040450008584580006055900bd
:101de00087855900e80f57000400320040002000aa
:101df000f00f570038003a00010037003000200093
:101e0000e00f5400e08f5c00e00f5d00e08f5d00ac
:101e100004003a00dc0890008d0120000100e00081
:101e2000060032008e00e900888060008fba9700bb
:101e3000e5c07800f1ef9f007d0120008000780070
:101e40008100e900050033008b05d1000a85d3002d
:101e50008984d3000884d300f9ff3700089ebe00b0
:101e60000a96be00120037008d06e9008e00e900d8
:101e7000848060000fb99700e2c1780082fd2f00d6
:101e80000f01410003f17e00800078008100e9002d
:101e9000050033008783d1000683d3008582d300f9
:101ea0000482d300f9ff3700049ebe000696be00f0
:101eb0003c02be002c03be00e00f5200e08f5a002f
:101ec000e00f5b00e08f5b008b0034000d00e00052
:101ed000e5ff3c00880037002c60900081c6b3000d
:101ee000814f50000b00320006003c000004e0006f
:101ef00008003200e6c05000814f50004e003a000a
:101f000004003700c1c6b300814f50004a003a00b8
:101f1000210037000800e00004003a005c0890004f
:101f20008d0120000000e0000600320011000900d1
:101f30000e84d8000fb99700e2c07800f1ef9f003f
:101f40007d012000110009000e84d8000a0037002e
:101f5000110009000e04d8008d06e9000e81b900b9
:101f6000020454008fb8970061417c0081fd2f006e
:101f70008f80400082f07e00000478000800e000be
:101f8000020032000d00e000f1ff3c00cfc4de0093
:101f9000614db90025003700e00f5400e08f5c0070
:101fa00004003a005c0890008d0120000000e00071
:101fb000070032006171b9000800be00a5000700eb
:101fc0008fb99700e3417800f3ef9f007d01200077
:101fd0006171b9000800be008e0007000b003700d9
:101fe0006171b9000800be007b0007008d06e900a2
:101ff00000f1b900020454000fba9700e4427c00db
:1020000084fd2f000f02420005f27e000004be0096
:10201000e00f5000e08f5800020032000d00e00099
:10202000efff3c004fcdde008a057800089ebe0021
:102030000a96be0030003700e00f5400e08f5c00cd
:10204000e00f5d00e08f5d0004003a005c08900046
:102050008d0120000000e000090032006172b9002b
:10206000612bb9000800be000a01be001c01070078
:102070000fba970064427800f4ef9f007d012000c2
:102080006172b900612bb9000800be000a01be00f0
:102090000c0107000d0037006172b900612bb90017
:1020a0000800be000a01be00110107008d06e9000c
:1020b00000f2b900040454008fba970065427c0016
:1020c00085fd2f008f82420084f27e00009ebe00bc
:1020d0000296be003c04be002c05be00e00f54007a
:1020e000e08f5c00e00f5d00e08f5d0002003400d7
:1020f0000d00e000e8ff3c00e80f570010003a0038
:102100000c1090000038a3000d003200f78f56002d
:1021100006003e0085fd2f008f824200e5c07e0054
:1021200000c3b30080cf5000050032008d06e900e7
:1021300002c3b30081fd2f008f80400082f07e003b
:1021400078811600120e98006c00900083fd2f001d
:102150008f8141008d8041000dfd07001c0890001b
:10216000dc089000810f500006003d000080500008
:10217000000e98000c1090000040a100001698007e
:102180000f0037000100e0000d003d008c109000b2
:10219000f4806000f08f500009003a007c09900044
:1021a000fc009000810051000c09900082805000da
:1021b000008050004240a90001003400000e980049
:1021c0004f0778004f06be004f05be004f04be000b
:1021d000cf01b10000000600839f68000100e0000d
:1021e00002003d0060001000e08018000300e000e5
:1021f00002003d0060011100e081190005000700a8
:102200004f00e00002003b0060001000e08018007a
:10221000000006006022b800060220000000d00086
:102220008180d2000482d2008582d2000000a0000a
:102230000202520083825a0003003100020242006f
:1022400083824a000000a1000603e900f3ff3a0080
:1022500000000600efff07000400be0000000600bb
:10226000889fbe008a9fbe0030044200b0844a00ae
:1022700030054b0090854b006000b1000898be000f
:102280000a90be000440e10005c8e10006d0e1006c
:1022900007d8e10002003100680040001008e800a3
:1022a0004f05be004f04be0000000600889fbe0020
:1022b0008a9fbe003004be002005be0004185400f2
:1022c00005985c0006185d0007985d00110020006d
:1022d0000440e10005c8e10006d0e10007d8e100b4
:1022e000010039008000eb00108810004f05be008f
:1022f0004f04be00000006001200fa00889fbe00d6
:102300008a9fbe008c9fbe00e0b79f00f1b79f0080
:1023100082bf9f0093bf9f000605be000404be005d
:102320000000eb00d0b79f00c0b79f00b0b79f0080
:10233000a0b79f0090b79f000006eb005fb1970029
:10234000cfb09700820141003fb097000200e0004b
:1023500004003d00370007007e805700c0ff0700e3
:1023600003003700330007007e805700cfff0700cf
:10237000dfb697000d00e0000c0035006fb297004b
:10238000ffb297000fbb97009fbb97001000200083
:10239000010020006011b80000027200818272000a
:1023a00002037300838373001b0007000c06e80020
:1023b00001042000810f5600e0ff3a000d00e0000c
:1023c00004003d000802be000a03be007e805700e4
:1023d000a3ff07005fa897000000e00005003a0097
:1023e0001fb29700afb297003fb39700cfb39700eb
:1023f000090007006fb09700ffb097000fb9970072
:102400009fb997004f06be004f05be004f04be00a7
:102410000080fa000000060001000700000006002e
:10242000a4b79f00b5b79f00c6b79f00d7b79f005e
:10243000000006004f09de0082817100b3b79f00e3
:102440004f01de008180400082807000a1b79f00b4
:102450008fb097004f09de000000400002007000be
:1024600090b79f007fa897004f01de008180400059
:102470008280700081b79f000d0007004f3ade0098
:102480000000400004007000f0af9f00080007004b
:102490000402420085824a0006034b0087834b00fa
:1024a000dfff07000802be000a03be0000000600ae
:1024b0002fb29700bfb297004fb39700dfb39700da
:1024c00000000600881f780018002000881f780090
:1024d00089ff07008f87e9004f047800000006009d
:1024e000801feb0084ff07008f87e90000000600d3
:1024f000889fbe008a9fbe00e00f5000e08f58000a
:10250000e00f5900e08f59000c003d006044b80016
:102510006055b8000000540081805c0002015d003d
:1025200083815d00180020001500070008003d00b1
:10253000180007000004eb00050037000004eb0062
:102540000f00070002003d001200070018002000e5
:10255000dcff07000800e000060032006022b8003f
:102560006033b8000000520081805a0002015b0015
:1025700083815b004f05be004f04be0000000600d3
:10258000e00f5200e08f5a00e00f5b00e08f5b002d
:10259000000006006044b8006055b8000402540012
:1025a00085825c0006035d0087835d0000000600f5
:1025b000889fbe008a9fbe008c1f7800e00f5000ed
:1025c000e08f5800e00f5900e08f59000d003d00ea
:1025d0006044b8006055b8000000540081805c0081
:1025e00002015d0083815d001c0020000820e100e5
:1025f00009a8e1000ab0e1000bb8e1000d003d00c0
:10260000080037000006eb00e00f5200e08f5a0090
:10261000e00f5b00e08f5b0006003d006044b80007
:102620006055b8000402540085825c0006035d001a
:1026300087835d00aaff07000c00e000060032005f
:102640006022b8006033b8000000520081805a0058
:1026500002015b0083815b004f0678004f05be00de
:082660004f04be00000006005b
:020000040000fa
:1026680046610000756c000074200000537400007f
:102678006174000075730000203100003a0000000a
:102688003078000025300000347800000056000043
:102698004753000020530000746100007475000067
:0c26a80073200000323a00000000000027
:020000040000fa
:1026b4000000fa0041e2a900c9a2a900cda2a80025
:1026c4004022ef004222ef004422ef008540a9009f
:1026d4009540a8004342a8004322a80042a2a800b3
:1026e4004202a8004222a9004282a8004262a80035
:1026f4004242a80040c2a900113a8000f00b200019
:102704000081600060042000710520002374200013
:102714008049780081497800824978003136800008
:10272400f00f2e000080600000b0a000303688005a
:102734004135800000fe2f00008060005000b3008f
:10274400403588003136800000fe2f000080600094
:102754007000b30030368800103a80000001780021
:102764000260a00060042000710520002374200092
:1027740080497800814978008249780041e2a800c4
:1027840000e22400010020001b0507000080fa007d
:10279400000006000400fa00004f7800114798007a
:1027a400120798001e80fb00cf00dd001e40900041
:1027b4000080fb004b00dd000080400080007800ba
:1027c4001e009000008040000080fa000000060017
:1027d4000200fa00000f780000fa20000100200037
:1027e40005050700cda2a900007d200001002000fe
:1027f4000105070000000000001280006200600074
:102804000000e000fcff3a009e00780041128800be
:102814000000000000128000610060000000e00081
:10282400fcff3200007d200001002000f2040700bc
:10283400cda2a80000fa200001002000ee04070049
:10284400401280000080fa00000006000000fa0038
:102854004000200020108800000022003010880072
:1028640007e2a8000080fa00000006000000fa0059
:102874000602a8000000000040108000680060000c
:102884000000e000fcff3200000000000080fa00bd
:10289400000006000000fa000622a8000000000064
:1028a40040108000680060000000e000fcff32007f
:1028b400000000000080fa00000006000000fa009a
:1028c4000642a80000000000401080007000600074
:1028d4000000e000fcff32000080fa000000060067
:1028e4000000fa0006a2a9000682a8000000000069
:1028f4000080fa00000006000000fa0006a2a8000a
:102904000682a80000fa200001002000ba04070093
:102914000080fa00000006000200fa00004f780070
:102924001e80fb0010108800000000004110800091
:1029340000002400008060000000e000fbff3a007b
:10294400401080004f00de00004078000080fb0053
:102954000080fa00000006000000fa000662a800e9
:102964000000000040108000620060000000e000f1
:10297400fcff320000fa2000010020009e04070042
:10298400001080000080fa00000006000400fa0035
:1029940020479800314798002e4090000080fb00ab
:1029a4004400dd00804078003e40900000c070008c
:1029b400004f7800ae40900000cfb30080c06000ac
:1029c4003e40900000c0700010479800a7ff070029
:1029d400e0c4b300d0ff07001e409000ceff070004
:1029e4001e409000c040b300cbff07001e40900083
:1029f4000034a000c8ff07001e407800c6ff07008f
:102a04009e4078006cc07000c3ff07001e40780031
:102a14000034a000c0ff0700a8ff070000e2240064
:102a240001002000740407000080fa000000060082
:102a34000000fa0085ff070000a62e000100200018
:102a44006d0407008040eb0020c0b300cfff0700f7
:102a540000e2240001002000670407008040eb002e
:102a640080c2b300c9ff070000e224000100200077
:102a7400610407008040eb0010c0b300c3ff0700ef
:102a840000e22400010020005b0407008040eb000a
:102a940060c0b300bdff070000e224000100200075
:102aa400550407008040eb00f0c0b300b7ff0700f7
:102ab40000e22400010020004f0407000080fa0017
:102ac400000006000200fa00004f78001e40780063
:102ad40011c0b300adff07000080fa00000006003b
:102ae4000200fa00000f7800040037001e0078008e
:102af400104078001e0fe800f2ff07001e00780067
:102b0400104078000004e000f8ff3a000080fa006a
:102b1400000006000000fa008040eb0010c0b30083
:102b24009aff070000c429000100200032040700b6
:102b34000080fa00000006000000fa008040eb006c
:102b440000c8b30091ff07000080fa0000000600ef
:102b54000000fa008040eb0000ccb3008bff0700bc
:102b64000080fa00000006000000fa008040eb003c
:102b740040c9b30085ff07000080fa00000006008a
:102b84000000fa008040eb0040cdb3007fff070057
:102b94000080fa00000006000000fa008040eb000c
:102ba400c0c0b30079ff07000080fa0000000600ef
:102bb4000000fa008040eb00f0c0b30073ff070090
:102bc4000080fa00000006000200fa00004f7800be
:102bd400114798001e4090000080fb000000e800b0
:102be40080407800600020000009dd001e40900055
:102bf4008080fb00b0aa2a000008b8000100d100c0
:102c040080407800400920000088b9000000780066
:102c140000407800004041001e4040000040e900b0
:102c24008040eb0059ff07000080fa000000060016
:102c34000600fa0020479800210798002e409000d3
:102c44000044b0008040eb0050ff07000000eb00a0
:102c5400000f78000000eb00000f78000700370039
:102c64001e007800ae009000008040001040780004
:102c740011c0b30045ff07001e0fe8001e007800d6
:102c8400e70f5000f6ff34008040eb0020c0b30093
:102c94003eff07000080fa00000006001400fa005e
:102ca4000000eb00000f78000000eb001007980014
:102cb400e4004700070009008018eb000001eb0066
:102cc4008040eb0010c0b300b2fe0700100798006c
:102cd4001e009000befe0700000f78008dff070065
:102ce400403329007eff070099ff07006400470076
:102cf4009e1f780041342900811f780062f9070083
:102d0400e48757006400470075ff07000001eb00eb
:102d140011c0b30010c0b3009efe07001007980056
:102d24001e009000aafe0700000f78008eff070027
:102d3400b03429006aff070091ff070064004700d0
:102d44009e1f780041342900811f78004ef9070046
:102d5400e48757006400470061ff07000080fa0021
:102d6400000006000600fa00404798000000eb004f
:102d7400000f78000000eb00100798000001eb0042
:102d840021c0b30010c0b30082fe070010079800f2
:102d94001e0090008efe0700000f7800f0f92f004f
:102da4009e0060004e4090000080fb004500dd0066
:102db400008040000001780021c0b3000040eb0017
:102dc40074fe0700100798001e00900080fe0700a4
:102dd4000080fa00000006000400fa000000eb0086
:102de400000f78000000eb00100798000001eb00d2
:102df40021c0b30010c0b30066fe0700100798009e
:102e04001e00900072fe0700000f7800f08f2f0064
:102e14009e006000006020000080400000017800f7
:102e240021c0b3000040eb005afe070010079800d1
:102e34001e00900066fe07000080fa0000000600f5
:102e44000400fa000000eb00000f78000000eb0023
:102e5400100798000001eb0021c0b30010c0b300bc
:102e64004cfe0700100798001e00900058fe070053
:102e7400000f7800f08f2f001e0060000030b000bb
:102e84000001780021c0b3000040eb0041fe0700c0
:102e9400100798001e0090004dfe07000080fa0005
:102ea400000006000600fa00404798000000eb000e
:102eb400000f78000000eb00100798000001eb0001
:102ec40031c0b30010c0b30032fe070010079800f1
:102ed4001e0090003efe0700000f7800f0f02f0067
:102ee4009e0060004e4090000080fb004400dd0026
:102ef400008040000001780031c0b3000040eb00c6
:102f040024fe0700100798001e00900030fe070002
:102f14000080fa00000006000600fa00404798000e
:102f24000000eb00000f78000000eb001007980091
:102f34000001eb0031c0b30010c0b30015fe070060
:102f4400100798001e00900021fe0700000f780073
:102f540000ff2f009e0060004e4090000080fb00a8
:102f6400008040000001780031c0b3000040eb0055
:102f740008fe0700100798001e00900014fe0700ca
:102f84000080fa00000006000600fa00404798009e
:102f94000000eb00000f78000000eb001007980021
:102fa4000001eb0041c0b30010c0b300f9fd0700fd
:102fb400100798001e00900005fe0700000f78001f
:102fc400f0f02f009e0060004e4090000080fb0057
:102fd4004400dd00008040000001780041c0b300df
:102fe4000040eb00ebfd0700100798001e00900066
:102ff400f7fd07000080fa00000006000600fa0052
:10300400404798000000eb00000f78000000eb0040
:10301400100798000001eb0041c0b30010c0b300da
:10302400dcfd0700100798001e009000e8fd070073
:10303400000f780000ff2f009e0060004e409000bb
:103044000080fb00008040000001780041c0b30014
:103054000040eb00cffd0700100798001e00900011
:10306400dbfd07000080fa00000006000600fa00fd
:10307400404798000000eb00000f78000000eb00d0
:10308400100798000001eb0041c0b30010c0b3006a
:10309400c0fd0700100798001e009000ccfd07003b
:1030a400000f780000ff2f009e0060004e4090004b
:1030b4000080fb004800dd00008040000001780033
:1030c40041c0b3000040eb00b2fd070010079800b8
:1030d4001e009000befd07000080fa0000000600fc
:1030e4000600fa00404798000000eb00000f78004b
:1030f4000000eb00100798000001eb0041c0b30092
:1031040010c0b300a3fd0700100798001e00900034
:10311400affd0700000f780000ff2f009e00600045
:103124004e4090000080fb000080400000017800c9
:1031340041c0b3000040eb0096fd07001007980063
:103144001e009000a2fd07000080fa0000000600a7
:103154000600fa00404798000000eb00000f7800da
:103164000000eb00100798000001eb0051c0b30011
:1031740010c0b30087fd0700100798001e009000e0
:1031840093fd0700000f780000ff2f009e006000f1
:103194004e4090000080fb004800dd0000804000ad
:1031a4000001780051c0b3000040eb0079fd070036
:1031b400100798001e00900085fd07000080fa00ab
:1031c400000006000600fa00404798000000eb00eb
:1031d400000f78000000eb00100798000001eb00de
:1031e40061c0b30010c0b3006afd07001007980067
:1031f4001e00900076fd0700000f780000ff2f00ee
:103204009e0060004e4090000080fb004600dd0000
:10321400008040000001780061c0b3000040eb0072
:103224005cfd0700100798001e00900068fd070071
:103234000080fa00000006000600fa0040479800eb
:103244000000eb00000f78000000eb00100798006e
:103254000001eb0061c0b30010c0b3004dfd0700d6
:10326400100798001e00900059fd0700000f780019
:1032740000ff2f009e0060004e4090000080fb0085
:10328400008040000001780061c0b3000040eb0002
:1032940040fd0700100798001e0090004cfd070039
:1032a4000080fa00000006004a00fa00889fbe0071
:1032b40030279800412798000000200001182400be
:1032c400400798005107980070712b00118d23005e
:1032d400600798007107980000002000812c2400ea
:1032e400600798007107980000002000010e240078
:1032f400000f9800110f980060662600610a2400f0
:10330400200f9800310f98000e0990009e0990003c
:103314000e0890009e08900055f607000004be00b9
:103324002e099000be0990002e089000be0890005f
:103334004ff607000001be000800be00b2f407000b
:1033440081f60700400f9800510f98000e09900075
:103354009e0990002e089000be0890006cf50700ae
:1033640006f50700600f9800710f9800e0442e00e6
:10337400d10b2400600f9800710f9800b2fd20005b
:10338400930424003e209000ce20900038f60700dd
:1033940002002000433324005df50700600f98000d
:1033a400710f980022a9200063f823006e08900092
:1033b400fe08900056f507000200200003f82300e1
:1033c40091f4070098f507000017980050b82e00f4
:1033d40011f123001017980021179800723d2b005b
:1033e400d3f523001e109000ae10900020f60700c5
:1033f4006e019000fe0190001df607000004be005f
:103404000e109000cf80de00c3f50700b2fd20004f
:103414009304240016f6070002002000030424008d
:103424003bf507006e099000fe09900075f4070053
:1034340043f607000001be000800be000cf60700ba
:103444003017980041179800723d2b00d3f52300e4
:103454001e109000ae10900005f607006e0190005b
:10346400fe01900002f607000004be000e1090005a
:103474000000e900cf80de00a7f50700b2fd2000c0
:1034840093042400faf5070002002000030424003a
:103494001ff507000001be006e089000fe089000b2
:1034a40058f4070026f607000001be000800be001d
:1034b400eff5070050179800611798003e1190002f
:1034c400ce1190006e009000fe0090004df40700b5
:1034d4005e119000ee1190004af4070070179800f6
:1034e400011f98000e109000e30f500050003200ae
:1034f400e30f500005003c00e10f50000a003200c9
:10350400e20f500029003200cd003700e50f5000d3
:1035140089003200e50f500066003500e60f5000c8
:10352400a6003200c60037005e119000ee11900034
:103534003e109000ce10900033f407000004be004b
:1035440002002000030024007e1090008e189000da
:10355400eff407000001be000800be002af40700d3
:10356400008fbe0002002000030024007e109000a3
:103574008e189000e6f407005e119000ee119000a2
:1035840021f407002007980031079800020020006a
:10359400030024007e1090008e189000dcf40700d5
:1035a400101f9800211f9800a5003700020020007a
:1035b400030024007e1090008e189000d4f40700bd
:1035c4003e119000ce1190000ff40700008fbe0052
:1035d4005e119000ee1190003e109000ce1090000d
:1035e40009f407000004be000200200003002400c8
:1035f4007e1090008e189000c5f407000001be00f4
:103604000800be0000f40700200798003107980066
:1036140002002000030024007e1090008e18900009
:10362400bbf40700101f9800211f98008400370086
:1036340002002000030024007e1090008e189000e9
:10364400b3f40700008fbe005e119000ee119000ed
:103654003e109000ce109000ebf307000004be0073
:1036640002002000030024007e1090008e189000b9
:10367400a7f407000001be000800be00e2f3070043
:10368400200798003107980002002000030024005e
:103694007e1090008e1890009df407005e1190003b
:1036a400ee119000d8f30700101f9800211f980016
:1036b4006300370002002000030024007e10900005
:1036c4008e18900092f40700008fbe0002002000c4
:1036d400030024007e1090008e1890008cf40700e4
:1036e4003e119000ce119000c7f307002007980008
:1036f400310798005e119000ee1190003e1090008a
:10370400ce109000c0f307000004be0002002000a9
:10371400030024007e1090008e1890007cf40700b3
:103724000001be000800be00b7f30700101f980098
:10373400211f9800420037000200200003002400eb
:103744007e1090008e18900071f407005e119000b6
:10375400ee119000acf30700008fbe0002002000c1
:10376400030024007e1090008e18900068f4070077
:1037740020079800310798005e119000ee11900028
:103784003e109000ce1090009ff307000004be008e
:1037940002002000030024007e1090008e18900088
:1037a4005bf407000001be000800be0096f30700aa
:1037b400101f9800211f9800210037005e1190000f
:1037c400ee1190003e109000ce1090008ef3070092
:1037d4000004be0002002000030024007e109000bc
:1037e4008e1890004af407000001be000800be00d5
:1037f40085f30700008fbe000200200003002400b0
:103804007e1090008e18900041f407002007980065
:103814003107980002002000030024007e1090006d
:103824008e1890003af407003e119000ce119000db
:1038340075f30700101f9800211f98000000000076
:103844006e019000fe0190001e00be0030f40700df
:1038540002002800733c240005f507000001be00a7
:1038640000002800713c240066f307008ff4070071
:1038740000007800b00c88006e019000fe019000fa
:103884002e009000be00900021f4070002002800e2
:10389400733c2400f6f407000001be000000280079
:1038a400713c240057f3070080f4070000007800ff
:1038b400000d88008e0078006103b0000700090045
:1038c4008018eb004f04be000080fa0000000600e0
:1038d4000000fa0000002800200888008460a90085
:1038e40021058000f0ff2800808060000000260091
:1038f4000100700020058800800c2000100888005a
:103904009460a8000080fa00000006000000fa009d
:103914009021ef009221ef00810c800000c0210073
:1039240001007000800c8800800c80007000b300df
:10393400800c8800900c8000f001b300900c88008b
:10394400700c2000b00c8800f0182000a00c880037
:103954009a21ef009c21ef00d10c800000c02100cf
:1039640001007000d00c8800d00c80007000b300ff
:10397400d00c8800e00c8000f001b300e00c88005b
:10398400700c2000000d8800f0182000f00c880056
:10399400113a8000f00b20000081600060042000d8
:1039a4007105200023742000804978008149780043
:1039b4008249780001368000f00f2e00808060007c
:1039c40000202100010070000036880011368000bc
:1039d400f00f2e0080806000003021000100700094
:1039e40010368800103a8000000178000260a000c0
:1039f40060042000710520002374200080497800b1
:103a040081497800824978008440a9009440a80044
:103a140084c0a90094c0a8000080fa000000060039
:103a24000000fa009a21ef009c21ef00d10c8000e5
:103a340000c0210001007000d00c8800d00c800070
:103a44007000b300d00c8800e00c8000f001b300db
:103a5400e00c8800113a8000f00b20000081600027
:103a64006004200071052000237420008049780040
:103a7400814978008249780011368000f00f2e00c9
:103a84008080600000302100010070001036880042
:103a9400103a8000000178000260a0006004200059
:103aa4007105200023742000804978008149780042
:103ab40082497800700c2000000d8800f018200066
:103ac400f00c880084c0a90094c0a8000080fa000b
:103ad400000006000800fa00881f78000080eb0050
:103ae4000016880000fc2f00401688000080eb00c0
:103af40060198800cefb070084ff07006000b8004f
:103b0400008fbe000000200001f823002007980069
:103b1400310798001e00be00e3fd07002e0190004f
:103b2400be0190001e00be00b7f20700008fbe0069
:103b340018c0b30002002000433b24001e00be0056
:103b4400b7f307000000e00001003d000044eb0073
:103b54000804e000020032006000b800008fbe00dc
:103b640000d420003100200023000700e9ff3700c3
:020000040000fa
:103b7400000800000a000000000000000a0800001d
:103b840002000000000000002e0800001a000000df
:103b940002000000686a6c00747a4c0000000100a6
:103ba40000020000040008000010000000002000d3
:103bb4002b2d2300300000000c0800002200000020
:103bc400020000003031320033343500363738001b
:103bd400394142004344450046003000313233004d
:103be4003435360037383900616263006465660035
:083bf4000000000000000000c9
:020000040000fa
:103bfc00f03fb1000180b10006003500ee03090072
:103c0c0000000000403fb1000180b100fbff3d000f
:103c1c001000b000203fb000020035000080090009
:083c2c0000000000000006008a
:020000040000fa
:020000040001f9
:0457f400fffc0000b6
:020000040000fa
:020000040001f9
:0457f8009f8100008d
:020000040000fa
:020000040001f9
:0457fc007f3f0000eb
:00000001FF
