:020000040000fa
:080000000001040000000000f3
:020000040000fa
:040008004a020000a8
:020000040000fa
:04000c004a020000a4
:020000040000fa
:040010004a020000a0
:020000040000fa
:040014004a0200009c
:020000040000fa
:040018004a02000098
:020000040000fa
:04001c004a02000094
:020000040000fa
:040020004a02000090
:020000040000fa
:040024004a0200008c
:020000040000fa
:040028004a02000088
:020000040000fa
:04002c004a02000084
:020000040000fa
:040030004a02000080
:020000040000fa
:040034004a0200007c
:020000040000fa
:040038004a02000078
:020000040000fa
:04003c004a02000074
:020000040000fa
:040040004a02000070
:020000040000fa
:040044004a0200006c
:020000040000fa
:040048004a02000068
:020000040000fa
:04004c004a02000064
:020000040000fa
:040050004a02000060
:020000040000fa
:040054001a0200008c
:020000040000fa
:040058004a02000058
:020000040000fa
:04005c004a02000054
:020000040000fa
:040060004a02000050
:020000040000fa
:040064004a0200004c
:020000040000fa
:040068004a02000048
:020000040000fa
:04006c004a02000044
:020000040000fa
:040070004a02000040
:020000040000fa
:040074004a0200003c
:020000040000fa
:040078004a02000038
:020000040000fa
:04007c004a02000034
:020000040000fa
:040080004a02000030
:020000040000fa
:040084004a0200002c
:020000040000fa
:040088004a02000028
:020000040000fa
:04008c004a02000024
:020000040000fa
:040090004a02000020
:020000040000fa
:040094004a0200001c
:020000040000fa
:040098004a02000018
:020000040000fa
:04009c004a02000014
:020000040000fa
:0400a0004a02000010
:020000040000fa
:0400a4004a0200000c
:020000040000fa
:0400a8004a02000008
:020000040000fa
:0400ac004a02000004
:020000040000fa
:0400b0004a02000000
:020000040000fa
:0400b4004a020000fc
:020000040000fa
:0400b8004a020000f8
:020000040000fa
:0400bc004a020000f4
:020000040000fa
:0400c0004a020000f0
:020000040000fa
:0400c400cc0100006b
:020000040000fa
:0400c8004a020000e8
:020000040000fa
:0400cc004a020000e4
:020000040000fa
:0400d0004a020000e0
:020000040000fa
:0400d4004a020000dc
:020000040000fa
:0400d8004a020000d8
:020000040000fa
:040108004a020000a7
:020000040000fa
:04010c004a020000a3
:020000040000fa
:040110004a0200009f
:020000040000fa
:040114004a0200009b
:020000040000fa
:040118004a02000097
:020000040000fa
:04011c004a02000093
:020000040000fa
:040120004a0200008f
:020000040000fa
:040124004a0200008b
:020000040000fa
:040128004a02000087
:020000040000fa
:04012c004a02000083
:020000040000fa
:040130004a0200007f
:020000040000fa
:040134004a0200007b
:020000040000fa
:040138004a02000077
:020000040000fa
:04013c004a02000073
:020000040000fa
:040140004a0200006f
:020000040000fa
:040144004a0200006b
:020000040000fa
:040148004a02000067
:020000040000fa
:04014c004a02000063
:020000040000fa
:040150004a0200005f
:020000040000fa
:040154004a0200005b
:020000040000fa
:040158004a02000057
:020000040000fa
:04015c004a02000053
:020000040000fa
:040160004a0200004f
:020000040000fa
:040164004a0200004b
:020000040000fa
:040168004a02000047
:020000040000fa
:04016c004a02000043
:020000040000fa
:040170004a0200003f
:020000040000fa
:040174004a0200003b
:020000040000fa
:040178004a02000037
:020000040000fa
:04017c004a02000033
:020000040000fa
:040180004a0200002f
:020000040000fa
:040184004a0200002b
:020000040000fa
:040188004a02000027
:020000040000fa
:04018c004a02000023
:020000040000fa
:040190004a0200001f
:020000040000fa
:040194004a0200001b
:020000040000fa
:040198004a02000017
:020000040000fa
:04019c004a02000013
:020000040000fa
:0401a0004a0200000f
:020000040000fa
:0401a4004a0200000b
:020000040000fa
:0401a8004a02000007
:020000040000fa
:0401ac004a02000003
:020000040000fa
:0401b0004a020000ff
:020000040000fa
:0401b4004a020000fb
:020000040000fa
:0401b8004a020000f7
:020000040000fa
:0401bc004a020000f3
:020000040000fa
:0401c0004a020000ef
:020000040000fa
:0401c4004a020000eb
:020000040000fa
:0401c8004a020000e7
:020000040000fa
:0401cc004a020000e3
:020000040000fa
:0401d0004a020000df
:020000040000fa
:0401d4004a020000db
:020000040000fa
:0401d8004a020000d7
:020000040000fa
:100200000f9720000eff20000e0188000000000064
:10021000000020000000e000020032000001200089
:1002200020028800140007009c0007000000e00086
:1002300003003a00a08321000100200002003700e3
:100240000000200001002000810f7000010032003a
:1002500014000700000020000000e000020032004f
:100260000000020000000000c817020000000000ab
:100270000040da000000fe004440a900c001200058
:100280000000e0000300320000002000a001880010
:100290004440a800000006008a1f78008b1f7800e9
:1002a0000000060091018800800478000000eb0047
:1002b0001a003700e284440032a0b4009905ba0065
:1002c000e284440032a0b4009906ba00e2844400fb
:1002d00032a0b4000006eb00476fde00fd07b2005d
:1002e000636ce10003003a00ebff07000000eb0045
:1002f0000a003700606ce10004003a00005deb008a
:100300008b05e900fdff3e00040037006168e10055
:10031000010032000086eb000b00070019c7ba008d
:100320001905ba000e04e00003003a000a00e000dc
:10033000e0ff3a0000000600fe07b2009e018800c0
:100340008a047800f5ff3700395dba008b05e900b3
:100350000c003200295dba008b05e900080032006c
:100360000c00e00003003a00e284440032a0b40034
:10037000f5ff370019ddba008b05e900faff3a00f6
:100380008904e800e184440032a0b40000000600c3
:1003900000000000000000003600f800809fbe0052
:1003a000829fbe00849fbe00869fbe00881f78008b
:1003b0000000fa0014408000254080007049800051
:1003c000814980000001be000400be003500070026
:1003d00010408800214088001040800021408000ab
:1003e00018c0b30002002000433b24005201070064
:1003f0000000e00001003d000044eb000804e000c4
:10040000030032006000b8001040880021408800de
:1004100088e0a9000080fa004f0478004f03be0076
:100420004f02be004f01be004f00be003600f90073
:1004300000400600809fbe000000fa0040168000c9
:100440007000600000f0a7000000ea000000e90072
:100450004f00de00004078000080fb00610060007b
:100460004400dd00511680000140a1000100700031
:100470005016880000148000304888001014800056
:10048000404888008560a9000080fa004f00be0047
:10049000004006000040da000000fe0000000500f9
:1004a00003f0a200889fbe008a9fbe008c1f7800c8
:1004b0009d010700a40133006450e1004f003200a9
:1004c0006420e1005200320003826c0007003b0010
:1004d0000905d0000306d000820f54000c065d0011
:1004e000020039000200320089017800030678001a
:1004f0008582550004003d000003fd008103fd00de
:100500008502ea008b854200840f720002003b00e6
:1005100060001000e08018006011b8000005eb00da
:100520007a28e1000a00390006007800c75ddd0086
:10053000f707b200878075002d00370082817100b7
:100540000a017800610560008180d1000080d3003d
:100550008502e900f9ff3b0006044000878448005b
:1005600002003b0060041400e0841c000988a30022
:10057000070032008a81710082817100610164008c
:100580008904d1000884d3008b05e80017003700e8
:100590000978a30013003a000b00e00013003400b8
:1005a0008b05e9000804440089844c000a44740067
:1005b0000978a3000d003a000b00e00007003400aa
:1005c0008b05e9000804440089844c0001003a00ce
:1005d0000b0020000978a300f7ff32000001eb00b8
:1005e00002003700828171000a01780013010700c0
:1005f0000cf0a70001f0a0005c0137006420e100ce
:1006000002003a00838f6c005c0133000801be00d9
:100610000200be0055013700889fbe008a9fbe00c1
:100620008c1f7800400107001002200002003b00f0
:1006300090498800440137008a0062006408e100a4
:1006400002003a00904988004c0137006108e1003f
:10065000fcff32000800be000304780072000700af
:1006600001f0a1000900070008f0a600040037000f
:100670000001be0091042400b0fd200088ff0700a7
:1006800009f0a70001f0a20038013700889fbe00e2
:100690008a9fbe008c9fbe000004be000d010700b3
:1006a0000800be00890678006420e10008003900d7
:1006b000040032000160a00012022000924988006c
:1006c0005300370091fc2300b0fd20004e0037009e
:1006d0000006eb0009f0a10003f82300020020004f
:1006e0000800be00920007000600340001f8230055
:1006f000000020000801be004b0007000004be00ff
:100700002c0020000800be0093e82300320a2300da
:1007100087000700120034000801be00d1fd23004d
:10072000703d2b005fff07000005be00b3f3230000
:10073000f27a26000800be001301070003f8230028
:100740000200200056ff07000801be0055ff070009
:100750000a01be00340007000004be000c06e800d9
:100760000800be0001f0a100020020000398230051
:100770006f0007000800be00160035000801be002b
:10078000010107000005be0032cd2c0043fb230011
:1007900044ff0700809fbe001269280003d52b008c
:1007a0000a00be00f8000700620f210013ef2b00c3
:1007b0003cff07000a01be00f30007004f01be0026
:1007c000190007000801be00ef0007000801be0085
:1007d00034ff07000c00e0000b0032000c10a700f3
:1007e00001f0a200b2fd200093fc23006260e10052
:1007f0000400320022a9200063f023000c10a7009f
:1008000063f8230027ff07000df0a70001f0a20006
:100810004f06be004f05be004f04be00000006009c
:100820000081eb000c013700889fbe008a9fbe004c
:100830008c1f7800bc000700c300330003866c00e7
:100840006450e1002e0032006420e10033003200e9
:100850006150e1002f0032006120e10031003200e0
:1008600085855500eb07b000090020000804200032
:10087000050037000804440089844c000a00310058
:100880000603430087834b000001530081815b0016
:10089000f8ff33000203be000800a0000804440073
:1008a00089844c00f6ff3900c639dd0083017300ee
:1008b00001003200130020008904d1000884d30015
:1008c0000998a300050032000800a7000300a0005b
:1008d0008904d1000884d3008b05e8008904d10085
:1008e0000884d3000001eb000281d200530007000e
:1008f00001f0a1000cf0a70001f0a0009b00370060
:100900006420e1009d0032000801be000200be002c
:10091000f7ff37006120e100980032006000b80066
:10092000f3ff37000000200001f82700f0ff370038
:100930001400200068013700f4ff2f006601370023
:100940000001be00630007000470a70003f0a100cf
:100950006509b100160032000d0035006828e1007d
:1009600006003500f0ff2f00f1ff27000300e00034
:1009700013003b00010028000000050000004000bb
:10098000818048008502e900fcff3a00080037003a
:10099000f88f420002003c008000eb0000000500e0
:1009a0008100d1000080d3008502e800fcff3a00fe
:1009b0000300e00002003b0060001000e08018002f
:1009c000000006000001be00420007000470a700fe
:1009d00003f0a10003f8a30013003a006509b10079
:1009e00010003200090035006928e10002003500de
:1009f0000100280000000500000040008180480040
:100a00008502e900fcff3a0000000600f88f420072
:100a1000050035008100d1000080d3008502e80088
:100a2000fcff3a00000006008000eb00000005001b
:100a30004f89de00820178004201370081002000ea
:100a4000618055000b003d000b00200061fe2f006f
:100a50000100e1001d003400828171006101640029
:100a60008904d1000884d3000000e800faff3a00ae
:100a7000710020006100640003007000020060004b
:100a80000900320061044400e0844c000988a5009c
:100a9000050032008b05e8006808e10002003a001a
:100aa0008904d1000884d300f20f20000258e1002d
:100ab00005003d00c75ddd00f907b20089807500c3
:100ac00008007800000006000bf827008b00780073
:100ad00000000500c70ade00f107b200f50fb20002
:100ae00008003200e1cf4200020032000170a00095
:100af00024000500810f7000010032000408050089
:100b000044000500810f700002003a001400050047
:100b10008502e9000000400081c04800fcff3b0066
:100b20000170a000240005000004be00e9ff0700da
:100b30000003be000405be000200be00e5ff070082
:100b4000844f7500000006000200be006450e10002
:100b5000050036006420e100020036000968a300a9
:100b600001003a000800be000160a0004f067800b6
:100b70004f05be004f04be0000000600f0ff2f002e
:100b8000f1ff2700f9ff3700889fbe008a9fbe0053
:100b90008c1f7800e4ff0700ebff330003866c0036
:100ba0006450e100240032006420e100270032009c
:100bb0006150e100220032006120e100210032009a
:100bc0008b854200eb07b1000134b800003ab80051
:100bd0000804420089844a00013ab8000030b80095
:100be0008880400009014a000400330000004000f2
:100bf00081804800020149008b05e900c909dd0038
:100c0000830170000100320013002000c814de00d0
:100c10004814dd004709de001200b200c808de00fb
:100c20000884700085ff070001f0a1000cf0a70008
:100c300001f0a000cdff37006120e100cfff3200be
:100c40000801be000200be00f7ff37006150e1005e
:100c5000fcff3a00c9ff3700889fbe008a9fbe0094
:100c60008c9fbe00820578000004be0099ff07003b
:100c70000800be006420e1000700390002003a00cd
:100c8000f1ff2700f0ff2f000160a00012022000fa
:100c900092498800550037006120e10003003a00c6
:100ca0000b00a70001f823005000370001f0a1005d
:100cb00002002100936424001dff07000800be000d
:100cc00004003500b2fd2000930c2400dc00070076
:100cd0000004be000005eb000b00a6004f0dde0077
:100ce00001f0a1000004be0032982f0023ea230087
:100cf000a5ff07000001eb0003f023000b00a70095
:100d000003f82300e7fd07000dff07000000a70020
:100d10000a00a20046ff07000b00e00003003200bb
:100d20000200200003f02300ddfd070001f0a20017
:100d30000006be00020020009304240092ff07007a
:100d40000801be00d7fd0700809fbe000c00be005a
:100d500022a22a00d3a723008bff07004f01be0069
:100d6000d0fd07000004be0001f0a1000200200039
:100d700003982300eefe07000800be0019003500ae
:100d80000001be0080ff07000006be00b2c52900ba
:100d9000e36223007cff070022222b00f3942b0048
:100da000c0fd07000c01be0077ff0700e2732800ba
:100db00083c02300bbfd07000c01be0072ff0700cb
:100dc00042aa2a00a3e22b00b6fd07000c01be00d8
:100dd0006dff07000801be006bff07000801be00a1
:100de000b0fd07000a00a70001f0a2004f06be00f8
:100df0004f05be004f04be00000006000001eb00de
:100e000095ff3700889fbe008a9fbe008c1f780028
:100e10000004be002fff07000478a30026003a005c
:100e20006120e1002500320009f8a30025003a0006
:100e30006420e10021003200f507b1000508a3009d
:100e40000200320000004000818048006044b80089
:100e500003102000020020000000400081804800b4
:100e60000805440089854c000a0541008b8549002e
:100e70000a0550008b855800030033000a00be00ad
:100e800002047400838474008301d1000281d300c2
:100e9000830f7100f0ff3a008904d1000884d30069
:100ea0006001490082017800c1adde00fb07b0009f
:100eb000e2fe07002dff37000960a0000800be0019
:100ec0002aff37001202200092498800f0ff2f000d
:100ed000f1ff270025ff3700889fbe008a9fbe00d4
:100ee000841f780010ff07004f00780011003300c6
:100ef000f0ff2f00838f6c0006003b0004056500a7
:100f00000a00a7000800370009f0a6001000200022
:100f100008003700820f5400838f5c000300390003
:100f20001000200001003e000000200009f0a70092
:100f30000000ea004f05be004f04be000000e000c4
:100f400000000600881f7800030478000300e0001a
:100f500007003d0060001000e080180060011900eb
:100f6000e081190002003b0001f02d000300370072
:100f70000400070008f0a70001f0a0004f0478006b
:100f800000000600889fbe008a9fbe00008270009d
:100f90000402710004827100260032000004be00c9
:100fa0000200be006011b8006b092000950220000d
:100fb0000182cf000a0039000541b1000082cf0054
:100fc000070039000541b1000982cf000400390053
:100fd0000541b1000882cf00010039000541b10090
:100fe00005425200120032000a003b00828171006b
:100ff000610164008100d1000080d3008984d300a6
:101000000884d3008b05e8000442e800f7ff3a00ab
:10101000070037000804440089844c0000004800a1
:10102000818048008b05e9000442e900f9ff3a009d
:1010300082fe07004f05be004f04be000000060000
:101040000400200000003700889fbe008a9fbe0079
:101050008c1f78004f26dd00b3fe0700bafe330078
:101060006120e100430032006250e10041003e0097
:101070003e0039006420e1003c003200058255004a
:101080000f003b000402e80038003a00800f5300d4
:10109000818f5b00350034000800be0003f0a10022
:1010a00001f0a60003f0a0000cf0a700fdfc070073
:1010b000aefe37000603430087834b000c46460014
:1010c0000005530081855b00020033000a03be0067
:1010d0000c00a0000402e900f6ff3b008505780043
:1010e0000602430087824b0004003a006000b8000b
:1010f00009f0a70001f0a0009cfe3700000252009a
:1011000081825a000704e000040033000603430014
:1011100087834b008b05e900faff3700090578004b
:101120000604be000203be006011b80043fe0700c3
:10113000e00f5200e08f5a000700350002003c002b
:101140000c08a300040032000601be0003f0a0005a
:101150000cf0a700d3fc07000a85680001f0a1008d
:101160000af0a70001f0a00080fe37000800be00d2
:101170007efe3700100220000cf0a6009049880087
:101180007efe3700881f780002047800080178008e
:10119000c4000700080040004f047800000006006b
:1011a0000000fa00881f780000047800ea815700e8
:1011b0003fb9970088007800208c200007000700c6
:1011c0000000e000020035008040eb000174780070
:1011d0004f0478000080fa00000006006200fa0068
:1011e000889fbe008a1f780000057800810478007f
:1011f000020478008300780080f92f000f0040007f
:10120000770107009a979f00a9979f000000eb00c5
:10121000b09f9f001885fb008a04fb000a05ea00c6
:101220004f55de0050022000808f54000d00320028
:10123000e10f55000b003a000a01780088007800a1
:101240002f9097009f91970003000100a0979f00a7
:101250000000e0008e0032003f9897000000e80098
:10126000b09f9f000a04440050022000808f540069
:10127000040032000900e000e6ff3a003f989700c2
:10128000840037000000eb00909f9f00809f9f002c
:10129000f0979f00e0979f00d0979f00c0979f0016
:1012a00007003700a1962000010050000000400018
:1012b000e195200061007800df9897000100700040
:1012c000d09f9f0088047800090478003845780092
:1012d0008a00fb00a0962000790007000000e000d3
:1012e000f0ff3a00a1c2b300814f55000e003a0052
:1012f000cf8897000180e900c08f9f001000780020
:10130000c09f9f000000e00005003d000000ea00d3
:10131000c09f9f005f9897000020a000d09f9f0073
:101320000904e8000f003700c09f9f000000eb0099
:1013300005003700f2ff2700820f50000200320044
:101340006a01b9000280400009047800880478002e
:10135000b900fb000103b100e98f5000f5ff360032
:10136000c09f9f00e0c2b300984f100002003200ff
:101370000080eb0019003700a0c2b300d84f100066
:1013800007003a00cf8897000180e900c08f9f00d6
:1013900010007800a09f9f000804e80010003700ac
:1013a0000000eb00a09f9f00880078000500370038
:1013b000f3ff2700830f5000020032006a02b900d9
:1013c0000400410001047800880078003101fb002e
:1013d0000203b100e90f5100f5ff3600a09f9f0006
:1013e000984478008900fb006095200034000700d5
:1013f0000000e000020032000804e80001003700ad
:101400008044eb00c97f9f0080c6b30080cf5400aa
:1014100004003a0098cf14000a003a0066405000d9
:1014200006003700c0c6b30080cf540005003a0064
:1014300098cf140003003a0065404000c07f9f0031
:101440000804e8001801fb00e3fb2f008f81410036
:1014500081f92f008f804000a0f92f000f0040007d
:10146000e10007000000e00009003a00e1fb2f0066
:101470008f804000a0f92f000f0040001c000700e3
:101480000000e000020035000804e80061ff3700ba
:101490000080eb004f0578004f04be000080fa008a
:1014a000000006008001780002003700b159780082
:1014b0000201e9000200e000fcff3a000000060023
:1014c000020037000304e00006003200000178004b
:1014d00002007800b041780081cf5100f9ff3a0056
:1014e000010037000001eb00020078000000060058
:1014f0000400fa00889fbe008a9fbe008c1f7800ff
:101500000004780001067800f80d90007800900043
:1015100080855500080890008085550018089000c7
:101520008085550028089000808555003808900077
:1015300080855500480890008085550000022200f3
:1015400090bf9f0000032300a0bf9f0008109000e1
:101550000028a30015003a000b00e000130034003f
:101560000b0578008a047800e20f55000100360070
:1015700029002000c801900009017800ee80570082
:101580005800900003000100500498000000e000a3
:101590008c0032006808900009004000600c980040
:1015a000090555004240a900eeff3c00780190007b
:1015b0000200e0000c003400c80190008c007800ac
:1015c0005800900003000100500498008080eb0058
:1015d0000000e0007c003200e808900078009000f5
:1015e00000804000600c9800880c90000900e0002a
:1015f0001100340009057800e28f54000100360024
:101600002a002000c80190000a017800ec805700f1
:101610005800900003000100500498000000e00012
:1016200068003200680890000a004000600c9800d2
:101630008a845400edff3700180990000200e00092
:101640000c003400c8019000e800900058009000a1
:1016500003000100500498008080eb000000e000cf
:1016600059003200e80890001808900000804000ff
:10167000600c9800a80c90000900e00011003400f4
:1016800009057800e28f5400010036002a0020008e
:10169000c80190000a017800ec80570058009000c3
:1016a00003000100500498000000e00045003200f3
:1016b000680890000a004000600c98008a8454007a
:1016c000edff3700380990000200e0000e00340002
:1016d000e80090001808900080804000c801900049
:1016e0005800900003000100500498008080eb0037
:1016f0000000e00034003200e80890003808900054
:1017000000804000600c9800c80c90000900e000c8
:101710001100340009057800e28f54000100360002
:101720002a002000c80190000a017800ec805700d0
:101730005800900003000100500498000000e000f1
:1017400020003200680890000a004000600c9800f9
:101750008a845400edff3700081090008000eb00f1
:101760000028a300180032000b00e000160034002f
:101770008b04780009057800e28f540001003600e0
:101780002a002000c80190000a017800ee8057006e
:101790005800900003000100500498000000e00091
:1017a00008003200680890000a004000600c9800b1
:1017b0008a8454004240a900eeff3c008000eb0008
:1017c000010037008080eb00010078004f067800b0
:1017d0004f05be004f04be000080fa000000060066
:1017e0000108780000000600889fbe008a9fbe00a6
:1017f000e4c6b300844f5100be00320010003c002c
:101800006b425200844f51001800320005003c002a
:1018100054c2b300844f5100f600320084c5b300b7
:101820000f00370044c6b300844f5100140032004b
:1018300065424200844f5100f1003a001000370029
:1018400004c7b300844f5100dd003200560035005c
:1018500065424200844f510053003200634242000f
:10186000844f5100e6003a004f0037001181e90033
:1018700082087800f000900012417800de00370006
:1018800020629000c5c6b300854f520007003a00a1
:101890009102780064825200840878001402be002d
:1018a0004fabde00860378001400370015c7b30085
:1018b000854f520003003a0011047800680254007a
:1018c00005003700a5c6b300854f520006003a0058
:1018d0009104780068825400840878005403be00a4
:1018e0004402be00050037001182e9008408780038
:1018f00014027800cfa2de00612bb9000498be006c
:101900000690be00a060900088c6b30088cf50004b
:101910000d00320028c6b30088cf500004003a0002
:101920000402fb00cfa2de00612bb90008003700e3
:1019300048c7b30088cf500003003200664444001b
:1019400088cf500004003a00cfa2de00612bb9001e
:101950000498be000690be003002be002003be0008
:10196000f0009000e00f5200e08f5a00e00f5b00a3
:10197000e08f5b0002003d00d4c2b30008003700d6
:10198000001290000418a30002003200b4c2b30099
:10199000030037000408a3005100320004c2b30062
:1019a00084f178004c00370020629000c5c6b30077
:1019b000854f520008003a00110578006402550076
:1019c000840878001404be006055b8000802be0008
:1019d0000a03be001400370015c7b300854f52003c
:1019e00003003a0091047800688254000500370033
:1019f000a5c6b300854f520006003a0011057800d5
:101a000068025500840878005403be004402be00fa
:101a1000050037001182e90084087800140278007c
:101a20008002eb006033b8000498be000690be0050
:101a3000a060900088c6b30088cf50000d0032002f
:101a400028c6b30088cf500004003a000482fb008f
:101a50008002eb006033b8000800370048c7b300cd
:101a600088cf5000030032006644440088cf500005
:101a700004003a008002eb006033b8000498be0016
:101a80000690be00801090000138a30014003200c0
:101a90003002be002003be00e00f5200e08f5a006b
:101aa000e00f5b00e08f5b000d00320081c7b300e8
:101ab000814f51000300320081c5b300814f5100b6
:101ac00007003a00f000900004c3b30084f17800ee
:101ad0008100e80082f178008100e8007100980040
:101ae000f0009000818141006300980082407800fe
:101af0003e003700a0619000c4c6b3001181e90028
:101b000084cf5100220032000a003c00644252009f
:101b100084cf51002500320004c2e80084cf510078
:101b2000130032006842520084cf51001e003a0078
:101b30000a00370044c7b30084cf51001b003200b5
:101b40006642420084cf51001800320069425200c0
:101b500084cf510014003a00050037008208780055
:101b60009200780040589000804878002c003700a0
:101b70008208780092007800600a9000cfa2de0010
:101b8000612bb9008498be008690be002400370007
:101b9000820878009200780060099000cf91de0002
:101ba0008288be001e0037001181e900820878009b
:101bb00092007800600890008008780018003700d4
:101bc0001181e9008208780012027800cfa2de00bd
:101bd000612bb9000498be000690be00f000900092
:101be000818141006300980081c7b30010000700a5
:101bf0000b003700f000900082f1780006003700fb
:101c0000f0009000818141000204e00001003a00f0
:101c100052c2b300824978008100e8007100980048
:101c20000000eb004f05be004f04be0000000600a0
:101c3000fc874700889fbe008a9fbe008c9fbe0025
:101c40008e1f78000006780080c5b30080cf50005a
:101c50000a0032007740400080cf50000a00320076
:101c60006940400080cf50000b00320050942000ab
:101c700080bf9f00ae0020000a0037004293200082
:101c800082bf9f00060037005394200083bf9f004f
:101c90008e002000030037005494200084bf9f0072
:101ca0000e0120003c02be002c03be000605be0053
:101cb0000404be0040c6b30080cf500003003200d1
:101cc0006540400080cf50000b003a00e00f52000a
:101cd000e08f5a00e00f5b00e08f5b0006003d00e4
:101ce0006000b8006011b8000404500085845800fa
:101cf0000605590087855900e80f57000400320097
:101d000040002000f00f570038003a000100370073
:101d100030002000e00f5400e08f5c00e00f5d0019
:101d2000e08f5d0004003a00dc0890008d01200087
:101d30000100e000060032008e00e90088806000ab
:101d40008fba9700e5c07800f1ef9f007d01200079
:101d5000800078008100e900050033008b05d10088
:101d60000a85d3008984d3000884d300f9ff3700a3
:101d7000089ebe000a96be00120037008d06e900dc
:101d80008e00e900848060000fb99700e2c17800fe
:101d900082fd2f000f01410003f17e0080007800da
:101da0008100e900050033008783d1000683d3005a
:101db0008582d3000482d300f9ff3700049ebe0061
:101dc0000696be003c02be002c03be00e00f52008f
:101dd000e08f5a00e00f5b00e08f5b008b00340067
:101de0000d00e000e5ff3c00880037002c6090000b
:101df00081c6b300814f50000b00320006003c004a
:101e00000004e00008003200e6c05000814f50009e
:101e10004e003a0004003700c1c6b300814f5000a5
:101e20004a003a00210037000800e00004003a00b0
:101e30005c0890008d0120000000e00006003200e8
:101e4000110009000e84d8000fb99700e2c0780095
:101e5000f1ef9f007d012000110009000e84d800e1
:101e60000a003700110009000e04d8008d06e900b1
:101e70000e81b900020454008fb8970061417c00c4
:101e800081fd2f008f80400082f07e0000047800ea
:101e90000800e000020032000d00e000f1ff3c000d
:101ea000cfc4de00614db90025003700e00f5400bb
:101eb000e08f5c0004003a005c0890008d01200077
:101ec0000000e000070032006171b9000800be00a8
:101ed000a50007008fb99700e3417800f3ef9f005a
:101ee0007d0120006171b9000800be008e0007006e
:101ef0000b0037006171b9000800be007b000700cd
:101f00008d06e90000f1b900020454000fba9700f1
:101f1000e4427c0084fd2f000f02420005f27e00a7
:101f20000004be00e00f5000e08f580002003200b5
:101f30000d00e000efff3c004fcdde008a05780089
:101f4000089ebe000a96be0030003700e00f540025
:101f5000e08f5c00e00f5d00e08f5d0004003a0060
:101f60005c0890008d0120000000e00009003200b4
:101f70006172b900612bb9000800be000a01be0001
:101f80001c0107000fba970064427800f4ef9f002d
:101f90007d0120006172b900612bb9000800be000c
:101fa0000a01be000c0107000d0037006172b90084
:101fb000612bb9000800be000a01be001101070034
:101fc0008d06e90000f2b900040454008fba9700ae
:101fd00065427c0085fd2f008f82420084f27e00e6
:101fe000009ebe000296be003c04be002c05be0052
:101ff000e00f5400e08f5c00e00f5d00e08f5d00bb
:10200000020034000d00e000e8ff3c00e80f57003c
:1020100010003a000c1090000038a3000d003200b0
:10202000f78f560006003e0085fd2f008f8242008c
:10203000e5c07e0000c3b30080cf50000500320031
:102040008d06e90002c3b30081fd2f008f804000a0
:1020500082f07e0078811600120e98006c009000cd
:1020600083fd2f008f8141008d8041000dfd070011
:102070001c089000dc089000810f500006003d0015
:1020800000805000000e98000c1090000040a1004d
:10209000001698000f0037000100e0000d003d0021
:1020a0008c109000f4806000f08f500009003a001e
:1020b0007c099000fc009000810051000c09900008
:1020c00082805000008050004240a900010034008e
:1020d000000e98004f0778004f06be004f05be0067
:1020e0004f04be00cf01b10000000600839f6800ce
:1020f0000100e00002003d0060001000e0801800d8
:102100000300e00002003d0060011100e0811900c1
:10211000050007004f00e00002003b0060001000d7
:10212000e0801800000006006022b80006022000cf
:102130000000d0008180d2000482d2008582d200cb
:102140000000a0000202520083825a000300310006
:102150000202420083824a000000a1000603e90057
:10216000f3ff3a0000000600efff07000400be0086
:1021700000000600889fbe008a9fbe003004420017
:10218000b0844a0030054b0090854b006000b100e0
:102190000898be000a90be000440e10005c8e100b6
:1021a00006d0e10007d8e1000200310068004000dd
:1021b0001008e8004f05be004f04be0000000600f6
:1021c000889fbe008a9fbe003004be002005be006e
:1021d0000418540005985c0006185d0007985d001f
:1021e000110020000440e10005c8e10006d0e10034
:1021f00007d8e100010039008000eb0010881000d2
:102200004f05be004f04be00000006001200fa0099
:10221000889fbe008a9fbe008c9fbe00e0b79f00d3
:10222000f1b79f0082bf9f0093bf9f000605be00cd
:102230000404be000000eb00d0b79f00c0b79f00b1
:10224000b0b79f00a0b79f0090b79f000006eb00bb
:102250005fb19700cfb09700820141003fb0970077
:102260000200e00004003d00370007007e805700b8
:10227000c0ff070003003700330007007e805700cf
:10228000cfff0700dfb697000d00e0000c0035001f
:102290006fb29700ffb297000fbb97009fbb9700ec
:1022a00010002000010020006011b8000002720040
:1022b0008182720002037300838373001b00070096
:1022c0000c06e80001042000810f5600e0ff3a00f0
:1022d0000d00e00004003d000802be000a03be003d
:1022e0007e805700a3ff07005fa897000000e00072
:1022f00005003a001fb29700afb297003fb39700b6
:10230000cfb39700090007006fb09700ffb09700a8
:102310000fb997009fb997004f06be004f05be004a
:102320004f04be000080fa00000006000100070014
:1023300000000600a4b79f00b5b79f00c6b79f0076
:10234000d7b79f00000006004f09de0082817100b0
:10235000b3b79f004f01de00818040008280700093
:10236000a1b79f008fb097004f09de00000040002a
:102370000200700090b79f007fa897004f01de0019
:10238000818040008280700081b79f000d000700af
:102390004f3ade000000400004007000f0af9f00e4
:1023a000080007000402420085824a0006034b0031
:1023b00087834b00dfff07000802be000a03be0050
:1023c000000006002fb29700bfb297004fb39700ee
:1023d000dfb3970000000600881f78001800200077
:1023e000881f780089ff07008f87e9004f04780075
:1023f00000000600801feb0084ff07008f87e900c4
:1024000000000600889fbe008a9fbe00e00f5000bb
:10241000e08f5800e00f5900e08f59000c003d009c
:102420006044b8006055b8000000540081805c0032
:1024300002015d0083815d00180020001500070087
:1024400008003d00180007000004eb0005003700fd
:102450000004eb000f00070002003d00120007001f
:1024600018002000dcff07000800e0000600320032
:102470006022b8006033b8000000520081805a002a
:1024800002015b0083815b004f05be004f04be006c
:1024900000000600e00f5200e08f5a00e00f5b00e2
:1024a000e08f5b00000006006044b8006055b80093
:1024b0000402540085825c0006035d0087835d0092
:1024c00000000600889fbe008a9fbe008c1f780017
:1024d000e00f5000e08f5800e00f5900e08f5900e6
:1024e0000d003d006044b8006055b8000000540085
:1024f00081805c0002015d0083815d001c00200082
:102500000820e10009a8e1000ab0e1000bb8e100f1
:102510000d003d00080037000006eb00e00f520000
:10252000e08f5a00e00f5b00e08f5b0006003d008b
:102530006044b8006055b8000402540085825c0015
:1025400006035d0087835d00aaff07000c00e00022
:10255000060032006022b8006033b800000052006c
:1025600081805a0002015b0083815b004f06780086
:0c2570004f05be004f04be000000060036
:020000040000fa
:10257c0046720000616d0000653a000020300000da
:10258c00782500002e340000780a00004461000019
:10259c00746100003a20000030780000252e000005
:0825ac00347800000a00000071
:020000040000fa
:1025b4000000fa001622ef001822ef00f00b2000b2
:1025c400f010880017e2a8008520a9008540a90022
:1025d4008d20a9008d40a90019e2a8001942a80085
:1025e4000080fa00000006000200fa00000f7800e4
:1025f4009e007800014088000040800090407800f0
:102604008100fb00d11088000000e8000040880031
:102614000080fa00000006000200fa00004f780073
:1026240000000000c1108000001020000080600045
:102634000000e000fbff32001e00fb00d010880009
:102644000080fa00000006000400fa001007980059
:102654000040eb00004f7800060037001e80fb00ae
:102664009e0090000080400010407800eaff0700c0
:102674001e4fe8001e80fb009e009000008040007a
:10268400104078000004e000f4ff3a000080fa00f3
:10269400000006000000fa0021e2a9002022ef0059
:1026a4002222ef00d242a900d642a8002342a80069
:1026b4002322a80022a2a8002202a8002222a90004
:1026c4002242a9002262a8002282a80020c2a900f6
:1026d4008500a9008d00a90021e2a80000002400c3
:1026e40021002000890207000080fa000000060093
:1026f4000400fa00004f7800114798001207980070
:102704001e80fb00cf00dd001e4090000080fb0017
:102714004b00dd0000804000800078001e00900027
:10272400008040000080fa00000006000200fa0069
:10273400000f7800303327000100200073020700e7
:10274400d642a90090992300010020006f020700df
:1027540020c2a90000000000001180006200600097
:102764000000e000fcff3a009e0078002111880080
:102774000000000000118000610060000000e00023
:10278400fcff320090992300010020005f02070043
:10279400d642a80030332700010020005b02070066
:1027a400201180000080fa00000006000000fa00fa
:1027b400c021ef00c221ef00c621ef00c821ef00c5
:1027c400ca21ef00cc21ef00010e8000c0ff2f00d2
:1027d400008060000010a000000e8800c901a9005c
:1027e400c881a800c801a800c921a900c8a1a800df
:1027f400c821a800c941a900c8c1a800c841a800af
:10280400210e80000000280080806000002e20003f
:1028140001007000200e8800102e2000b00e8800e9
:10282400102e2000c00e8800102e2000d00e88002c
:1028340088e0a90090e0a800c1e1a8000080fa00a7
:10284400000006001800fa00889fbe0040079800a8
:10285400510798006207980073079800040f9800c6
:10286400150f9800260f9800370f980000002000dd
:1028740001112400008fbe0000002000010e24007e
:1028840020079800310798002e089000be08900099
:10289400e2f707001e01be00baf807000004be00fc
:1028a4002e089000be08900053f907002e019000f6
:1028b400be019000b3f807000001be000800be008e
:1028c400f6f607004e0190000089be002e08900025
:1028d400be089000d1f707002e019000be019000c1
:1028e400a8f807000004be002e089000be0890005f
:1028f40041f907001e01be00a2f807000001be0056
:102904000800be00e6f607005e0190000089be00e4
:102914004f04be000080fa00000006002e00fa00fa
:10292400889fbe00301798004117980052179800ee
:10293400631798003e119000ce1190003e10900055
:10294400ce1090008ff807000004be005e119000c6
:10295400ee1190005e109000ee10900089f80700d0
:102964000001be000800be00cdf6070024f90700f0
:1029740060079800710798003e119000ce119000f6
:102984005e109000ee10900022f70700b2fd2000c8
:1029940093042400c2f60700000f9800110f98005a
:1029a40022a9200063f823000e0890009e089000de
:1029b4009cf707000200200003f82300b8f6070084
:1029c400def70700200f980018c0b30002002000b3
:1029d400031824006e009000fe009000d5f7070055
:1029e4000000e00001003c000044eb000804e000ab
:1029f4000400320000002000011824006007980041
:102a04007107980050b82e0011f12300300f980080
:102a1400410f9800723d2b00d3f523003e0890002f
:102a2400ce08900057f807000004be002e0890005e
:102a3400cf80de00fdf70700b2fd200093042400e0
:102a440050f80700020020000304240075f7070073
:102a54000e0990009e09900090f60700e6f8070022
:102a64000001be000800be0046f80700500f9800a1
:102a7400610f9800723d2b00d3f523003e089000af
:102a8400ce0890003ff807000004be002e08900016
:102a94000000e900cf80de00e4f70700b2fd20006b
:102aa4009304240037f807000200200003042400e4
:102ab4005cf707000001be000e0890009e0890001d
:102ac40076f60700ccf807000001be000800be003f
:102ad4002cf80700700f9800011798005e09900009
:102ae400ee0990000000200001f823006bf60700b7
:102af4007e0990008e11900068f607001017980068
:102b0400211798002e089000e30f50005000320067
:102b1400e30f500005003c00e10f50000a003200b2
:102b2400e20f500029003200cd003700e50f5000bd
:102b340089003200e50f500066003500e60f5000b2
:102b4400a6003200c60037007e0990008e11900066
:102b54005e089000ee08900051f607000004be00e5
:102b640002002000030024001e109000ae1090000c
:102b74002cf707000001be000800be0048f607005d
:102b8400008fbe0002002000030024001e109000ed
:102b9400ae10900023f707007e0990008e1190007c
:102ba4003ff6070020079800310798000200200034
:102bb400030024001e109000ae10900019f70700c7
:102bc4004007980051079800a50037000200200034
:102bd400030024001e109000ae10900011f70700af
:102be4005e099000ee0990002df60700008fbe00ec
:102bf4007e0990008e1190005e089000ee0890000f
:102c040027f607000004be00020020000300240091
:102c14001e109000ae10900002f707000001be00e5
:102c24000800be001ef60700200798003107980030
:102c340002002000030024001e109000ae1090003b
:102c4400f8f6070040079800510798008400370001
:102c540002002000030024001e109000ae1090001b
:102c6400f0f60700008fbe007e0990008e119000e0
:102c74005e089000ee08900009f607000004be000c
:102c840002002000030024001e109000ae109000eb
:102c9400e4f607000001be000800be0000f60700cd
:102ca4002007980031079800020020000300240048
:102cb4001e109000ae109000daf607007e09900016
:102cc4008e119000f6f50700400798005107980010
:102cd4006300370002002000030024001e1090004f
:102ce400ae109000cff60700008fbe000200200057
:102cf400030024001e109000ae109000c9f60700d7
:102d04005e099000ee099000e5f5070020079800a1
:102d1400310798007e0990008e1190005e089000a3
:102d2400ee089000def507000004be00020020005b
:102d3400030024001e109000ae109000b9f60700a6
:102d44000001be000800be00d5f50700400798004a
:102d540051079800420037000200200003002400bd
:102d64001e109000ae109000aef607007e09900091
:102d74008e119000caf50700008fbe0002002000eb
:102d8400030024001e109000ae109000a5f607006a
:102d940020079800310798007e0990008e1190005a
:102da4005e089000ee089000bdf507000004be0028
:102db40002002000030024001e109000ae109000ba
:102dc40098f607000001be000800be00b4f5070035
:102dd4004007980051079800210037007e099000b1
:102de4008e1190005e089000ee089000acf507008c
:102df4000004be0002002000030024001e10900006
:102e0400ae10900087f607000001be000800be0067
:102e1400a3f50700008fbe00020020000300240079
:102e24001e109000ae1090007ef607002007980058
:102e34003107980002002000030024001e109000b7
:102e4400ae10900077f607005e099000ee0990003e
:102e540093f5070040079800510798000000000010
:102e64001e00be000001be008df507000200240014
:102e74008343240043f707000200200003f82300e3
:102e840086f50700cef6070000007800b00e880033
:102e94002e009000be0090000001be0080f50700e7
:102ea400020024008343240036f7070002002000b8
:102eb40003f8230079f50700c1f607000000780045
:102ec400c00e88004e009000de0090000001be009d
:102ed40073f50700020024008343240029f7070048
:102ee4000200200003f823006cf50700b4f6070085
:102ef40000007800d00e88004f04be000080fa0065
:102f0400000006000000fa0001158000f0f12f0017
:102f14008080600000062000010070000015880019
:102f2400a042a8001115800030fc2f000080600032
:102f34000020a00010158800a342a80021158000dd
:102f440000f0210001007000201588002115800088
:102f540000fc2f00808060008002200001007000cf
:102f640020158800a622ef00c0002000501588001c
:102f7400a842a900a862a9008560a9008d60a900e3
:102f8400a1e2a8000080fa00000006000400fa0094
:102f94000080eb004015880000002800410020005c
:102fa4005a000700c682a900ca82a90080fd070052
:102fb400b8fd07000000eb00000f78000000eb00f4
:102fc400100798000001eb0021c0b30010c0b3004b
:102fd400c7fd0700100798001e009000d3fd0700ee
:102fe400000f78009e1f78009e009000811f7800db
:102ff400e02b2900801f78006080200067f807001c
:10300400e6875700608020008ffd07000000200045
:10301400d10220003d000700f0f92f001e006000df
:103024000002b0000001780021c0b3000040eb00b2
:10303400affd0700100798001e009000bbfd0700bd
:10304400000f78009e1f78009e009000811f78007a
:10305400e02b2900801f7800608020004ff80700d3
:10306400e68757006080200077fd0700ffff3700e8
:020000040000fa
:10307400000800002e010000000000002e090000de
:103084000400000002000000000000003f000000f7
:103094003209000002000000000000005609000090
:1030a4001a00000002000000686a6c00747a4c0088
:1030b40000000100000200000400080000100000ed
:1030c400000020002b2d23003000000034090000f4
:1030d4002200000002000000303132003334350099
:1030e4003637380039414200434445004600300039
:1030f40031323300343536003738390061626300c9
:0c31040064656600000000000000000090
:020000040000fa
:10311000f03fb1000180b10006003500ee03090068
:1031200000000000403fb1000180b100fbff3d0006
:103130001000b000203fb000020035000080090000
:08314000000000000000060081
:020000040000fa
:0200000401f009
:04000000f7bf000046
:020000040000fa
:0200000401f009
:04000400ff7f00007a
:020000040000fa
:0200000401f009
:04000800fcff0000f9
:020000040000fa
:0200000401f009
:04001400ffff0000ea
:020000040000fa
:0200000401f009
:04001800ffff0000e6
:00000001FF
