:020000040000fa
:080000000001040000000000f3
:020000040000fa
:04000800f6010000fd
:020000040000fa
:04000c00f6010000f9
:020000040000fa
:04001000f6010000f5
:020000040000fa
:04001400f6010000f1
:020000040000fa
:04001800f6010000ed
:020000040000fa
:04001c00f6010000e9
:020000040000fa
:04002000f6010000e5
:020000040000fa
:04002400f6010000e1
:020000040000fa
:04002800f6010000dd
:020000040000fa
:04002c00f6010000d9
:020000040000fa
:04003000f6010000d5
:020000040000fa
:04003400f6010000d1
:020000040000fa
:04003800f6010000cd
:020000040000fa
:04003c00f6010000c9
:020000040000fa
:04004000f6010000c5
:020000040000fa
:04004400f6010000c1
:020000040000fa
:04004800f6010000bd
:020000040000fa
:04004c00f6010000b9
:020000040000fa
:04005000c8010000e3
:020000040000fa
:04005400f6010000b1
:020000040000fa
:04005800f6010000ad
:020000040000fa
:04005c00f6010000a9
:020000040000fa
:04006000f6010000a5
:020000040000fa
:04006400f6010000a1
:020000040000fa
:04006800f60100009d
:020000040000fa
:04006c00f601000099
:020000040000fa
:04007000f601000095
:020000040000fa
:04007400f601000091
:020000040000fa
:04007800f60100008d
:020000040000fa
:04007c00f601000089
:020000040000fa
:04008000f601000085
:020000040000fa
:04008400f601000081
:020000040000fa
:04008800f60100007d
:020000040000fa
:04008c00f601000079
:020000040000fa
:04009000f601000075
:020000040000fa
:04009400f601000071
:020000040000fa
:04009800f60100006d
:020000040000fa
:04009c00f601000069
:020000040000fa
:0400a000f601000065
:020000040000fa
:0400a400f601000061
:020000040000fa
:0400a800f60100005d
:020000040000fa
:0400ac00f601000059
:020000040000fa
:0400b000f601000055
:020000040000fa
:0400b400f601000051
:020000040000fa
:0400b800f60100004d
:020000040000fa
:0400bc00f601000049
:020000040000fa
:0400c000f601000045
:020000040000fa
:0400c400f601000041
:020000040000fa
:0400c800f60100003d
:020000040000fa
:0400cc00f601000039
:020000040000fa
:0400d000f601000035
:020000040000fa
:0400d400f601000031
:020000040000fa
:0400d800f60100002d
:020000040000fa
:04010800f6010000fc
:020000040000fa
:04010c00f6010000f8
:020000040000fa
:04011000f6010000f4
:020000040000fa
:04011400f6010000f0
:020000040000fa
:04011800f6010000ec
:020000040000fa
:04011c00f6010000e8
:020000040000fa
:04012000f6010000e4
:020000040000fa
:04012400f6010000e0
:020000040000fa
:04012800f6010000dc
:020000040000fa
:04012c00f6010000d8
:020000040000fa
:04013000f6010000d4
:020000040000fa
:04013400f6010000d0
:020000040000fa
:04013800f6010000cc
:020000040000fa
:04013c00f6010000c8
:020000040000fa
:04014000f6010000c4
:020000040000fa
:04014400f6010000c0
:020000040000fa
:04014800f6010000bc
:020000040000fa
:04014c00f6010000b8
:020000040000fa
:04015000f6010000b4
:020000040000fa
:04015400f6010000b0
:020000040000fa
:04015800f6010000ac
:020000040000fa
:04015c00f6010000a8
:020000040000fa
:04016000f6010000a4
:020000040000fa
:04016400f6010000a0
:020000040000fa
:04016800f60100009c
:020000040000fa
:04016c00f601000098
:020000040000fa
:04017000f601000094
:020000040000fa
:04017400f601000090
:020000040000fa
:04017800f60100008c
:020000040000fa
:04017c00f601000088
:020000040000fa
:04018000f601000084
:020000040000fa
:04018400f601000080
:020000040000fa
:04018800f60100007c
:020000040000fa
:04018c00f601000078
:020000040000fa
:04019000f601000074
:020000040000fa
:04019400f601000070
:020000040000fa
:04019800f60100006c
:020000040000fa
:04019c00f601000068
:020000040000fa
:0401a000f601000064
:020000040000fa
:0401a400f601000060
:020000040000fa
:0401a800f60100005c
:020000040000fa
:0401ac00f601000058
:020000040000fa
:0401b000f601000054
:020000040000fa
:0401b400f601000050
:020000040000fa
:0401b800f60100004c
:020000040000fa
:0401bc00f601000048
:020000040000fa
:0401c000f601000044
:020000040000fa
:0401c400f601000040
:020000040000fa
:0401c800f60100003c
:020000040000fa
:0401cc00f601000038
:020000040000fa
:0401d000f601000034
:020000040000fa
:0401d400f601000030
:020000040000fa
:0401d800f60100002c
:020000040000fa
:100200002f8020000eff20000e018800000000005b
:10021000000020000000e000020032000001200089
:100220002002880014000700720007000000e000b0
:1002300003003a00602a200001002000020037007d
:100240000000200001002000810f7000010032003a
:1002500014000700000020000000e000020032004f
:100260000000020000000000720202000000000016
:100270000040da000000fe004440a9000000200019
:100280000000e0000300320000002000a001880010
:100290004440a800000006008a1f78008b1f7800e9
:1002a0000000060091018800800478000000eb0047
:1002b0001a003700e284440032a0b4009905ba0065
:1002c000e284440032a0b4009906ba00e2844400fb
:1002d00032a0b4000006eb00476fde00fd07b2005d
:1002e000636ce10003003a00ebff07000000eb0045
:1002f0000a003700606ce10004003a00005deb008a
:100300008b05e900fdff3e00040037006168e10055
:10031000010032000086eb000b00070019c7ba008d
:100320001905ba000e04e00003003a000a00e000dc
:10033000e0ff3a0000000600fe07b2009e018800c0
:100340008a047800f5ff3700395dba008b05e900b3
:100350000c003200295dba008b05e900080032006c
:100360000c00e00003003a00e284440032a0b40034
:10037000f5ff370019ddba008b05e900faff3a00f6
:100380008904e800e184440032a0b40000000600c3
:10039000809fbe000200fa000000eb00000f780012
:1003a0000700370000408000904078008180fb000b
:1003b000811088000000e800004088001e0fe8005f
:1003c00000408000104078000004e000030032008c
:1003d0001e007800e30f5000f2ff34008540a900b2
:1003e0000080fa004f00be00004006000040da0026
:0803f0000000fe000000050002
:020000040000fa
:1003f8000000fa000c22ef000e22ef000d42a800c8
:10040800f0052000a01088000de2a8008520a900b2
:100418008540a9008d20a9008d40a8000fe2a80002
:100428000f42a8000080fa00000006000200fa004f
:10043800000f78009e00780001408800004080008e
:10044800904078008180fb00811088000000e8005f
:10045800004088000080fa00000006000000fa0052
:100468002022ef002222ef002342a8002322a80026
:1004780022a2a8002202a8002222a9002242a80043
:100488002262a8002282a80020c2a9008500a90033
:100498008d00a90021e2a8000080fa0000000600f3
:1004a8000000fa00c021ef00c221ef00c621ef00d2
:1004b800c821ef00ca21ef00cc21ef00210e8000f7
:1004c8000000280080806000f01620000100700005
:1004d800200e88000080fa00000006000000fa00e4
:1004e8000080eb004015880000002800010720006c
:1004f80006000700d9ff0700bdff0700e8ff070057
:0c0508000000eb000080fa00000006007c
:020000040000fa
:10051400f03fb1000180b10006003500ee03090090
:1005240000000000403fb1000180b100fbff3d002e
:100534001000b000203fb000020035000080090028
:080544000000000000000600a9
:020000040000fa
:10054c000008000002000000000000000000000095
:020000040000fa
:0200000401f009
:04000000f6bd000049
:020000040000fa
:0200000401f009
:04000400ff7f00007a
:020000040000fa
:0200000401f009
:04000800fcff0000f9
:020000040000fa
:0200000401f009
:04001400ffff0000ea
:020000040000fa
:0200000401f009
:04001800ffff0000e6
:00000001FF
