:020000040000fa
:080000000002040000000000f2
:020000040000fa
:04000800b20400003e
:020000040000fa
:04000c00b20400003a
:020000040000fa
:04001000b204000036
:020000040000fa
:04001400b204000032
:020000040000fa
:04001800b20400002e
:020000040000fa
:04001c00b20400002a
:020000040000fa
:04002000b204000026
:020000040000fa
:04002400b204000022
:020000040000fa
:04002800b20400001e
:020000040000fa
:04002c00b20400001a
:020000040000fa
:04003000b204000016
:020000040000fa
:04003400d4020000f2
:020000040000fa
:04003800b20400000e
:020000040000fa
:04003c00b20400000a
:020000040000fa
:04004000b204000006
:020000040000fa
:04004400b204000002
:020000040000fa
:04004800b2040000fe
:020000040000fa
:04004c00b2040000fa
:020000040000fa
:04005000cc020000de
:020000040000fa
:04005400b2040000f2
:020000040000fa
:04005800b2040000ee
:020000040000fa
:04005c00b2040000ea
:020000040000fa
:04006000b2040000e6
:020000040000fa
:04006400b2040000e2
:020000040000fa
:04006800b2040000de
:020000040000fa
:04006c00b2040000da
:020000040000fa
:04007000b2040000d6
:020000040000fa
:04007400b2040000d2
:020000040000fa
:04007800b2040000ce
:020000040000fa
:04007c00b2040000ca
:020000040000fa
:04008000b2040000c6
:020000040000fa
:04008400b2040000c2
:020000040000fa
:04008800b2040000be
:020000040000fa
:04008c00b2040000ba
:020000040000fa
:04009000b2040000b6
:020000040000fa
:04009400b2040000b2
:020000040000fa
:04009800b2040000ae
:020000040000fa
:04009c00b2040000aa
:020000040000fa
:0400a000b2040000a6
:020000040000fa
:0400a400b2040000a2
:020000040000fa
:0400a800b20400009e
:020000040000fa
:0400ac00b20400009a
:020000040000fa
:0400b000b204000096
:020000040000fa
:0400b400b204000092
:020000040000fa
:0400b800b20400008e
:020000040000fa
:0400bc00b20400008a
:020000040000fa
:0400c000b204000086
:020000040000fa
:0400c400b204000082
:020000040000fa
:0400c800b20400007e
:020000040000fa
:0400cc00b20400007a
:020000040000fa
:0400d000b204000076
:020000040000fa
:0400d400b204000072
:020000040000fa
:0400d800b20400006e
:020000040000fa
:0400dc00b20400006a
:020000040000fa
:0400e000b204000066
:020000040000fa
:0400e400b204000062
:020000040000fa
:0400e800b20400005e
:020000040000fa
:0400ec00b20400005a
:020000040000fa
:0400f000b204000056
:020000040000fa
:0400f400b204000052
:020000040000fa
:0400f800b20400004e
:020000040000fa
:0400fc00b20400004a
:020000040000fa
:04010000b204000045
:020000040000fa
:04010400b204000041
:020000040000fa
:04010800b20400003d
:020000040000fa
:04010c00b204000039
:020000040000fa
:04011000b204000035
:020000040000fa
:04011400b204000031
:020000040000fa
:04011800b20400002d
:020000040000fa
:04011c00b204000029
:020000040000fa
:04012000b204000025
:020000040000fa
:04012400b204000021
:020000040000fa
:04012800b20400001d
:020000040000fa
:04012c00b204000019
:020000040000fa
:04013000b204000015
:020000040000fa
:04013400b204000011
:020000040000fa
:04013800b20400000d
:020000040000fa
:04013c00b204000009
:020000040000fa
:04014000b204000005
:020000040000fa
:04014400b204000001
:020000040000fa
:04014800b2040000fd
:020000040000fa
:04014c00b2040000f9
:020000040000fa
:04015000b2040000f5
:020000040000fa
:04015400b2040000f1
:020000040000fa
:04015800b2040000ed
:020000040000fa
:04015c00b2040000e9
:020000040000fa
:04016000b2040000e5
:020000040000fa
:04016400b2040000e1
:020000040000fa
:04016800b2040000dd
:020000040000fa
:04016c00b2040000d9
:020000040000fa
:04017000b2040000d5
:020000040000fa
:04017400b2040000d1
:020000040000fa
:04017800b2040000cd
:020000040000fa
:04017c00b2040000c9
:020000040000fa
:04018000b2040000c5
:020000040000fa
:04020800b20400003c
:020000040000fa
:04020c00b204000038
:020000040000fa
:04021000b204000034
:020000040000fa
:04021400b204000030
:020000040000fa
:04021800b20400002c
:020000040000fa
:04021c00b204000028
:020000040000fa
:04022000b204000024
:020000040000fa
:04022400b204000020
:020000040000fa
:04022800b20400001c
:020000040000fa
:04022c00b204000018
:020000040000fa
:04023000b204000014
:020000040000fa
:04023400b204000010
:020000040000fa
:04023800b20400000c
:020000040000fa
:04023c00b204000008
:020000040000fa
:04024000b204000004
:020000040000fa
:04024400b204000000
:020000040000fa
:04024800b2040000fc
:020000040000fa
:04024c00b2040000f8
:020000040000fa
:04025000b2040000f4
:020000040000fa
:04025400b2040000f0
:020000040000fa
:04025800b2040000ec
:020000040000fa
:04025c00b2040000e8
:020000040000fa
:04026000b2040000e4
:020000040000fa
:04026400b2040000e0
:020000040000fa
:04026800b2040000dc
:020000040000fa
:04026c00b2040000d8
:020000040000fa
:04027000b2040000d4
:020000040000fa
:04027400b2040000d0
:020000040000fa
:04027800b2040000cc
:020000040000fa
:04027c00b2040000c8
:020000040000fa
:04028000b2040000c4
:020000040000fa
:04028400b2040000c0
:020000040000fa
:04028800b2040000bc
:020000040000fa
:04028c00b2040000b8
:020000040000fa
:04029000b2040000b4
:020000040000fa
:04029400b2040000b0
:020000040000fa
:04029800b2040000ac
:020000040000fa
:04029c00b2040000a8
:020000040000fa
:0402a000b2040000a4
:020000040000fa
:0402a400b2040000a0
:020000040000fa
:0402a800b20400009c
:020000040000fa
:0402ac00b204000098
:020000040000fa
:0402b000b204000094
:020000040000fa
:0402b400b204000090
:020000040000fa
:0402b800b20400008c
:020000040000fa
:0402bc00b204000088
:020000040000fa
:0402c000b204000084
:020000040000fa
:0402c400b204000080
:020000040000fa
:0402c800b20400007c
:020000040000fa
:0402cc00b204000078
:020000040000fa
:0402d000b204000074
:020000040000fa
:0402d400b204000070
:020000040000fa
:0402d800b20400006c
:020000040000fa
:0402dc00b204000068
:020000040000fa
:0402e000b204000064
:020000040000fa
:0402e400b204000060
:020000040000fa
:0402e800b20400005c
:020000040000fa
:0402ec00b204000058
:020000040000fa
:0402f000b204000054
:020000040000fa
:0402f400b204000050
:020000040000fa
:0402f800b20400004c
:020000040000fa
:0402fc00b204000048
:020000040000fa
:04030000b204000043
:020000040000fa
:04030400b20400003f
:020000040000fa
:04030800b20400003b
:020000040000fa
:04030c00b204000037
:020000040000fa
:04031000b204000033
:020000040000fa
:04031400b20400002f
:020000040000fa
:04031800b20400002b
:020000040000fa
:04031c00b204000027
:020000040000fa
:04032000b204000023
:020000040000fa
:04032400b20400001f
:020000040000fa
:04032800b20400001b
:020000040000fa
:04032c00b204000017
:020000040000fa
:04033000b204000013
:020000040000fa
:04033400b20400000f
:020000040000fa
:04033800b20400000b
:020000040000fa
:04033c00b204000007
:020000040000fa
:04034000b204000003
:020000040000fa
:04034400b2040000ff
:020000040000fa
:04034800b2040000fb
:020000040000fa
:04034c00b2040000f7
:020000040000fa
:04035000b2040000f3
:020000040000fa
:04035400b2040000ef
:020000040000fa
:04035800b2040000eb
:020000040000fa
:04035c00b2040000e7
:020000040000fa
:04036000b2040000e3
:020000040000fa
:04036400b2040000df
:020000040000fa
:04036800b2040000db
:020000040000fa
:04036c00b2040000d7
:020000040000fa
:04037000b2040000d3
:020000040000fa
:04037400b2040000cf
:020000040000fa
:04037800b2040000cb
:020000040000fa
:04037c00b2040000c7
:020000040000fa
:04038000b2040000c3
:020000040000fa
:10040000ef8420000e7f22000e0188000000000013
:10041000000020000000e000020032000001200087
:100420002002880014000700500107000000e000cf
:1004300003003a00005221000100200002003700b2
:100440000000200001002000810f70000100320038
:1004500014000700000020000000e000020032004d
:1004600000000200000000008813020000000000ed
:100470000040da000000fe004440a900a003200074
:100480000000e0000300320000002000a00188000e
:100490004440a800000006008a1f78008b1f7800e7
:1004a0000000060091018800800478000000eb0045
:1004b0001a003700e284440032a0b4009905ba0063
:1004c000e284440032a0b4009906ba00e2844400f9
:1004d00032a0b4000006eb00476fde00fd07b2005b
:1004e000636ce10003003a00ebff07000000eb0043
:1004f0000a003700606ce10004003a00005deb0088
:100500008b05e900fdff3e00040037006168e10053
:10051000010032000086eb000b00070019c7ba008b
:100520001905ba000e04e00003003a000a00e000da
:10053000e0ff3a0000000600fe07b2009e018800be
:100540008a047800f5ff3700395dba008b05e900b1
:100550000c003200295dba008b05e900080032006a
:100560000c00e00003003a00e284440032a0b40032
:10057000f5ff370019ddba008b05e900faff3a00f4
:100580008904e800e184440032a0b40000000600c1
:1005900000000000000000000000fa008540a900f3
:1005a0000080fa0000400600809fbe000000fa00b4
:1005b0009460a9008460a900404080000000e80029
:1005c000404088000ac8bf000040e8000ae8b700c1
:1005d000a18020009140780010c8bf0080cf50005b
:1005e0000c003900604080000000e9006040880095
:1005f0006140800070408000808f500004003e0009
:10060000704080006040880010c0b3000be8b70065
:100610000a68ef000bc8bf000004e000cc00320005
:1006200005c8bf000040e80005e8b70005c8bf00e6
:100630008080fb00704080004200de00808f500010
:10064000c300390006c8bf000080fb00e30f500064
:1006500049003200e30f500005003c00e10f50005c
:100660000a003200e20f500026003200b7003700c7
:10067000e50f50007b003200e50f50005b003500b5
:10068000e60f500094003200b00037005016800092
:100690007000600000f0a7000000ea000000e90020
:1006a0004f00de00004078000080fb006100600029
:1006b0004400dd00611680000140a10001007000cf
:1006c00060168800501680006400600000f0a700eb
:1006d0000000ea000000e9004f00de000040780062
:1006e0000080fb00610060004200dd0061168000b8
:1006f0000120a1000100700060168800cc02a90052
:1007000092003700501680007000600000f0a700d3
:100710000000ea000000e9004f00de000040780021
:100720000080fb00610060004400dd006116800075
:100730000140a1000100700060168800cc42a900b1
:10074000501680006100600000f0a7000000ea0081
:100750000000e9004f00de00004078000080fb0050
:1007600061006000611680000100a10001007000be
:100770006016880075003700cc82a90050168000f2
:100780006400600000f0a7000000ea000000e9003b
:100790004f00de00004078000080fb006100600038
:1007a0004200dd00611680000120a1000100700000
:1007b00060168800501680006100600000f0a700fd
:1007c0000000ea000000e9004f00de000040780071
:1007d0000080fb0061006000611680000100a10044
:1007e0000100700060168800580037005016800025
:1007f0007000600000f0a7000000ea000000e900bf
:100800004f00de00004078000080fb0061006000c7
:100810004400dd00611680000140a100010070006d
:1008200060168800501680006400600000f0a70089
:100830000000ea000000e9004f00de000040780000
:100840000080fb00610060004200dd006116800056
:100850000120a1000100700060168800cc02a900f0
:100860003a003700501680007000600000f0a700ca
:100870000000ea000000e9004f00de0000407800c0
:100880000080fb00610060004400dd006116800014
:100890000140a1000100700060168800cc42a90050
:1008a000501680006100600000f0a7000000ea0020
:1008b0000000e9004f00de00004078000080fb00ef
:1008c00061006000611680000100a100010070005d
:1008d000601688001d003700cc82a90050168000e9
:1008e0006400600000f0a7000000ea000000e900da
:1008f0004f00de00004078000080fb0061006000d7
:100900004200dd00611680000120a100010070009e
:1009100060168800501680006100600000f0a7009b
:100920000000ea000000e9004f00de00004078000f
:100930000080fb0061006000611680000100a100e2
:100940000100700060168800000000000568ef00dc
:100950009460a8008460a9000080fa004f00be00e7
:10096000004006000040da000000fe000000050024
:10097000881f78000204780008017800c40007008e
:10098000080040004f047800000006000000fa0054
:10099000881f780000047800ea8157003fb997006b
:1009a00088007800804b2000070007000000e0006e
:1009b000020035008040eb00017478004f0478009d
:1009c0000080fa00000006006200fa00889fbe0066
:1009d0008a1f7800000578008104780002047800fe
:1009e0008300780080f92f000f0040007701070096
:1009f0009a979f00a9979f000000eb00b09f9f006f
:100a00001885fb008a04fb000a05ea004f55de004a
:100a100050022000808f54000d003200e10f55007d
:100a20000b003a000a017800880078002f909700a8
:100a30009f91970003000100a0979f000000e00035
:100a40008e0032003f9897000000e800b09f9f00a2
:100a50000a04440050022000808f54000400320039
:100a60000900e000e6ff3a003f9897008400370055
:100a70000000eb00909f9f00809f9f00f0979f00d9
:100a8000e0979f00d0979f00c0979f000700370016
:100a9000818420000100500000004000c18320003c
:100aa00061007800df98970001007000d09f9f00e0
:100ab0008804780009047800384578008a00fb0033
:100ac00080842000790007000000e000f0ff3a0079
:100ad000a1c2b300814f55000e003a00cf889700a5
:100ae0000180e900c08f9f0010007800c09f9f0028
:100af0000000e00005003d000000ea00c09f9f00ec
:100b00005f9897000020a000d09f9f000904e80094
:100b10000f003700c09f9f000000eb00050037006a
:100b2000f2ff2700820f5000020032006a01b90074
:100b3000028040000904780088047800b900fb00b6
:100b40000103b100e98f5000f5ff3600c09f9f0000
:100b5000e0c2b300984f1000020032000080eb00aa
:100b600019003700a0c2b300d84f100007003a00a8
:100b7000cf8897000180e900c08f9f0010007800a7
:100b8000a09f9f000804e800100037000000eb0061
:100b9000a09f9f008800780005003700f3ff270022
:100ba000830f5000020032006a02b90004004100c5
:100bb00001047800880078003101fb000203b100d5
:100bc000e90f5100f5ff3600a09f9f009844780080
:100bd0008900fb0040832000340007000000e00093
:100be000020032000804e800010037008044eb00f6
:100bf000c97f9f0080c6b30080cf540004003a0034
:100c000098cf14000a003a006640500006003700f2
:100c1000c0c6b30080cf540005003a0098cf14003e
:100c200003003a0065404000c07f9f000804e800d0
:100c30001801fb00e3fb2f008f81410081f92f0099
:100c40008f804000a0f92f000f004000e100070056
:100c50000000e00009003a00e1fb2f008f80400017
:100c6000a0f92f000f0040001c0007000000e0006a
:100c7000020035000804e80061ff37000080eb0047
:100c80004f0578004f04be000080fa000000060007
:100c90008001780002003700b15978000201e900b4
:100ca0000200e000fcff3a000000060002003700ee
:100cb0000304e00006003200000178000200780022
:100cc000b041780081cf5100f9ff3a0001003700b0
:100cd0000001eb0002007800000006000400fa00aa
:100ce000889fbe008a9fbe008c1f78000004780099
:100cf00001067800f80d900078009000808555007e
:100d000008089000808555001808900080855500df
:100d1000280890008085550038089000808555008f
:100d200048089000808555000002220090bf9f0077
:100d300000032300a0bf9f00081090000028a3001c
:100d400015003a000b00e000130034000b0578009a
:100d50008a047800e20f55000100360029002000c7
:100d6000c801900009017800ee80570058009000fb
:100d700003000100500498000000e0008c003200e5
:100d80006808900009004000600c980009055500b3
:100d90004240a900eeff3c00780190000200e00014
:100da0000c003400c80190008c00780058009000be
:100db00003000100500498008080eb000000e00078
:100dc0007c003200e808900078009000008040002d
:100dd000600c9800880c90000900e00011003400bd
:100de00009057800e28f5400010036002a00200037
:100df000c80190000a017800ec805700580090006c
:100e000003000100500498000000e0006800320078
:100e1000680890000a004000600c98008a84540022
:100e2000edff3700180990000200e0000c003400cc
:100e3000c8019000e80090005800900003000100f5
:100e4000500498008080eb000000e0005900320060
:100e5000e80890001808900000804000600c98009e
:100e6000a80c90000900e00011003400090578008a
:100e7000e28f5400010036002a002000c8019000d3
:100e80000a017800ec805700580090000300010030
:100e9000500498000000e00045003200680890000f
:100ea0000a004000600c98008a845400edff37006f
:100eb000380990000200e0000e003400e8009000c5
:100ec0001808900080804000c801900058009000f1
:100ed00003000100500498008080eb000000e00057
:100ee00034003200e808900038089000008040008c
:100ef000600c9800c80c90000900e000110034005c
:100f000009057800e28f5400010036002a00200015
:100f1000c80190000a017800ec805700580090004a
:100f200003000100500498000000e000200032009f
:100f3000680890000a004000600c98008a84540001
:100f4000edff3700081090008000eb000028a300a0
:100f5000180032000b00e000160034008b0478000b
:100f600009057800e28f5400010036002a002000b5
:100f7000c80190000a017800ee80570058009000e8
:100f800003000100500498000000e0000800320057
:100f9000680890000a004000600c98008a845400a1
:100fa0004240a900eeff3c008000eb00010037004a
:100fb0008080eb00010078004f0678004f05be00ee
:100fc0004f04be000080fa0000000600010878000f
:100fd00000000600889fbe008a9fbe00e4c6b300e2
:100fe000844f5100be00320010003c006b425200a2
:100ff000844f51001800320005003c0054c2b30079
:10100000844f5100f600320084c5b3000f00370052
:1010100044c6b300844f51001400320065424200c0
:10102000844f5100f1003a001000370004c7b300ac
:10103000844f5100dd003200560035006542420009
:10104000844f51005300320063424200844f5100ec
:10105000e6003a004f0037001181e900820878006d
:10106000f000900012417800de003700206290000e
:10107000c5c6b300854f520007003a0091027800c0
:1010800064825200840878001402be004fabde0078
:10109000860378001400370015c7b300854f52004f
:1010a00003003a001104780068025400050037007c
:1010b000a5c6b300854f520006003a00910478009f
:1010c00068825400840878005403be004402be00c5
:1010d000050037001182e9008408780014027800c6
:1010e000cfa2de00612bb9000498be000690be00be
:1010f000a060900088c6b30088cf50000d00320079
:1011000028c6b30088cf500004003a000402fb0058
:10111000cfa2de00612bb9000800370048c7b3003a
:1011200088cf5000030032006644440088cf50004e
:1011300004003a00cfa2de00612bb9000498be0083
:101140000690be003002be002003be00f0009000fa
:10115000e00f5200e08f5a00e00f5b00e08f5b0071
:1011600002003d00d4c2b300080037000012900016
:101170000418a30002003200b4c2b3000300370019
:101180000408a3005100320004c2b30084f17800c7
:101190004c00370020629000c5c6b300854f520056
:1011a00008003a00110578006402550084087800b0
:1011b0001404be006055b8000802be000a03be0059
:1011c0001400370015c7b300854f520003003a00e2
:1011d000910478006882540005003700a5c6b3006a
:1011e000854f520006003a0011057800680255004c
:1011f000840878005403be004402be000500370096
:101200001182e90084087800140278008002eb0063
:101210006033b8000498be000690be00a060900045
:1012200088c6b30088cf50000d00320028c6b30036
:1012300088cf500004003a000482fb008002eb00db
:101240006033b8000800370048c7b30088cf5000ab
:10125000030032006644440088cf500004003a0086
:101260008002eb006033b8000498be000690be0018
:10127000801090000138a300140032003002be003c
:101280002003be00e00f5200e08f5a00e00f5b0029
:10129000e08f5b000d00320081c7b300814f510029
:1012a0000300320081c5b300814f510007003a00ae
:1012b000f000900004c3b30084f178008100e800de
:1012c00082f178008100e80071009800f000900041
:1012d0008181410063009800824078003e00370021
:1012e000a0619000c4c6b3001181e90084cf510011
:1012f000220032000a003c006442520084cf5100b8
:101300002500320004c2e80084cf510013003200ef
:101310006842520084cf51001e003a000a00370094
:1013200044c7b30084cf51001b0032006642420024
:1013300084cf5100180032006942520084cf51001e
:1013400014003a0005003700820878009200780007
:1013500040589000804878002c00370082087800c0
:1013600092007800600a9000cfa2de00612bb900e5
:101370008498be008690be00240037008208780062
:101380009200780060099000cf91de008288be0054
:101390001e0037001181e900820878009200780071
:1013a0006008900080087800180037001181e9007b
:1013b0008208780012027800cfa2de00612bb9000b
:1013c0000498be000690be00f000900081814100ac
:1013d0006300980081c7b300100007000b003700be
:1013e000f000900082f1780006003700f0009000d5
:1013f000818141000204e00001003a0052c2b300c2
:10140000824978008100e800710098000000eb003c
:101410004f05be004f04be0000000600fc874700d9
:10142000889fbe008a9fbe008c9fbe008e1f7800e2
:101430000006780080c5b30080cf50000a0032005b
:101440007740400080cf50000a00320069404000e1
:1014500080cf50000b0032003082200080bf9f0000
:10146000ae0020000a0037002281200082bf9f00ca
:10147000060037003382200083bf9f008e002000cb
:10148000030037003482200084bf9f000e0120003b
:101490003c02be002c03be000605be000404be00d4
:1014a00040c6b30080cf50000300320065404000ca
:1014b00080cf50000b003a00e00f5200e08f5a003e
:1014c000e00f5b00e08f5b0006003d006000b800ad
:1014d0006011b800040450008584580006055900c6
:1014e00087855900e80f57000400320040002000b3
:1014f000f00f570038003a0001003700300020009c
:10150000e00f5400e08f5c00e00f5d00e08f5d00b5
:1015100004003a00dc0890008d0120000100e0008a
:10152000060032008e00e900888060008fba9700c4
:10153000e5c07800f1ef9f007d0120008000780079
:101540008100e900050033008b05d1000a85d30036
:101550008984d3000884d300f9ff3700089ebe00b9
:101560000a96be00120037008d06e9008e00e900e1
:10157000848060000fb99700e2c1780082fd2f00df
:101580000f01410003f17e00800078008100e90036
:10159000050033008783d1000683d3008582d30002
:1015a0000482d300f9ff3700049ebe000696be00f9
:1015b0003c02be002c03be00e00f5200e08f5a0038
:1015c000e00f5b00e08f5b008b0034000d00e0005b
:1015d000e5ff3c00880037002c60900081c6b30016
:1015e000814f50000b00320006003c000004e00078
:1015f00008003200e6c05000814f50004e003a0013
:1016000004003700c1c6b300814f50004a003a00c1
:10161000210037000800e00004003a005c08900058
:101620008d0120000000e0000600320011000900da
:101630000e84d8000fb99700e2c07800f1ef9f0048
:101640007d012000110009000e84d8000a00370037
:10165000110009000e04d8008d06e9000e81b900c2
:10166000020454008fb8970061417c0081fd2f0077
:101670008f80400082f07e00000478000800e000c7
:10168000020032000d00e000f1ff3c00cfc4de009c
:10169000614db90025003700e00f5400e08f5c0079
:1016a00004003a005c0890008d0120000000e0007a
:1016b000070032006171b9000800be00a5000700f4
:1016c0008fb99700e3417800f3ef9f007d01200080
:1016d0006171b9000800be008e0007000b003700e2
:1016e0006171b9000800be007b0007008d06e900ab
:1016f00000f1b900020454000fba9700e4427c00e4
:1017000084fd2f000f02420005f27e000004be009f
:10171000e00f5000e08f5800020032000d00e000a2
:10172000efff3c004fcdde008a057800089ebe002a
:101730000a96be0030003700e00f5400e08f5c00d6
:10174000e00f5d00e08f5d0004003a005c0890004f
:101750008d0120000000e000090032006172b90034
:10176000612bb9000800be000a01be001c01070081
:101770000fba970064427800f4ef9f007d012000cb
:101780006172b900612bb9000800be000a01be00f9
:101790000c0107000d0037006172b900612bb90020
:1017a0000800be000a01be00110107008d06e90015
:1017b00000f2b900040454008fba970065427c001f
:1017c00085fd2f008f82420084f27e00009ebe00c5
:1017d0000296be003c04be002c05be00e00f540083
:1017e000e08f5c00e00f5d00e08f5d0002003400e0
:1017f0000d00e000e8ff3c00e80f570010003a0041
:101800000c1090000038a3000d003200f78f560036
:1018100006003e0085fd2f008f824200e5c07e005d
:1018200000c3b30080cf5000050032008d06e900f0
:1018300002c3b30081fd2f008f80400082f07e0044
:1018400078811600120e98006c00900083fd2f0026
:101850008f8141008d8041000dfd07001c08900024
:10186000dc089000810f500006003d000080500011
:10187000000e98000c1090000040a1000016980087
:101880000f0037000100e0000d003d008c109000bb
:10189000f4806000f08f500009003a007c0990004d
:1018a000fc009000810051000c09900082805000e3
:1018b000008050004240a90001003400000e980052
:1018c0004f0778004f06be004f05be004f04be0014
:1018d000cf01b10000000600839f68000100e00016
:1018e00002003d0060001000e08018000300e000ee
:1018f00002003d0060011100e081190005000700b1
:101900004f00e00002003b0060001000e080180083
:10191000000006006022b800060220000000d0008f
:101920008180d2000482d2008582d2000000a00013
:101930000202520083825a00030031000202420078
:1019400083824a000000a1000603e900f3ff3a0089
:1019500000000600efff07000400be0000000600c4
:10196000889fbe008a9fbe0030044200b0844a00b7
:1019700030054b0090854b006000b1000898be0018
:101980000a90be000440e10005c8e10006d0e10075
:1019900007d8e10002003100680040001008e800ac
:1019a0004f05be004f04be0000000600889fbe0029
:1019b0008a9fbe003004be002005be0004185400fb
:1019c00005985c0006185d0007985d001100200076
:1019d0000440e10005c8e10006d0e10007d8e100bd
:1019e000010039008000eb00108810004f05be0098
:1019f0004f04be00000006001200fa00889fbe00df
:101a00008a9fbe008c9fbe00e0b79f00f1b79f0089
:101a100082bf9f0093bf9f000605be000404be0066
:101a20000000eb00d0b79f00c0b79f00b0b79f0089
:101a3000a0b79f0090b79f000006eb005fb1970032
:101a4000cfb09700820141003fb097000200e00054
:101a500004003d00370007007e805700c0ff0700ec
:101a600003003700330007007e805700cfff0700d8
:101a7000dfb697000d00e0000c0035006fb2970054
:101a8000ffb297000fbb97009fbb9700100020008c
:101a9000010020006011b800000272008182720013
:101aa00002037300838373001b0007000c06e80029
:101ab00001042000810f5600e0ff3a000d00e00015
:101ac00004003d000802be000a03be007e805700ed
:101ad000a3ff07005fa897000000e00005003a00a0
:101ae0001fb29700afb297003fb39700cfb39700f4
:101af000090007006fb09700ffb097000fb997007b
:101b00009fb997004f06be004f05be004f04be00b0
:101b10000080fa0000000600010007000000060037
:101b2000a4b79f00b5b79f00c6b79f00d7b79f0067
:101b3000000006004f09de0082817100b3b79f00ec
:101b40004f01de008180400082807000a1b79f00bd
:101b50008fb097004f09de000000400002007000c7
:101b600090b79f007fa897004f01de008180400062
:101b70008280700081b79f000d0007004f3ade00a1
:101b80000000400004007000f0af9f000800070054
:101b90000402420085824a0006034b0087834b0003
:101ba000dfff07000802be000a03be0000000600b7
:101bb0002fb29700bfb297004fb39700dfb39700e3
:101bc00000000600881f780018002000881f780099
:101bd00089ff07008f87e9004f04780000000600a6
:101be000801feb0084ff07008f87e90000000600dc
:101bf000889fbe008a9fbe00e00f5000e08f580013
:101c0000e00f5900e08f59000c003d006044b8001f
:101c10006055b8000000540081805c0002015d0046
:101c200083815d00180020001500070008003d00ba
:101c3000180007000004eb00050037000004eb006b
:101c40000f00070002003d001200070018002000ee
:101c5000dcff07000800e000060032006022b80048
:101c60006033b8000000520081805a0002015b001e
:101c700083815b004f05be004f04be0000000600dc
:101c8000e00f5200e08f5a00e00f5b00e08f5b0036
:101c9000000006006044b8006055b800040254001b
:101ca00085825c0006035d0087835d0000000600fe
:101cb000889fbe008a9fbe008c1f7800e00f5000f6
:101cc000e08f5800e00f5900e08f59000d003d00f3
:101cd0006044b8006055b8000000540081805c008a
:101ce00002015d0083815d001c0020000820e100ee
:101cf00009a8e1000ab0e1000bb8e1000d003d00c9
:101d0000080037000006eb00e00f5200e08f5a0099
:101d1000e00f5b00e08f5b0006003d006044b80010
:101d20006055b8000402540085825c0006035d0023
:101d300087835d00aaff07000c00e0000600320068
:101d40006022b8006033b8000000520081805a0061
:101d500002015b0083815b004f0678004f05be00e7
:081d60004f04be000000060064
:020000040000fa
:101d680046720000616d0000653a000020300000f6
:101d7800782500003034000078000000446100003d
:101d8800746100003a20000030780000253000001f
:101d98003478000000530000746100007274000081
:101da800696e0000672000006d6f0000746f00000e
:101db800722e0000004d00006f7400006f7200006a
:101dc80020730000746100007274000065640000f4
:041dd8002e000000d9
:020000040000fa
:101ddc000000fa0041e2a900c9a2a900cda2a80006
:101dec004022ef004222ef004422ef008540a90080
:101dfc009540a8004342a8004322a80042a2a80094
:101e0c004202a8004222a9004282a8004262a80015
:101e1c004242a80040c2a900113a8000f00b2000f9
:101e2c0000816000600420007105200023742000f4
:101e3c0080497800814978008249780031368000e9
:101e4c00f00f2e000080600000b0a000303688003b
:101e5c004135800000fe2f00008060005000b30070
:101e6c00403588003136800000fe2f000080600075
:101e7c007000b30030368800103a80000001780002
:101e8c000260a00060042000710520002374200073
:101e9c0080497800814978008249780041e2a800a5
:101eac0000e2240001002000060307000080fa0075
:101ebc00000006000400fa00004f7800114798005b
:101ecc00120798001e80fb00cf00dd001e40900022
:101edc000080fb004b00dd0000804000800078009b
:101eec001e009000008040000080fa0000000600f8
:101efc000200fa00000f780000fa20000100200018
:101f0c00f0020700cda2a900007d200001002000f6
:101f1c00ec0207000000000000128000620060006c
:101f2c000000e000fcff3a009e007800411288009f
:101f3c000000000000128000610060000000e00062
:101f4c00fcff3200007d200001002000dd020700b4
:101f5c00cda2a80000fa200001002000d902070041
:101f6c00401280000080fa00000006000600fa0013
:101f7c00404798000000eb00000f78000000eb00d9
:101f8c00100798000001eb0021c0b30010c0b30093
:101f9c00c8ff0700100798001e009000d4ff070030
:101fac00000f7800f0f92f009e0060004e4090006a
:101fbc000080fb004500dd0000804000000178003f
:101fcc0021c0b3000040eb00baff070010079800d7
:101fdc001e009000c6ff07000080fa0000000600fb
:101fec000400fa000000eb00000f78000000eb008a
:101ffc00100798000001eb0021c0b30010c0b30023
:10200c00acff0700100798001e009000b8ff0700f7
:10201c00000f7800f08f2f009e0060000060200001
:10202c00008040000001780021c0b3000040eb00ac
:10203c00a0ff0700100798001e009000acff0700df
:10204c000080fa00000006000400fa000000eb001b
:10205c00000f78000000eb00100798000001eb0067
:10206c0021c0b30010c0b30092ff07001007980006
:10207c001e0090009eff0700000f7800f08f2f00cd
:10208c001e0060000030b0000001780021c0b300d9
:10209c000040eb0087ff0700100798001e0090001f
:1020ac0093ff07000080fa00000006000600fa000b
:1020bc00404798000000eb00000f78000000eb0098
:1020cc00100798000001eb0031c0b30010c0b30042
:1020dc0078ff0700100798001e00900084ff07008f
:1020ec00000f7800f0f02f009e0060004e40900032
:1020fc000080fb004400dd000080400000017800ff
:10210c0031c0b3000040eb006aff070010079800d5
:10211c001e00900076ff07000080fa000000060009
:10212c000600fa00404798000000eb00000f780012
:10213c000000eb00100798000001eb0031c0b30069
:10214c0010c0b3005bff0700100798001e00900042
:10215c0067ff0700000f780000ff2f009e00600053
:10216c004e4090000080fb00008040000001780091
:10217c0031c0b3000040eb004eff07001007980081
:10218c001e0090005aff07000080fa0000000600b5
:10219c000600fa00404798000000eb00000f7800a2
:1021ac000000eb00100798000001eb0041c0b300e9
:1021bc0010c0b3003fff0700100798001e009000ee
:1021cc004bff0700000f7800f0f02f009e0060001e
:1021dc004e4090000080fb004400dd000080400079
:1021ec000001780041c0b3000040eb0031ff070054
:1021fc00100798001e0090003dff07000080fa00b9
:10220c00000006000600fa00404798000000eb00b2
:10221c00000f78000000eb00100798000001eb00a5
:10222c0041c0b30010c0b30022ff07001007980094
:10223c001e0090002eff0700000f780000ff2f00fb
:10224c009e0060004e4090000080fb00008040002b
:10225c000001780041c0b3000040eb0015ff0700ff
:10226c00100798001e00900021ff07000080fa0064
:10227c00000006000000fa0040002000201088003a
:10228c00000022003010880007e2a8000080fa004d
:10229c00000006000000fa000602a8000000000082
:1022ac0040108000680060000000e000fcff32007d
:1022bc00000000000080fa00000006000000fa0098
:1022cc000622a8000000000040108000680060009a
:1022dc000000e000fcff3200000000000080fa006b
:1022ec00000006000000fa000642a80000000000f2
:1022fc0040108000700060000000e000fcff320025
:10230c000080fa00000006000000fa0006a2a900f6
:10231c000682a800000000000080fa000000060001
:10232c000000fa0006a2a8000682a80000fa20000d
:10233c0001002000e30107000080fa000000060005
:10234c000200fa00004f78001e80fb00101088007d
:10235c00000000004110800000002400008060009c
:10236c000000e000fbff3a00401080004f00de0050
:10237c00004078000080fb000080fa00000006009e
:10238c000000fa000662a800000000004010800067
:10239c00620060000000e000fcff320000fa200048
:1023ac0001002000c7010700001080000080fa0027
:1023bc00000006000400fa002047980031479800fe
:1023cc002e4090000080fb004400dd00804078002f
:1023dc003e40900000c07000004f7800ae4090006e
:1023ec0000cfb30080c060003e40900000c0700081
:1023fc0010479800a7ff0700e0c4b300d0ff070008
:10240c001e409000ceff07001e409000c040b3005d
:10241c00cbff07001e4090000034a000c8ff07004f
:10242c001e407800c6ff07009e4078006cc070000c
:10243c00c3ff07001e4078000034a000c0ff070057
:10244c00a8ff070000e22400010020009d01070006
:10245c000080fa00000006000000fa0085ff07006b
:10246c0000a62e0001002000960107008040eb0022
:10247c0020c0b300cfff070000e2240001002000c1
:10248c00900107008040eb0080c2b300c9ff070039
:10249c0000e22400010020008a0107008040eb00cc
:1024ac0010c0b300c3ff070000e2240001002000ad
:1024bc00840107008040eb0060c0b300bdff070043
:1024cc0000e22400010020007e0107008040eb00a8
:1024dc00f0c0b300b7ff070000e2240001002000a9
:1024ec00780107000080fa00000006000200fa00e4
:1024fc00004f78001e40780011c0b300adff0700fc
:10250c000080fa00000006000200fa00000f7800bc
:10251c00040037001e007800104078001e0fe80001
:10252c00f2ff07001e007800104078000004e00065
:10253c00f8ff3a000080fa00000006000000fa00e4
:10254c008040eb0010c0b3009aff070000c42900c4
:10255c00010020005b0107000080fa00000006006b
:10256c000000fa008040eb0000c8b30091ff0700a8
:10257c000080fa00000006000000fa008040eb002a
:10258c0000ccb3008bff07000080fa0000000600af
:10259c000000fa008040eb0040c9b30085ff070043
:1025ac000080fa00000006000000fa008040eb00fa
:1025bc0040cdb3007fff07000080fa00000006004a
:1025cc000000fa008040eb00c0c0b30079ff0700a8
:1025dc000080fa00000006000000fa008040eb00ca
:1025ec00f0c0b30073ff07000080fa000000060083
:1025fc000200fa00004f7800114798001e4090002e
:10260c000080fb000000e8008040780060002000a3
:10261c000009dd001e4090008080fb00b0aa2a005b
:10262c000008b8000100d10080407800400920006b
:10263c000088b9000000780000407800004041009c
:10264c001e4040000040e9008040eb0059ff0700ad
:10265c000080fa00000006000600fa0020479800ef
:10266c00210798002e4090000044b0008040eb0001
:10267c0050ff07000000eb00000f78000000eb009b
:10268c00000f7800070037001e007800ae009000a5
:10269c00008040001040780011c0b30045ff0700d7
:1026ac001e0fe8001e007800e70f5000f6ff340004
:1026bc008040eb0020c0b3003eff07000080fa0012
:1026cc00000006000000fa00000028002008880026
:1026dc008460a90021058000f0ff28008080600044
:1026ec00000026000100700020058800800c2000ee
:1026fc00100888000568ef009460a8000080fa00bc
:10270c00000006001600fa000080eb00001688009e
:10271c0000fc2f00401688000080eb006019880038
:10272c000000eb00100798000000eb002007980059
:10273c0049ff0700a6fd070030c0b3005bfe070091
:10274c0030c0b30076fe070030c0b30090fe070027
:10275c0030c0b300abfe0700cc22a900601680008d
:10276c000000d100614060000080fb00610060004f
:10277c004300dd00611680000130a10001007000f3
:10278c0060168800601680004300de006140600027
:10279c000080fb00610060004500dd0061168000d8
:1027ac000150a1000100700060168800cc02a90045
:1027bc006016800000407800614060000080fb00e3
:1027cc00610060004200dd00611680000120a10064
:1027dc000100700060168800601680004200de0068
:1027ec00614060000080fb00610060004400dd007f
:1027fc00611680000140a100010070006016880085
:10280c000001eb0021c0b30010c0b300a9fd07000c
:10281c00200798002e009000b5fd070010079800c7
:10282c0066004700ae009000811f780041eb280045
:10283c00811f780052f80700e487570066004700b4
:10284c0031ff07004cff0700660047009e00900018
:10285c00811f780021ec2800811f780048f80700c0
:10286c00e48757006600470027ff070010c0b3003d
:10287c0006e8b700c9e2a8000040eb00004f780062
:10288c000600370051168000000028000080600010
:10289c000000e000010032001e4fe8001e407800ee
:1028ac000004e000f7ff32001e407800e14f5000ba
:1028bc0015003a001e4fe80035ff0700f0ec280029
:1028cc0011ff070000902000d10320007d000700bd
:1028dc00e0c2b30005ff070000902000d1032000e8
:1028ec0078000700e0c2b30000ff07000090200052
:1028fc00d1032000730007002bff0700f0ed280028
:10290c0001ff07006fff070041408000604080001e
:10291c00808f5000450039000828ef0006c8bf0022
:10292c000080fb00e30f50001c003200e30f50004e
:10293c0005003c00e10f50000a003200e20f50008d
:10294c000f00320031003700e50f5000210032003b
:10295c00e50f500018003500e60f5000240032003f
:10296c002a003700cca2a800cc82a900cc62a90016
:10297c00cc42a800cc22a900cc02a900230037002d
:10298c00cca2a800cc82a900cc62a900cc42a900a0
:10299c00cc22a900cc02a8001c003700cca2a900b4
:1029ac00cc82a900cc62a800cc42a900cc22a90000
:1029bc00cc02a80015003700cca2a900cc82a8003c
:1029cc00cc62a800cc42a900cc22a900cc02a90060
:1029dc000e003700cca2a900cc82a800cc62a900c2
:1029ec00cc42a900cc22a800cc02a90007003700d9
:1029fc00cca2a900cc82a900cc62a900cc42a80030
:102a0c00cc22a800cc02a9000000000006c8bf0020
:102a1c000040e80006e8b70006c8bf00e74f5000ca
:102a2c0002003a0010c0b30006e8b7000000000036
:042a3c009aff3700c6
:020000040000fa
:102a4000000800000c000000000000000c0800005e
:102a50000600000002000000e803320000c8000089
:102a6000340800001a00000002000000686a6c00d0
:102a7000747a4c000000010000020000040008000d
:102a800000100000000020002b2d2300300000006b
:102a90001208000022000000020000003031320065
:102aa000333435003637380039414200434445005d
:102ab00046003000313233003435360037383900c3
:102ac00061626300646566000000000000000000b1
:020000040000fa
:102ad000f03fb1000180b10006003500ee030900af
:102ae00000000000403fb1000180b100fbff3d004d
:102af0001000b000203fb000020035000080090047
:082b00000000000000000600c7
:020000040000fa
:020000040001f9
:0457f400fffc0000b6
:020000040000fa
:020000040001f9
:0457f8009f8100008d
:020000040000fa
:020000040001f9
:0457fc007f3f0000eb
:00000001FF
