:020000040000fa
:080000000002040000000000f2
:020000040000fa
:0400080006030000eb
:020000040000fa
:04000c001c030000d1
:020000040000fa
:040010005804000090
:020000040000fa
:0400140032030000b3
:020000040000fa
:040018004803000099
:020000040000fa
:04001c005804000084
:020000040000fa
:040020005804000080
:020000040000fa
:04002400580400007c
:020000040000fa
:040028005804000078
:020000040000fa
:04002c002c040000a0
:020000040000fa
:040030005804000070
:020000040000fa
:04003400580400006c
:020000040000fa
:040038005804000068
:020000040000fa
:04003c005804000064
:020000040000fa
:040040005804000060
:020000040000fa
:04004400580400005c
:020000040000fa
:040048005804000058
:020000040000fa
:04004c005804000054
:020000040000fa
:040050005804000050
:020000040000fa
:04005400c8030000dd
:020000040000fa
:040058005e03000043
:020000040000fa
:04005c005804000044
:020000040000fa
:040060005804000040
:020000040000fa
:04006400580400003c
:020000040000fa
:040068005804000038
:020000040000fa
:04006c005804000034
:020000040000fa
:040070005804000030
:020000040000fa
:04007400580400002c
:020000040000fa
:040078005804000028
:020000040000fa
:04007c005804000024
:020000040000fa
:040080005804000020
:020000040000fa
:04008400580400001c
:020000040000fa
:040088005804000018
:020000040000fa
:04008c005804000014
:020000040000fa
:040090005804000010
:020000040000fa
:04009400580400000c
:020000040000fa
:040098005804000008
:020000040000fa
:04009c005804000004
:020000040000fa
:0400a0005804000000
:020000040000fa
:0400a40058040000fc
:020000040000fa
:0400a80058040000f8
:020000040000fa
:0400ac0058040000f4
:020000040000fa
:0400b00058040000f0
:020000040000fa
:0400b40058040000ec
:020000040000fa
:0400b80058040000e8
:020000040000fa
:0400bc0058040000e4
:020000040000fa
:0400c00058040000e0
:020000040000fa
:0400c40058040000dc
:020000040000fa
:0400c80058040000d8
:020000040000fa
:0400cc0058040000d4
:020000040000fa
:0400d00058040000d0
:020000040000fa
:0400d40058040000cc
:020000040000fa
:0400d80058040000c8
:020000040000fa
:0400dc0058040000c4
:020000040000fa
:0400e00058040000c0
:020000040000fa
:0400e40058040000bc
:020000040000fa
:0400e80058040000b8
:020000040000fa
:0400ec000e040000fe
:020000040000fa
:0400f00058040000b0
:020000040000fa
:0400f40058040000ac
:020000040000fa
:0400f80058040000a8
:020000040000fa
:0400fc0058040000a4
:020000040000fa
:04010000580400009f
:020000040000fa
:04010400580400009b
:020000040000fa
:040108005804000097
:020000040000fa
:04010c005804000093
:020000040000fa
:04011000580400008f
:020000040000fa
:04011400580400008b
:020000040000fa
:040118005804000087
:020000040000fa
:04011c005804000083
:020000040000fa
:04012000580400007f
:020000040000fa
:04012400580400007b
:020000040000fa
:040128005804000077
:020000040000fa
:04012c005804000073
:020000040000fa
:04013000580400006f
:020000040000fa
:04013400580400006b
:020000040000fa
:040138005804000067
:020000040000fa
:04013c005804000063
:020000040000fa
:04014000580400005f
:020000040000fa
:04014400580400005b
:020000040000fa
:040148005804000057
:020000040000fa
:04014c005804000053
:020000040000fa
:04015000580400004f
:020000040000fa
:04015400580400004b
:020000040000fa
:040158005804000047
:020000040000fa
:04015c005804000043
:020000040000fa
:04016000580400003f
:020000040000fa
:04016400580400003b
:020000040000fa
:040168005804000037
:020000040000fa
:04016c005804000033
:020000040000fa
:04017000580400002f
:020000040000fa
:04017400580400002b
:020000040000fa
:040178005804000027
:020000040000fa
:04017c005804000023
:020000040000fa
:04018000580400001f
:020000040000fa
:04018400580400001b
:020000040000fa
:040188005804000017
:020000040000fa
:04018c005804000013
:020000040000fa
:04019000580400000f
:020000040000fa
:04019400580400000b
:020000040000fa
:040198005804000007
:020000040000fa
:04019c005804000003
:020000040000fa
:0401a00058040000ff
:020000040000fa
:0401a40058040000fb
:020000040000fa
:0401a80058040000f7
:020000040000fa
:0401ac0058040000f3
:020000040000fa
:0401b00058040000ef
:020000040000fa
:0401b40058040000eb
:020000040000fa
:0401b80058040000e7
:020000040000fa
:0401bc0058040000e3
:020000040000fa
:0401c00058040000df
:020000040000fa
:0401c40058040000db
:020000040000fa
:0401c80058040000d7
:020000040000fa
:0401cc0058040000d3
:020000040000fa
:0401d00058040000cf
:020000040000fa
:0401d40058040000cb
:020000040000fa
:0401d80058040000c7
:020000040000fa
:0401dc0058040000c3
:020000040000fa
:0401e00058040000bf
:020000040000fa
:0401e40058040000bb
:020000040000fa
:0401e80058040000b7
:020000040000fa
:0401ec0058040000b3
:020000040000fa
:0401f00058040000af
:020000040000fa
:0401f40058040000ab
:020000040000fa
:0401f80058040000a7
:020000040000fa
:0401fc0058040000a3
:020000040000fa
:04020000580400009e
:020000040000fa
:04020400580400009a
:020000040000fa
:040208005804000096
:020000040000fa
:04020c005804000092
:020000040000fa
:04021000580400008e
:020000040000fa
:04021400580400008a
:020000040000fa
:040218005804000086
:020000040000fa
:04021c005804000082
:020000040000fa
:04022000580400007e
:020000040000fa
:04022400580400007a
:020000040000fa
:040228005804000076
:020000040000fa
:04022c005804000072
:020000040000fa
:04023000580400006e
:020000040000fa
:04023400580400006a
:020000040000fa
:040238005804000066
:020000040000fa
:04023c005804000062
:020000040000fa
:04024000580400005e
:020000040000fa
:04024400580400005a
:020000040000fa
:040248005804000056
:020000040000fa
:04024c005804000052
:020000040000fa
:04025000580400004e
:020000040000fa
:04025400580400004a
:020000040000fa
:040258005804000046
:020000040000fa
:04025c005804000042
:020000040000fa
:04026000580400003e
:020000040000fa
:04026400580400003a
:020000040000fa
:040268005804000036
:020000040000fa
:04026c005804000032
:020000040000fa
:04027000580400002e
:020000040000fa
:04027400580400002a
:020000040000fa
:040278005804000026
:020000040000fa
:04027c005804000022
:020000040000fa
:04028000580400001e
:020000040000fa
:04028400580400001a
:020000040000fa
:040288005804000016
:020000040000fa
:04028c005804000012
:020000040000fa
:04029000580400000e
:020000040000fa
:04029400580400000a
:020000040000fa
:040298005804000006
:020000040000fa
:04029c005804000002
:020000040000fa
:0402a00058040000fe
:020000040000fa
:0402a40058040000fa
:020000040000fa
:0402a80058040000f6
:020000040000fa
:0402ac0058040000f2
:020000040000fa
:0402b00058040000ee
:020000040000fa
:0402b40058040000ea
:020000040000fa
:0402b80058040000e6
:020000040000fa
:0402bc0058040000e2
:020000040000fa
:0402c00058040000de
:020000040000fa
:0402c40058040000da
:020000040000fa
:0402c80058040000d6
:020000040000fa
:0402cc0058040000d2
:020000040000fa
:0402d00058040000ce
:020000040000fa
:0402d40058040000ca
:020000040000fa
:0402d80058040000c6
:020000040000fa
:0402dc0058040000c2
:020000040000fa
:0402e00058040000be
:020000040000fa
:0402e40058040000ba
:020000040000fa
:0402e80058040000b6
:020000040000fa
:0402ec0058040000b2
:020000040000fa
:0402f00058040000ae
:020000040000fa
:0402f40058040000aa
:020000040000fa
:0402f80058040000a6
:020000040000fa
:0402fc0058040000a2
:020000040000fa
:04030000580400009d
:020000040000fa
:040304005804000099
:020000040000fa
:040308005804000095
:020000040000fa
:04030c005804000091
:020000040000fa
:04031000580400008d
:020000040000fa
:040314005804000089
:020000040000fa
:040318005804000085
:020000040000fa
:04031c0024040000b5
:020000040000fa
:04032000580400007d
:020000040000fa
:040324005804000079
:020000040000fa
:040328005804000075
:020000040000fa
:04032c005804000071
:020000040000fa
:04033000580400006d
:020000040000fa
:040334005804000069
:020000040000fa
:100400000f2b21000eff26000e01880000000000c7
:10041000000020000000e000020032000001200087
:100420002002880014000700650107000000e000ba
:1004300003003a00808521000100200002003700ff
:100440000000200001002000810f70000100320038
:100450000f000700000020000000e0000200320052
:100460000000020000000000261e02000000000044
:100470000040da000000fe00e01620000000e0006e
:1004800002003200002020009001880000000600d9
:10049000a1028800800478000000eb001f003700f4
:1004a000e284440054a0b4009905ba00e2844400f8
:1004b00054a0b4009906ba00e284440054a0b400e9
:1004c0000006eb00476fde00fd07b200ae018800ba
:1004d000636ce10003003a000ad801000000eb0061
:1004e0000e003700606ce10008003a00004deb00a0
:1004f0000a05e800020039003420ec000af0a000f0
:100500008b05e900f9ff3e00040037006168e10057
:10051000010032000086eb000b00070019c7ba008b
:100520001905ba000e04e00003003a000a00e000da
:10053000dbff3a0000000600fe07b200ae028800b2
:100540008a047800f5ff37000cd0a300e20f4d00bd
:100550001c00390089027800354dba000a05e80010
:10056000020039003420ec000af0a0008b05e900fd
:100570000f003200254dba000a05e80002003900dc
:100580003420ec000af0a0008b05e90008003200de
:100590000c00e0000600320015cdba000a05e800a4
:1005a000020039003420ec000af0a0008b05e900bd
:1005b0008984e80054a0b4000b00e000e2ff3a0098
:1005c000000006009902ba00055d78008b05e9007d
:1005d000f7ff3200c82ade00055d78008b05e900d0
:1005e000f3ff32000c00e000f1ff320019ddba0029
:1005f000eeff3700720504000000000070100400d8
:100600000000000000000400000000003200f800bc
:100610003400f800881f780018002000a801880026
:1006200008202000980188004f0478000000fa009c
:10063000c028a900ffff37003200f8003400f8009e
:10064000881f780018002000a801880008202000da
:10065000980188004f0478000000fa00c068a900e3
:10066000ffff37003200f8003400f800881f7800e0
:1006700018002000a80188000820200098018800a8
:100680004f0478000000fa00c048a900ffff3700bf
:100690003200f8003400f800881f780018002000ad
:1006a000a801880008202000980188004f047800e5
:1006b0000000fa00c088a900ffff3700809fbe003d
:1006c0000000fa00c1938000b0938000808f50003a
:1006d00010003a00d19380000010200000806000dc
:1006e0000000e0000b003a0000000000e111800073
:1006f00000082000008060000000e000fbff3200e6
:10070000d09380000090a000d09388002188a90099
:100710001c0037000188a90014003700c093800036
:10072000104078000080fb0040128800c0938000d9
:100730000000e800c0938800c19380004028210099
:10074000808f500002003a00c0272100c09388002b
:10075000d09380000080a100d0938800c1938000d6
:10076000b0938000808f500005003200f0118000af
:10077000700060000000e000e8ff32000100370078
:10078000000000000080fa004f00be00004006009c
:10079000809fbe000000fa00180037009093800090
:1007a00021128000814078000148780090938000f9
:1007b0000000e8009093880091938000c0282100f9
:1007c000808f500002003a0040282100909388005a
:1007d000d09380000010a100d093880091938000f6
:1007e000a0938000808f500004003a00d0938000d6
:1007f0000000a000d093880004003700f0118000b2
:10080000620060000000e000e4ff32000168a9001f
:100810000080fa004f00be0000400600801f7800f4
:100820000000fa00e0118000620060000000e000bb
:10083000010032003c22a9000628a9000080fa002d
:100840004f007800004006000000fa0017a8a90039
:100850000080fa0000400600809fbe003200f800d1
:100860003400f80010002000a001880000202000c3
:10087000900188000000fa00a173800000042000ad
:10088000008060000000e00002003a0076cea80080
:100890000100370076cea9000028a9000080fa00e8
:1008a0003400f9003200f9004f00be00004006009d
:1008b0000040da000000fe000a00fa0011002000eb
:1008c000b1bf9f00c0bf9f006a805700b9060700f4
:1008d0004fb897000080fa00000006000a00fa00f6
:1008e00051002000b1bf9f00c0bf9f006a80570029
:1008f000b20607005fb897000080fa00000006000b
:10090000889fbe0080047800709580000000e000a1
:1009100004003a000e0007000084eb000000e00035
:1009200008003500789580000900e00005003200dd
:1009300009004400060007000000e00001003d003f
:100940000084eb00080078004f04be0000000600a1
:10095000800078000100e00003003a000000200061
:1009600070958800000005000080eb000200200068
:10097000828f500002003e00719588000000eb005d
:10098000000006000600fa00000f7800110798002a
:100990002207980000000000e111800000082000fc
:1009a000008060000000e000fbff32001e009000ad
:1009b000ae009000cf0807000080fa00000006009b
:1009c000000005006022b800060220000000d000f0
:1009d0008180d2000482d2008582d2000000a00073
:1009e0000202520083825a000300310002024200d8
:1009f00083824a000000a1000603e900f3ff3a00e9
:100a0000000006008001780002003700815978005c
:100a10000201e9000200e000fcff3a0000000600cd
:100a2000411321005d020700800078000080eb0088
:100a30000100e0000400350041132100a000200067
:100a4000020007004f80de0000000600889fbe0005
:100a50008a1f78000004be00c90090006900900061
:100a6000808f50000500390009007800140307004a
:100a70008080eb000000e00016003500084578009b
:100a80004900900008587800c004980019007800c8
:100a900000b8a30004003a0000a8a3000700320039
:100aa000ea4f540005003a000900780000020700f0
:100ab0008080eb000000e00006003a0000c020004b
:100ac000190060000200320049009000e004980024
:100ad0008a80fb00010078004f0578004f04be00bb
:100ae00000000600889fbe00000478000100780026
:100af0008204780088017800090178001100200044
:100b00006e020700890f5000010032000004eb0064
:100b1000080078004f04be00000006000000fa0044
:100b2000e88157004fb9970041132100205720005a
:100b3000020007000080fa00000006006200fa00d0
:100b4000889fbe008a1f7800000578008104780025
:100b5000020478008300780080f92f000f00400025
:100b6000090507009a979f00a9979f000000eb00d6
:100b7000b09f9f001885fb008a04fb000a05ea006d
:100b80004f55de0050022000808f54000d003200cf
:100b9000e10f55000b003a000a0178008800780048
:100ba0002f9097009f91970003000100a0979f004e
:100bb0000000e0008e0032003f9897000000e8003f
:100bc000b09f9f000a04440050022000808f540010
:100bd000040032000900e000e6ff3a003f98970069
:100be000840037000000eb00909f9f00809f9f00d3
:100bf000f0979f00e0979f00d0979f00c0979f00bd
:100c000007003700012a21000100500000004000c9
:100c10004129210061007800df98970001007000f1
:100c2000d09f9f0088047800090478003845780038
:100c30008a00fb00002a2100850207000000e00076
:100c4000f0ff3a00a1c2b300814f55000e003a00f8
:100c5000cf8897000180e900c08f9f0010007800c6
:100c6000c09f9f000000e00005003d000000ea007a
:100c7000c09f9f005f9897000020a000d09f9f001a
:100c80000904e8000f003700c09f9f000000eb0040
:100c900005003700f2ff2700820f500002003200eb
:100ca0006a01b900028040000904780088047800d5
:100cb000b900fb000103b100e98f5000f5ff3600d9
:100cc000c09f9f00e0c2b300984f100002003200a6
:100cd0000080eb0019003700a0c2b300d84f10000d
:100ce00007003a00cf8897000180e900c08f9f007d
:100cf00010007800a09f9f000804e8001000370053
:100d00000000eb00a09f9f008800780005003700de
:100d1000f3ff2700830f5000020032006a02b9007f
:100d20000400410001047800880078003101fb00d4
:100d30000203b100e90f5100f5ff3600a09f9f00ac
:100d4000984478008900fb00c02821004002070079
:100d50000000e000020032000804e8000100370053
:100d60008044eb00c97f9f0080c6b30080cf540051
:100d700004003a0098cf14000a003a006640500080
:100d800006003700c0c6b30080cf540005003a000b
:100d900098cf140003003a0065404000c07f9f00d8
:100da0000804e8001801fb00e3fb2f008f814100dd
:100db00081f92f008f804000a0f92f000f00400024
:100dc000100007000000e00009003a00e1fb2f00de
:100dd0008f804000a0f92f000f004000ae030700f5
:100de0000000e000020035000804e80061ff370061
:100df0000080eb004f0578004f04be000080fa0031
:100e000000000600889fbe008a1f7800000478005a
:100e1000e0c6b300804f5100c100320015003c0015
:100e20006b405000804f5100240032000a003c000b
:100e300070405000804f5100fa0032006540400081
:100e4000804f51006800320050c2b300804f510003
:100e50000b013a000701370040c6b300804f510034
:100e60001b00320065404000804f510004013a00f1
:100e70001700370030c7b300804f5100e90032003f
:100e800007003c0064405000804f51005600320083
:100e90000040e800804f5100f9003a00d3003700cd
:100ea00050c7b300804f51004f00320063404000f4
:100eb000804f5100f2003a004b0037001181e900e9
:100ec000820878007800900012417800ea0037002c
:100ed00028609000c4c6b300844f500007003a0059
:100ee0001102780064005200800878001002be00f1
:100ef0004fabde00860378001100370014c7b30043
:100f0000844f500003003200a4c6b300844f500049
:100f100006003a001102780068005200800878004c
:100f20003002be002003be00050037001180e9003a
:100f30008008780010027800cfa2de00612bb90093
:100f4000049cbe000694be002860900081c6b300d9
:100f5000814f50000d00320021c6b300814f500078
:100f600004003a000402fb00cfa2de00612bb900ae
:100f70000800370041c7b300814f50000300320022
:100f8000e6c04000814f500004003a00cfa2de00ce
:100f9000612bb900049cbe000694be003802be005e
:100fa0002803be0078009000d1c2b300e00f5200c9
:100fb000e08f5a00e00f5b00e08f5b000800350017
:100fc000881090000118a30002003200b1c2b300e3
:100fd000030037000108a3004c00320001c2b30037
:100fe000817178004700370028609000c4c6b300c4
:100ff000844f500006003a0011027800640052004d
:10100000800878001002be006033b800110037007d
:1010100014c7b300844f500003003200a4c6b300cd
:10102000844f500006003a00110278006800520018
:10103000800878003002be002003be0005003700a3
:101040001180e90080087800100278008002eb002f
:101050006033b800049cbe000694be002860900077
:1010600081c6b300814f50000d00320021c6b3008d
:10107000814f500004003a000482fb008002eb0024
:101080006033b8000800370041c7b300814f5000fb
:1010900003003200e6c04000814f500004003a00d7
:1010a0008002eb006033b800049cbe000694be00d2
:1010b000081090000038a300140032003802be006f
:1010c0002803be00e00f5200e08f5a00e00f5b00e3
:1010d000e08f5b000d00320080c7b300804f5100ed
:1010e0000300320080c5b300804f510007003a0072
:1010f0007800900001c3b300817178000000e8001f
:10110000827178000000e800700498007800900078
:101110008081410063049800824078003e003700df
:1011200028619000c3c6b3001180e900834f5100cd
:10113000220032000a003c00e4c15100834f5100fc
:101140002500320083c1e800834f510013003200b4
:10115000e8c15100834f51001e003a000a003700d9
:1011600043c7b300834f51001b003200e6c141006a
:10117000834f510018003200e9c15100834f5100e4
:1011800014003a000500370080087800100078004d
:10119000485c9000084878004100370080087800db
:1011a00010007800680a9000cfa2de00612bb90021
:1011b0000498be000690be00390037008008780011
:1011c0001000780068099000cf91de000288be0010
:1011d000330037001180e9008008780010007800a3
:1011e000680c9000080878002d0037001180e90095
:1011f0008008780010027800cfa2de00612bb900d1
:10120000049cbe000694be007800900080814100de
:101210006304980081c7b300080078006f010700dd
:101220001f0037001180e900800878001005780061
:101230006a049800d80c90000900e00004003d000a
:101240000a0078000e0107008004780007003700cc
:10125000090178008000eb000a007800eb0007002d
:101260000000e000010032008a045000190c9800d0
:101270000b0037007800900082717800060037007c
:1012800078009000808141000204e00001003a00f3
:1012900052c2b300824978000000e8007004980050
:1012a0000000eb004f0578004f04be000000060070
:1012b000889fbe008a1f7800000478000800e000c4
:1012c0000d003a0028182100700544008004eb004e
:1012d000580078000000e00004003200f4ff07002e
:1012e0000000e00001003d008084eb008a0f540004
:1012f000f7ff3a00250037000000220018006000c8
:101300008004eb0021003200a80490000f00370099
:1013100009015100384090000000fb00890078006e
:1013200098fd07000000e00007003c002800900046
:101330004004980060049800500c98001890a00099
:101340008084eb0011003700808444004801900045
:10135000828f5400eeff390028009000400498006e
:101360009800780002c020000281600001003a006d
:101370003800900001e8a3000200320060049800e9
:1013800001003700500c98008004eb000900780041
:101390004f0578004f04be0000000600889fbe0085
:1013a0008a9fbe0080047800010478002c0037007a
:1013b000c800900068009000808f50000400390041
:1013c00008007800be0007000000e000370035008c
:1013d000004020001800600009003200a100200039
:1013e00009007800ac000700800578000b00e000e1
:1013f00003003200618514000a85450004003700af
:10140000090078009e000700000578008005eb00c9
:1014100048009000e8009000808050008a8f5000c3
:1014200002003100010578008005eb000a01780018
:10143000890078007f000700480090000a00400003
:10144000400498000b00e00004003200080078001f
:1014500097ff07000000e00014003a008a8444006f
:101460001904e000d2ff3a0000802000180060005c
:1014700006003200080078008dff07008000780029
:101480000080eb000100e00009003a0001c02000ec
:10149000988060000000eb000500320048009000da
:1014a000600498000000eb00010037000080eb00b2
:1014b0004f05be004f04be0000000600889fbe001e
:1014c0008a9fbe008c9fbe008e1f780000067800a9
:1014d0000104780002007800830478000881b900d4
:1014e000020778000200e000420032000800e0003d
:1014f0004100320082057800c90090006900900028
:10150000808f500004003900090078006c0007004b
:101510000000e000290035000040200019006000b4
:101520000a0032000b017800a10020000c007800b6
:1015300036000700800678000d00e000060032004b
:10154000610516000a854600040037000b05780087
:101550008006eb00010037000b0578004900900081
:10156000e9009000808050008a8f50000200310016
:10157000010578008006eb000a0178008c007800f5
:101580002c0007008a855500490090000a004000a1
:10159000c00498000d00e00004003200090078004b
:1015a00043ff07000000e00004003a000b00e000e9
:1015b000020032000a064600cfff370000802000fc
:1015c00019006000020032000900780038ff0700af
:1015d00000c02000190060000200320049009000a5
:1015e000e00498008b055700050009008885d800a5
:1015f000010037000000eb004f0778004f06be00e7
:101600004f05be004f04be00000006000300370077
:10161000b0cf1000050032000201e900800178001f
:101620000200e000faff3a00000005000300780025
:10163000000006008001780002003700b1597800f0
:101640000201e9000200e000fcff3a000000060091
:10165000020037000304e0000600320000017800b9
:1016600002007800b041780081cf5100f9ff3a00c4
:10167000010037000001eb000200780000000600c6
:1016800080007800010178003104e000fdff3a009d
:1016900000005100000006000001eb00000278008d
:1016a000b041780081cf510001003a000401780078
:1016b0000304e000f9ff3a00020078000000060091
:1016c000889fbe008a1f780000047800c800900040
:1016d000680190000000eb00828f50003c00390050
:1016e000180078002200290002016000e20f51007a
:1016f00007003200012024000000e00001003d004e
:1017000001202000008c70000080eb0030003700ca
:101710000200260002006000820f500009003a001b
:1017200038009000808f50000600390008007800d3
:10173000dffe0700800078000080eb000100e00081
:1017400023003a001805780000c020000000650062
:1017500018003a00a8049000600220000800400031
:10176000808f540013003a0000202000dd020700a3
:10177000200498000000e00005003a0029049800c9
:10178000490498008904e8003904980008003700eb
:101790000a60a0000a0c7800400498000120200094
:1017a0008080400031049800400c9800500c980054
:1017b000f9010700280090005004980038009000bc
:1017c0006004980000002600180c70000000eb0078
:1017d0004f0578004f04be0000000600fc8747005c
:1017e000889fbe008a9fbe008c9fbe008e1f78001f
:1017f0000006780080c5b30080cf50000a00320098
:101800007740400080cf50000a003200694040001d
:1018100080cf50000b0032001026210080bf9f00b7
:10182000ae0020000a0037000225210082bf9f0081
:10183000060037001326210083bf9f008e00200082
:10184000030037001426210084bf9f000e012000f2
:101850003c02be002c03be000605be000404be0010
:1018600040c6b30080cf5000030032006540400006
:1018700080cf50000b003a00e00f5200e08f5a007a
:10188000e00f5b00e08f5b0006003d006000b800e9
:101890006011b80004045000858458000605590002
:1018a00087855900e80f57000400320040002000ef
:1018b000f00f570038003a000100370030002000d8
:1018c000e00f5400e08f5c00e00f5d00e08f5d00f2
:1018d00004003a00dc0890008d0120000100e000c7
:1018e000060032008e00e900888060008fba970001
:1018f000e5c07800f1ef9f007d01200080007800b6
:101900008100e900050033008b05d1000a85d30072
:101910008984d3000884d300f9ff3700089ebe00f5
:101920000a96be00120037008d06e9008e00e9001d
:10193000848060000fb99700e2c1780082fd2f001b
:101940000f01410003f17e00800078008100e90072
:10195000050033008783d1000683d3008582d3003e
:101960000482d300f9ff3700049ebe000696be0035
:101970003c02be002c03be00e00f5200e08f5a0074
:10198000e00f5b00e08f5b008b0034000d00e00097
:10199000e5ff3c00880037002c60900081c6b30052
:1019a000814f50000b00320006003c000004e000b4
:1019b00008003200e6c05000814f50004e003a004f
:1019c00004003700c1c6b300814f50004a003a00fe
:1019d000210037000800e00004003a005c08900095
:1019e0008d0120000000e000060032000500090023
:1019f0000e84d8000fb99700e2c07800f1ef9f0085
:101a00007d012000050009000e84d8000a0037007f
:101a1000050009000e04d8008d06e9000e81b9000a
:101a2000020454008fb8970061417c0081fd2f00b3
:101a30008f80400082f07e00000478000800e00003
:101a4000020032000d00e000f1ff3c00cfc4de00d8
:101a5000614db90025003700e00f5400e08f5c00b5
:101a600004003a005c0890008d0120000000e000b6
:101a7000070032006171b9000800be006002070073
:101a80008fb99700e3417800f3ef9f007d012000bc
:101a90006171b9000800be00cafb07000b003700e7
:101aa0006171b9000800be00460207008d06e9001a
:101ab00000f1b900020454000fba9700e4427c0020
:101ac00084fd2f000f02420005f27e000004be00dc
:101ad000e00f5000e08f5800020032000d00e000df
:101ae000efff3c004fcdde008a057800089ebe0067
:101af0000a96be0030003700e00f5400e08f5c0013
:101b0000e00f5d00e08f5d0004003a005c0890008b
:101b10008d0120000000e000090032006172b90070
:101b2000612bb9000800be000a01be00dd020700fb
:101b30000fba970064427800f4ef9f007d01200007
:101b40006172b900612bb9000800be000a01be0035
:101b5000cd0207000d0037006172b900612bb9009a
:101b60000800be000a01be00d20207008d06e9008f
:101b700000f2b900040454008fba970065427c005b
:101b800085fd2f008f82420084f27e00009ebe0001
:101b90000296be003c04be002c05be00e00f5400bf
:101ba000e08f5c00e00f5d00e08f5d00020034001c
:101bb0000d00e000e8ff3c00e80f570010003a007d
:101bc0000c1090000038a3000d003200f78f560073
:101bd00006003e0085fd2f008f824200e5c07e009a
:101be00000c3b30080cf5000050032008d06e9002d
:101bf00002c3b30081fd2f008f80400082f07e0081
:101c000078811600120e98006c00900083fd2f0062
:101c10008f8141008d80410086fe07001c089000e6
:101c2000dc089000810f500006003d00008050004d
:101c3000000e98000c1090000040a10000169800c3
:101c40000f0037000100e0000d003d008c109000f7
:101c5000f4806000f08f500009003a007c09900089
:101c6000fc009000810051000c099000828050001f
:101c7000008050004240a90001003400000e98008e
:101c80004f0778004f06be004f05be004f04be0050
:101c9000cf01b100000006000400fa00889fbe00da
:101ca0008a9fbe008c1f780000047800010678002f
:101cb000f80d90007800900080855500080890008d
:101cc00080855500180890008085550028089000f0
:101cd00080855500380890008085550048089000a0
:101ce000808555000002220090bf9f000003230062
:101cf000a0bf9f00081090000028a30015003a0024
:101d00000b00e000130034000b0578008a04780013
:101d1000e20f55000100360029002000c8019000a4
:101d200009017800ee805700580090000300010080
:101d3000500498000000e0008c0032006808900019
:101d400009004000600c9800090555004240a900b8
:101d5000eeff3c00780190000200e0000c0034002f
:101d6000c80190008c00780058009000030001002a
:101d7000500498008080eb000000e0007c003200fe
:101d8000e80890007800900000804000600c980007
:101d9000880c90000900e00011003400090578006b
:101da000e28f5400010036002a002000c801900094
:101db0000a017800ec8057005800900003000100f1
:101dc000500498000000e0006800320068089000ad
:101dd0000a004000600c98008a845400edff370030
:101de000180990000200e0000c003400c8019000c7
:101df000e800900058009000030001005004980093
:101e00008080eb000000e00059003200e8089000fc
:101e10001808900000804000600c9800a80c90000a
:101e20000900e0001100340009057800e28f540039
:101e3000010036002a002000c80190000a01780045
:101e4000ec805700580090000300010050049800f7
:101e50000000e00045003200680890000a004000e1
:101e6000600c98008a845400edff37003809900018
:101e70000200e0000e003400e80090001808900016
:101e800080804000c80190005800900003000100cd
:101e9000500498008080eb000000e0003400320025
:101ea000e80890003808900000804000600c98001e
:101eb000c80c90000900e00011003400090578000a
:101ec000e28f5400010036002a002000c801900073
:101ed0000a017800ec8057005800900003000100d0
:101ee000500498000000e0002000320068089000d4
:101ef0000a004000600c98008a845400edff37000f
:101f0000081090008000eb000028a30018003200a9
:101f10000b00e000160034008b04780009057800ff
:101f2000e28f5400010036002a002000c801900012
:101f30000a017800ee80570058009000030001006d
:101f4000500498000000e00008003200680890008b
:101f50000a004000600c98008a8454004240a900a6
:101f6000eeff3c008000eb00010037008080eb00ba
:101f7000010078004f0678004f05be004f04be00f8
:101f80000080fa000000060001087800000006004a
:101f90000007210062003700881f7800a82a21006e
:101fa0001804e00003003a00f9ff070020c0b30066
:101fb000004c78004f04780000000600889fbe00a7
:101fc0000004780008007800b9fc0700800478005d
:101fd00066800a00180000000000e00002003200e5
:101fe000280090005a0007000000eb002004980031
:101ff000384090000004e000050035000000fb00c0
:102000002dfa07000000e000010032008084eb00a0
:10201000181090000000e000080032002ffa0700be
:102020000000e000010032008084eb0018109000f6
:10203000470007000000eb00101498000008200083
:1020400018006000150032000001eb006000b800cd
:10205000431821000202d00063027a00880f520068
:1020600005003a00000040008180480000804100e7
:102070000008eb000600370061004000e0804800e7
:102080000201e800e80f5000e08f5800f0ff3a002e
:10209000080078002e0007000e003700000c7800c2
:1020a00000c0eb00304498006002200008004000af
:1020b000200498004004980050049800400c9800b8
:1020c00060049800500c980070049800760044005a
:1020d000000c9800090078004f04be0000000600c4
:1020e000881f78000004eb006140b800e2ff2f0079
:1020f000f3ff2f00c50007002219210062007800bd
:102100000000e00001003200acff07000804e80016
:10211000e80f5400f4ff3a004f0478000000060076
:10212000010020000100e0000800320001008000f2
:102130000100e000050032008100e9000100880094
:102140008100d0000200800000b17800000006008d
:102150000000e0002f003200c0017800e38f510042
:102160002c0036000308a3002a003a0041958000a5
:102170000100e00002003200810f50000400310035
:102180001100980040958800160037008200780002
:10219000110190000200e00002003200800f5100a7
:1021a000faff39001102780084824000850f500048
:1021b00018003900808f520003003a008308420063
:1021c00001007800070037000200e0000300320041
:1021d00083014000830f51000e0039001200980067
:1021e00090009800900090000100e000090032008b
:1021f00010014000828f500006003a00622a210040
:102200000009eb00100178001108410091009000d6
:102210001100980000000600889fbe0000047800ae
:10222000319580000100e0000200320001007800da
:102230000d00370041958000802a210004003700fe
:10224000910f5400250036000180e80091009000b5
:102250000100e000faff3a0010003700920f54002e
:102260001e0036000280e800100178000200e00045
:10227000faff3a001101780041958000802a210080
:1022800004003700910f5400140036000180e8006c
:1022900091009000828f5000faff3a00699580000b
:1022a000888f54000100310088047800090078000c
:1022b000360007000000e00004003a00888f540058
:1022c000050032008904d100f5ff370009187800b5
:1022d0009fff0700d2ff37000000eb004f04be0055
:1022e00000000600881f7800630440000800a10079
:1022f0008000eb00800f540021003600e30f5400f3
:1023000001003e004800200008007800c2ff0700de
:102310008000eb000000e00019003200900078001f
:102320009101780064815100880f51000300310051
:102330001101900002087800070037000881400072
:1023400002087800910190001301980010017800b4
:102350001109140088087800100178000000eb00d3
:102360000200e00004003200920190000300e0004f
:10237000010032000280e800309588008180e8008a
:10238000010078004f04780000000600800078000b
:102390000000eb000100e0000500340001007800bf
:1023a00057f90700e10f400001003a000000eb0080
:1023b0000000060000c0da000000060000c0da00dd
:1023c00000000600839f68000100e00002003d005d
:1023d00060001000e08018000300e00002003d00f3
:1023e00060011100e081190076f907004f00e0005c
:1023f00002003b0060001000e080180000000600b2
:1024000070f907000400be0000000600020ab900cf
:10241000001bb9000200b8008100420081004300a7
:1024200000000600889fbe008a9fbe003004420064
:10243000b0844a0030054b0090854b006000b1002d
:102440000898be000a90be000440e10005c8e10003
:1024500006d0e10007d8e10002003100680040002a
:102460001008e8004f05be004f04be000000060043
:10247000889fbe008a9fbe003004be002005be00bb
:102480000418540005985c0006185d0007985d006c
:10249000110020000440e10005c8e10006d0e10081
:1024a00007d8e100010039008000eb00108810001f
:1024b0004f05be004f04be00000006001200fa00e7
:1024c000889fbe008a9fbe008c9fbe00e0b79f0021
:1024d000f1b79f0082bf9f0093bf9f000605be001b
:1024e0000404be000000eb00d0b79f00c0b79f00ff
:1024f000b0b79f00a0b79f0090b79f000006eb0009
:102500005fb19700cfb09700820141003fb09700c4
:102510000200e00004003d00370007007e80570005
:10252000c0ff070003003700330007007e8057001c
:10253000cfff0700dfb697000d00e0000c0035006c
:102540006fb29700ffb297000fbb97009fbb970039
:1025500010002000010020006011b800000272008d
:102560008182720002037300838373001b000700e3
:102570000c06e80001042000810f5600e0ff3a003d
:102580000d00e00004003d000802be000a03be008a
:102590007e805700a3ff07005fa897000000e000bf
:1025a00005003a001fb29700afb297003fb3970003
:1025b000cfb39700090007006fb09700ffb09700f6
:1025c0000fb997009fb997004f06be004f05be0098
:1025d0004f04be000080fa00000006000100070062
:1025e00000000600a4b79f00b5b79f00c6b79f00c4
:1025f000d7b79f00000006004f09de0082817100fe
:10260000b3b79f004f01de008180400082807000e0
:10261000a1b79f008fb097004f09de000000400077
:102620000200700090b79f007fa897004f01de0066
:10263000818040008280700081b79f000d000700fc
:102640004f3ade000000400004007000f0af9f0031
:10265000080007000402420085824a0006034b007e
:1026600087834b00dfff07000802be000a03be009d
:10267000000006002fb29700bfb297004fb397003b
:10268000dfb3970000000600881f780018002000c4
:10269000881f780089ff07008f87e9004f047800c2
:1026a00000000600801feb0084ff07008f87e90011
:1026b00000000600889fbe008a9fbe00e00f500009
:1026c000e08f5800e00f5900e08f59000c003d00ea
:1026d0006044b8006055b8000000540081805c0080
:1026e00002015d0083815d001800200015000700d5
:1026f00008003d00180007000004eb00050037004b
:102700000004eb000f00070002003d00120007006c
:1027100018002000dcff07000800e000060032007f
:102720006022b8006033b8000000520081805a0077
:1027300002015b0083815b004f05be004f04be00b9
:1027400000000600e00f5200e08f5a00e00f5b002f
:10275000e08f5b00000006006044b8006055b800e0
:102760000402540085825c0006035d0087835d00df
:1027700000000600889fbe008a9fbe008c1f780064
:10278000e00f5000e08f5800e00f5900e08f590033
:102790000d003d006044b8006055b80000005400d2
:1027a00081805c0002015d0083815d001c002000cf
:1027b0000820e10009a8e1000ab0e1000bb8e1003f
:1027c0000d003d00080037000006eb00e00f52004e
:1027d000e08f5a00e00f5b00e08f5b0006003d00d9
:1027e0006044b8006055b8000402540085825c0063
:1027f00006035d0087835d00aaff07000c00e00070
:10280000060032006022b8006033b80000005200b9
:1028100081805a0002015b0083815b004f067800d3
:0c2820004f05be004f04be000000060083
:020000040000fa
:10282c001b5b0000324a0000001b00005b30000004
:10283c003b300000660000001b5b00003f320000d4
:10284c00356c0000002d00002d2d00002d2d0000fa
:10285c002d2d00002d2d00002d2d00002d2d000004
:10286c002d2d00002d2d00002d2d00002d2d0000f4
:10287c002d2d00002d2d00002d2d00002d2d0000e4
:10288c002d2d00002d2d00002d2d00002d2d0000d4
:10289c002d2d00002d2d00002d2d00002d2d0000c4
:1028ac002d2d00002d2d00002d2d00002d2d0000b4
:1028bc002d2d00002d2d00002d2d00002d2d0000a4
:1028cc002d2d00002d2d00002d0d000000640000aa
:1028dc00735000004943000033330000434b0000a9
:1028ec002043000075720000696f000073690000de
:1028fc00747900002044000065760000656c0000cf
:10290c006f7000006d6500006e74000020420000c6
:10291c006f6100007264000020440000656d0000cf
:10292c006f2000002020000020200000202000004c
:10293c00202000002020000020200000202000008b
:10294c00202000002020000020200000202000007b
:10295c00200d000000530000312000002d2000004d
:10296c00636f00006e740000726f00006c730000e7
:10297c00204c000045440000310d000000530000c5
:10298c00322000002d200000636f00006e740000e8
:10299c00726f00006c730000204c00004544000076
:1029ac00320d0000005000006f740000656e0000d6
:1029bc00746900006f6d00006574000065720000a2
:1029cc00202d0000206300006f6e00007472000068
:1029dc006f6c0000732000006163000074690000dc
:1029ec007665000020520000474200002063000082
:1029fc006f6c00006f7200000d0000000d000000f5
:102a0c001b5b0000383b00003066000000500000eb
:102a1c006f740000656e0000746900006f6d00003b
:102a2c0065740000657200003a2000002569000002
:102a3c002f34000030390000352000002020000029
:102a4c00200d00000a0000004275000074740000a4
:102a5c006f6e000020530000313a0000202500006a
:102a6c00730d00000a000000427500007474000031
:102a7c006f6e000020530000323a00002025000049
:102a8c00730d00000a000000427500007474000011
:102a9c006f6e000020530000333a00002025000028
:102aac00730d00000a0000004375000072720000f4
:102abc00656e000074200000436f00006c6f000016
:102acc00723a000020250000730d00000a0000007f
:102adc00536900006e6500003a2000002564000078
:102aec000d0a0000004300006f7300003a20000044
:0c2afc00256400000d0a0000000000002e
:020000040000fa
:102b08000000fa0000082000c01188003a22ef00f7
:102b18003c22ef0020022000f011880090012000e4
:102b2800001288004222ef004c22ef004e22ef00f4
:102b38005022ef005222ef005422ef005622ef00fd
:102b48005822ef005a22ef005c22ef002168a8000b
:102b580049010700c0272100c0938800c027210031
:102b6800b093880040282100a093880040282100c5
:102b780090938800d09380000010a000d093880024
:102b8800d09380000090a000d0938800d09380005c
:102b98000080a100d0938800d09380000000a1009d
:102ba800d09388000080fa00000006000200fa00b6
:102bb8000040eb00004f7800a0938000104f780091
:102bc800a09380000000e800a0938800a1938000f3
:102bd800c0282100808f500002003a0040282100c0
:102be800a0938800a193800090938000808f50006c
:102bf80003003a00d09380000010a000d093880012
:102c0800d09380000000a100d09388001e40780077
:102c18000080fa00000006000600fa00881f78000d
:102c280010079800210798000000eb00000f7800bb
:102c380009003700d0938000620060000000e000c7
:102c48000a003a001e0090001e044000d7ff07004b
:102c5800004c78001e0fe8002e0090009e007800bf
:102c6800808f5000f3ff390001003700000000009a
:102c78001e0078004f0478000080fa00000006006b
:102c88000200fa00004f78002188a900b093800064
:102c98001e487800b09380000000e800b0938800d8
:102ca800b193800040282100808f500002003a0034
:102cb800c0272100b0938800d09380000090a10025
:102cc800d0938800c1938000b0938000808f50001b
:102cd80003003a00d09380000080a000d0938800c1
:102ce8002188a8000080fa00000006000600fa000b
:102cf80010079800210798000000eb00000f7800eb
:102d08000a003700d1938000001020000080600086
:102d18000000e0000a003a001e0090001e0040007b
:102d2800104078001e0fe800d5ff07002e00900025
:102d38009e007800808f5000f2ff390001003700b4
:102d4800000000001e0078000080fa000000060065
:102d58000200fa000000eb00000f7800d193800019
:102d680000202000008060000000e0000100320028
:102d78001e40a000d1938000001020000080600059
:102d88000000e000010032001e30a000d093800057
:102d9800610060000000e000010032001e00a00099
:102da800d0938000620060000000e0000200320062
:102db8001e20a000010037001e10a0001e00780091
:102dc8000080fa00000006000200fa00000f7800f8
:102dd800a09380009e004000c0282100808f5000f2
:102de80008003900a09380009e004000c028210000
:102df8000000ea000080400041282100614078007e
:102e080003003700a09380001e00400010407800a7
:102e18000080fa00000006000800fa002007980069
:102e2800310798000000eb001007980010c0b300ad
:102e3800004f78003e009000e70f500007003e006a
:102e4800d0938000620060000000e00003003a00b8
:102e58002e0090000000e00003003a000040eb0064
:102e6800004f780030003700a09380008000780081
:102e78003e00900080804000402821000000ea00c9
:102e8800008040006700600010079800a193800050
:102e980090938000808f50000a003100a193800039
:102ea8003e00900080804000909380000000e90080
:102eb800808f5000150036000040eb00004f78006e
:102ec80012003700a193800090938000808f5000fb
:102ed8000e0036009e0090004028210080804000af
:102ee800a0938000808f5000080031009e00900061
:102ef800402821008080400090938000808f5000ff
:102f0800020039000040eb00004f78001e407800b6
:102f18000004e000040032003e009000aaff070011
:102f2800ae009000804878001e4078000080fa00cb
:102f3800000006000000fa00d093800061006000e5
:102f48000000e0000f003a00a193800090938000f9
:102f5800808f500005003600a09380008000780024
:102f6800909380000080500007003700a0938000f5
:102f78008000780090938000008050006800400036
:102f8800010037000000eb000080fa000000060096
:102f98000000fa00d193800000102000008060003b
:102fa8000000e0000f003a00c1938000b093800059
:102fb800808f500005003600c093800080007800a4
:102fc800b09380000080500007003700c093800055
:102fd80080007800b09380000080500068004000b6
:102fe800010037000000eb000080fa000000060036
:102ff8000000fa00d09380006200600000f0a70093
:103008000000ea000000ea004f00de0000407800ff
:103018000080fa00000006000000fa00d19380004a
:10302800001020000080600000f0a7000000ea0007
:103038000000ea004f00de00004078000080fa003f
:10304800000006000400fa00f01180008000eb0088
:10305800008fbe001e00be00c001dd00020020007f
:10306800e01180008000eb00000071008180710099
:103078000080fa00000006000000fa0039e2a8000b
:1030880038a2a8003882a8000080fa0000000600d4
:103098000000fa0039e2a90038a2a9003882a90084
:0830a8000080fa0000000600a0
:020000040000fa
:1030b000f811000058000000820000004e6f7400fc
:1030c00020507200657373006564000050726500e3
:1030d000737365006420200020200000426c6100b2
:1030e000636b2000200042006c75650020202000ea
:1030f000004c69006d6520002020000043796100cc
:103100006e20200020005200656420002020200056
:10311000004d610067656e007461000059656c00c8
:103120006c6f7700200057006869740065202000ec
:1031300000000000001100000a00000080000000f4
:10314000721200001a000000800000000010000051
:10315000000100008200000000004800068c0c0006
:10316000c812f900181a1f0028251f002bfc300078
:10317000ba3656003cce41001d4740004c3351004a
:10318000f55582005ad75e00f262cf00666d6a0084
:10319000ca6de20070b5730041768400787d7a00d4
:1031a000297c8a007d9d7e00627fd8007fff7f00a2
:1031b000d87f62007f9d7e008a7d29007c7d7a0019
:1031c0008478410076b57300e270ca006d6d6a00c4
:1031d000cf66f20062d75e00825af5005533510087
:1031e000404c1d0047ce4100563cba0036fc300032
:1031f0001f2b2800251a1f00f918c800128c0c007c
:103200004806000000b8f90074f33800ed07e70045
:10321000e6e0d800dae1d40004cf4600c9aac30032
:1032200032bee300b8c0b300cdae0b00aa7ea5004d
:1032300029a10e009d31990093953600921e8f00b2
:103240004b8cbf00897c87008385d7008376820002
:1032500063819e008028800001802800809e80007d
:103260006381760082d7830083857c0087bf8900d5
:103270004b8c1e008f36920093953100990e9d0065
:1032800029a17e00a50baa00cdaec000b3e3b80013
:1032900032beaa00c346c90004cfe100d4d8da0088
:1032a000e6e00700e738ed0074f3b800f90000002d
:1032b0009411000064000000800000000a1100006a
:1032c00002000000800000000c11000088000000d7
:1032d00082000000010000000032110033113200b2
:1032e00011321100321132001122110000000000d1
:1032f00000000000000000000000000000000000ce
:1033000000000000000000000002080001015a0057
:10331000115b11005a115a00115a11005a114a003a
:10332000110000000000000000000000000000008c
:10333000000000000000000000000000000002008b
:1033400008020200821183001182110082118200a2
:103350001182110072110000000000000000000046
:10336000000000000000000000000000000000005d
:10337000000000000c113400115c1100000000007e
:103380000000000000000000000000008c1200009f
:103390001a00000082000000686a6c00747a4c0019
:1033a00000000100000200000400080000100000fe
:1033b000000020002b2d23003000000050120000e0
:1033c000220000008200000030313200333435002a
:1033d000363738003941420043444500460030004a
:1033e00031323300343536003738390061626300da
:1033f0006465660000000000aa12000002000000e0
:1034000080000000ac1200000200000082000000fa
:1034100004000000a612000004000000800000006c
:10342000ae1200000200000080000000000000005a
:020000040000fa
:103430000400fa00100798001e009000f70f5000db
:103440000b003a001e00900010000700d1cc2c00a9
:103450000100b8004308de00004f780040c6b3000a
:103460009e40780080cf500003003e0004003700eb
:1034700000c0eb000300370040c6b300004f7800e7
:103480001e4078000080fa00000006000200fa00ea
:10349000000f78001e007800030007004200de00e5
:1034a0000080fa00000006000600fa0020079800dd
:1034b0002e0090000000400080007800c0c0200076
:1034c000008f40004158800000e02f0080806000a5
:1034d0002e0090000100700040588800090ba800e1
:1034e0002e009000ef0f50000b003e002e009000c9
:1034f000110020000008dd00100798000000000007
:10350000815980001e009000008060000000e000f3
:10351000fbff32000b0037002e00900070005000bf
:10352000110020000008dd001007980000000000d6
:10353000915980001e009000008060000000e000b3
:10354000fbff32001e007800100078000080fa00b7
:10355000000006000800fa00300798003e009000c6
:103560000000400080007800c0c02000008f4000b4
:103570004158800000e02f00808060003e009000f5
:103580000100700040588800090ba8003e00900020
:10359000ef0f50000b003e003e0090001100200095
:1035a0000008dd001007980000000000815980002d
:1035b0001e009000008060000000e000fbff320071
:1035c0000b0037003e0090007000500011002000fa
:1035d0000008dd00100798000000000091598000ed
:1035e0001e009000008060000000e000fbff320041
:1035f0001e00780090007800210798002e009000af
:103600004400dd00200798002e0090000080fa00a2
:10361000000006000a00fa003007980041079800f1
:103620006000b800008fbe000000eb00200798008b
:10363000080037003e0090009bff07008000eb0071
:103640001e0f40005e9748002e0090000000e8002a
:1036500020079800ae0090004e009000808f500030
:10366000f4ff39002e0090000000e0000c00320052
:103670002e0090000000d1008000eb003e024000d0
:10368000ae8248002e0090008000eb000001be00da
:103690000400be00cbf407000000780001003700f2
:1036a0000000eb000080fa00000006000200fa00b3
:1036b000000f78001e007800f70f500003003a005a
:1036c000706ea80010c0b300010037000040eb008e
:1036d0000080fa00000006000200fa00000f7800e7
:1036e0001e0078000000e00017003a00002bef00f9
:1036f0000006200010588800300020002058880064
:103700000003200030588800082bef00000820003c
:1037100050588800000820000060880000f0200059
:103720001060880001eba80000000000016080002c
:1037300000002800008060000000e000fbff320075
:1037400010c0b300010037000040eb000080fa0019
:10375000000006000000fa0073eea90077eea80052
:103760000080fa00000006000000fa0073eea900d5
:1037700077eea9000080fa00000006000000fa00c1
:10378000b173800000002800008060000000e000ad
:1037900002003200f4ff070001003700edff0700d0
:1037a0000080fa00000006000200fa00000f780016
:1037b0001e0078004f00de00000f78001e00780029
:1037c000e10f500002003a00e2ff0700010037005d
:1037d000e5ff07000080fa00000006000000fa0084
:1037e00073cea90077cea8000080fa000000060082
:1037f0000000fa0073cea90077cea9000080fa007d
:10380000000006000000fa00b173800000002400f0
:10381000008060000000e00002003200f4ff0700ba
:1038200001003700edff07000080fa0000000600ed
:103830000200fa00000f78001e0078004f00de0042
:10384000000f78001e007800e10f500002003a00df
:10385000e2ff070001003700e5ff07000080fa00e3
:10386000000006000000fa0073aea90077aea800c1
:103870000080fa00000006000000fa0073aea90004
:1038800077aea9000080fa00000006000000fa00f0
:10389000b173800000002200008060000000e000a2
:1038a00002003200f4ff070001003700edff0700bf
:1038b0000080fa00000006000200fa00000f780005
:1038c0001e0078004f00de00000f78001e00780018
:1038d000e10f500002003a00e2ff0700010037004c
:1038e000e5ff07000080fa00000006000000fa0073
:1038f00098ff0700dbff0700b8ff07000080fa0011
:10390000000006000000fa0097ff0700daff07003a
:10391000b7ff07000080fa00000006000000fa0070
:1039200096ff0700d9ff0700b6ff07000080fa00e6
:10393000000006000600fa00000f7800110798004a
:10394000220798001e00780097ff07001e009000d5
:10395000b7ff07002e009000d7ff07000080fa0095
:10396000000006000200fa00004f78001e80fb00f5
:10397000640060000000e0000200320075ff0700f4
:103980000100370078ff07001e80fb006200600026
:103990000000e0000200320090ff07000100370045
:1039a00093ff07001e80fb0061006000004078006c
:1039b0000004e00002003200aaff07000100370007
:1039c000adff07000080fa00000006000400fa00c6
:1039d000100798000040eb00004f780011003700fe
:1039e0001e80fb006a00b9008000780040192100a9
:1039f00000804000900078001e009000808f5000f2
:103a000007003a001e80fb006a00b90080007800c1
:103a100040192100008040008000eb000108780080
:103a20001e4fe8001e407800e94f5000ecff3600c2
:103a30000080fa00000006000800fa001007980055
:103a400022079800330798000ad1bf000004a200a3
:103a50000004e000020032000040eb0028003700c4
:103a60000040eb00004f7800210037001e80fb0073
:103a70006a00b900800078004019210000804000f1
:103a8000100078000000e00018003a001e80fb00e3
:103a90006a00b900800078004019210000804000d1
:103aa0009e009000010878001e80fb006a00b900ab
:103ab0008000780060192100008040002e019000f5
:103ac000be0190000288be001e80fb006a00b900a3
:103ad00080007800a0192100008140006000b8003b
:103ae0000089be0010c0b300050037001e4fe8007b
:103af0001e407800e94f5000dcff36000040eb002c
:103b00000080fa00000006000200fa00000f7800b2
:103b10001e007800e10f500020003200e10f50003d
:103b200003003900e20f5000370032003a0037003e
:103b300001e1a9002028a900420620008000eb0036
:103b400040192100aff307000028a9004100200020
:103b500064210a00400800000421ef00703e2000ac
:103b6000400888003100200098210a000001000070
:103b70000021a8000041a9001100200054210a00e2
:103b80000001000001e1a8002028a80010c0b30037
:103b90000af1b70010c0b3002000370001e1a9000e
:103ba0002028a900420620008000eb0040192100d7
:103bb00094f307000028a9004100200064210a00b6
:103bc000400800000421ef0020a1270040088800e1
:103bd0002100200098210a00000100000021a80017
:103be0000041a9003100200054210a00000100001a
:103bf00001e1a8002028a80010c0b3000af1b70016
:103c000010c0b300050037002028a9000a71ef009a
:103c100010c0b300010037000040eb000080fa0044
:103c2000000006000000fa0072cea90076cea900be
:103c30000080fa00000006000000fa0072aea90041
:103c400076aea9000080fa00000006000000fa002d
:103c500096000700f3ff0700f7ff07000000eb00e6
:103c60009dfe07007001200090fe07000300070082
:103c700010002000a4ff0700ffff37000000fa003b
:103c800060412900801f7800a4f307008f87e900b6
:103c9000b0412900801f7800a0f307008f87e9005a
:103ca00020422900801f78009cf307008f87e900dd
:103cb000904229005af30700d046290058f3070024
:103cc0009042290056f30700104b290054f30700d7
:103cd000504c290052f30700904d290050f3070083
:103ce000405029004ef307000080fa000000060053
:103cf0000000fa0060502900801f780087f3070059
:103d00008f87e900008880004400de00801f780073
:103d1000d0502900801f780080f30700e487570007
:103d2000821f210002d1bf000080fb006c00b9009f
:103d30000000780000004100801f7800a052290098
:103d4000801f780075f30700e4875700821f210069
:103d500003d1bf000080fb006c00b90000007800b8
:103d600000004100801f7800a0532900801f7800c8
:103d70006af30700e4875700821f210004d1bf00c7
:103d80000080fb006c00b9000000780000004100da
:103d9000801f7800a0542900801f78005ff307007f
:103da000e48757000121210005d1bf000080fb00fe
:103db0004300dd0000804000801f7800a0552900ee
:103dc000801f780055f30700e48757004088800083
:103dd000801f7800e0562900801f78004ff307000d
:103de000e487570030888000801f780090572900b2
:103df000801f780049f30700e48757000080fa002d
:103e0000000006000000fa0010002300307c88004b
:103e100060092000407c88008c2fef0010042000f7
:103e2000507c880010102000707c88006009200001
:103e3000807c880010042000907c88009a2fef007e
:103e4000b82fef00ba2fef00002def00a02fef00ea
:103e5000a42fef00a62fef00a82fef00aa2fef004e
:103e6000ae2fef00b02fef00b22fef0022002000a6
:103e700080072000a109200053f820008049780025
:103e800081497800824978000001eb00600420003d
:103e90007105200043f820008049780081497800ae
:103ea000824978000080fa00000006000000fa0055
:103eb0001100200050210a00a40d000012fb070091
:083ec0000080fa00000006007a
:020000040000fa
:020000040005f5
:047e0000ffff000080
:020000040000fa
:020000040005f5
:047e2000ffffff0061
:020000040000fa
:020000040005f5
:047e30007affff00d6
:020000040000fa
:020000040005f5
:047e3800b9ffff008f
:020000040000fa
:020000040005f5
:047e40007f7fff0041
:020000040000fa
:020000040005f5
:047e4800ffffff0039
:020000040000fa
:020000040005f5
:047e5000ddffff0053
:020000040000fa
:020000040005f5
:047e58000000ff0027
:020000040000fa
:020000040005f5
:047e60000000ff001f
:020000040000fa
:020000040005f5
:047e68000000ff0017
:020000040000fa
:020000040005f5
:047e70000000ff000f
:020000040000fa
:020000040005f5
:047e7800ffffff0009
:020000040000fa
:020000040005f5
:047e8000fffcff0004
:020000040000fa
:020000040005f5
:047e8800ffffff00f9
:020000040000fa
:020000040005f5
:047ff800ffffff0088
:020000040000fa
:020000040100f9
:04300000ffffff00cf
:00000001FF
