:020000040000fa
:080000000002040000000000f2
:020000040000fa
:040008000a030000e7
:020000040000fa
:04000c0020030000cd
:020000040000fa
:04001000ea040000fe
:020000040000fa
:0400140036030000af
:020000040000fa
:040018004c03000095
:020000040000fa
:04001c00ea040000f2
:020000040000fa
:04002000ea040000ee
:020000040000fa
:04002400ea040000ea
:020000040000fa
:04002800ea040000e6
:020000040000fa
:04002c006a03000063
:020000040000fa
:04003000ea040000de
:020000040000fa
:04003400ea040000da
:020000040000fa
:04003800ea040000d6
:020000040000fa
:04003c00ea040000d2
:020000040000fa
:04004000ea040000ce
:020000040000fa
:04004400ea040000ca
:020000040000fa
:04004800ea040000c6
:020000040000fa
:04004c00ea040000c2
:020000040000fa
:04005000ea040000be
:020000040000fa
:04005400860400001e
:020000040000fa
:040058001c04000084
:020000040000fa
:04005c00ea040000b2
:020000040000fa
:04006000ea040000ae
:020000040000fa
:04006400ea040000aa
:020000040000fa
:04006800ea040000a6
:020000040000fa
:04006c00ea040000a2
:020000040000fa
:04007000ea0400009e
:020000040000fa
:04007400ea0400009a
:020000040000fa
:04007800ea04000096
:020000040000fa
:04007c00ea04000092
:020000040000fa
:04008000ea0400008e
:020000040000fa
:04008400ea0400008a
:020000040000fa
:04008800ea04000086
:020000040000fa
:04008c00ea04000082
:020000040000fa
:04009000ea0400007e
:020000040000fa
:04009400ea0400007a
:020000040000fa
:04009800ea04000076
:020000040000fa
:04009c00ea04000072
:020000040000fa
:0400a000ea0400006e
:020000040000fa
:0400a400ea0400006a
:020000040000fa
:0400a800ea04000066
:020000040000fa
:0400ac00ea04000062
:020000040000fa
:0400b000ea0400005e
:020000040000fa
:0400b400ea0400005a
:020000040000fa
:0400b800ea04000056
:020000040000fa
:0400bc00ea04000052
:020000040000fa
:0400c000ea0400004e
:020000040000fa
:0400c400ea0400004a
:020000040000fa
:0400c800ea04000046
:020000040000fa
:0400cc00ea04000042
:020000040000fa
:0400d000ea0400003e
:020000040000fa
:0400d400ea0400003a
:020000040000fa
:0400d800ea04000036
:020000040000fa
:0400dc00ea04000032
:020000040000fa
:0400e000ea0400002e
:020000040000fa
:0400e400ea0400002a
:020000040000fa
:0400e800ea04000026
:020000040000fa
:0400ec00cc04000040
:020000040000fa
:0400f000ea0400001e
:020000040000fa
:0400f400ea0400001a
:020000040000fa
:0400f800ea04000016
:020000040000fa
:0400fc00ea04000012
:020000040000fa
:04010000ea0400000d
:020000040000fa
:04010400ea04000009
:020000040000fa
:04010800ea04000005
:020000040000fa
:04010c00ea04000001
:020000040000fa
:04011000ea040000fd
:020000040000fa
:04011400ea040000f9
:020000040000fa
:04011800ea040000f5
:020000040000fa
:04011c00ea040000f1
:020000040000fa
:04012000ea040000ed
:020000040000fa
:04012400ea040000e9
:020000040000fa
:04012800ea040000e5
:020000040000fa
:04012c00ea040000e1
:020000040000fa
:04013000ea040000dd
:020000040000fa
:04013400ea040000d9
:020000040000fa
:04013800ea040000d5
:020000040000fa
:04013c00ea040000d1
:020000040000fa
:04014000ea040000cd
:020000040000fa
:04014400ea040000c9
:020000040000fa
:04014800ea040000c5
:020000040000fa
:04014c00ea040000c1
:020000040000fa
:04015000ea040000bd
:020000040000fa
:04015400ea040000b9
:020000040000fa
:04015800ea040000b5
:020000040000fa
:04015c00ea040000b1
:020000040000fa
:04016000ea040000ad
:020000040000fa
:04016400ea040000a9
:020000040000fa
:04016800ea040000a5
:020000040000fa
:04016c00ea040000a1
:020000040000fa
:04017000ea0400009d
:020000040000fa
:04017400ea04000099
:020000040000fa
:04017800ea04000095
:020000040000fa
:04017c00ea04000091
:020000040000fa
:04018000ea0400008d
:020000040000fa
:04018400ea04000089
:020000040000fa
:04018800ea04000085
:020000040000fa
:04018c00ea04000081
:020000040000fa
:04019000ea0400007d
:020000040000fa
:04019400ea04000079
:020000040000fa
:04019800ea04000075
:020000040000fa
:04019c00ea04000071
:020000040000fa
:0401a000ea0400006d
:020000040000fa
:0401a400ea04000069
:020000040000fa
:0401a800ea04000065
:020000040000fa
:0401ac00ea04000061
:020000040000fa
:0401b000ea0400005d
:020000040000fa
:0401b400ea04000059
:020000040000fa
:0401b800ea04000055
:020000040000fa
:0401bc00ea04000051
:020000040000fa
:0401c000ea0400004d
:020000040000fa
:0401c400ea04000049
:020000040000fa
:0401c800ea04000045
:020000040000fa
:0401cc00ea04000041
:020000040000fa
:0401d000ea0400003d
:020000040000fa
:0401d400ea04000039
:020000040000fa
:0401d800ea04000035
:020000040000fa
:0401dc00ea04000031
:020000040000fa
:0401e000ea0400002d
:020000040000fa
:0401e400ea04000029
:020000040000fa
:0401e800ea04000025
:020000040000fa
:0401ec00ea04000021
:020000040000fa
:0401f0008603000082
:020000040000fa
:0401f400ea04000019
:020000040000fa
:0401f800ea04000015
:020000040000fa
:0401fc00ea04000011
:020000040000fa
:04020000ea0400000c
:020000040000fa
:04020400ea04000008
:020000040000fa
:04020800ea04000004
:020000040000fa
:04020c00ea04000000
:020000040000fa
:04021000ea040000fc
:020000040000fa
:04021400ea040000f8
:020000040000fa
:04021800ea040000f4
:020000040000fa
:04021c00ea040000f0
:020000040000fa
:040220006203000075
:020000040000fa
:04022400ea040000e8
:020000040000fa
:04022800ea040000e4
:020000040000fa
:04022c00ea040000e0
:020000040000fa
:04023000ea040000dc
:020000040000fa
:04023400ea040000d8
:020000040000fa
:04023800ea040000d4
:020000040000fa
:04023c00ea040000d0
:020000040000fa
:04024000ea040000cc
:020000040000fa
:04024400ea040000c8
:020000040000fa
:04024800ea040000c4
:020000040000fa
:04024c00ea040000c0
:020000040000fa
:04025000ea040000bc
:020000040000fa
:04025400ea040000b8
:020000040000fa
:04025800ea040000b4
:020000040000fa
:04025c00ea040000b0
:020000040000fa
:04026000ea040000ac
:020000040000fa
:04026400ea040000a8
:020000040000fa
:04026800ea040000a4
:020000040000fa
:04026c00ea040000a0
:020000040000fa
:04027000ea0400009c
:020000040000fa
:04027400ea04000098
:020000040000fa
:04027800ea04000094
:020000040000fa
:04027c00ea04000090
:020000040000fa
:04028000ea0400008c
:020000040000fa
:04028400ea04000088
:020000040000fa
:04028800ea04000084
:020000040000fa
:04028c00ea04000080
:020000040000fa
:04029000ea0400007c
:020000040000fa
:04029400ea04000078
:020000040000fa
:04029800ea04000074
:020000040000fa
:04029c00ea04000070
:020000040000fa
:0402a000ea0400006c
:020000040000fa
:0402a400ea04000068
:020000040000fa
:0402a800ea04000064
:020000040000fa
:0402ac00ea04000060
:020000040000fa
:0402b000ea0400005c
:020000040000fa
:0402b400ea04000058
:020000040000fa
:0402b800ea04000054
:020000040000fa
:0402bc00ea04000050
:020000040000fa
:0402c000ea0400004c
:020000040000fa
:0402c400ea04000048
:020000040000fa
:0402c800ea04000044
:020000040000fa
:0402cc00ea04000040
:020000040000fa
:0402d000ea0400003c
:020000040000fa
:0402d400ea04000038
:020000040000fa
:0402d800ea04000034
:020000040000fa
:0402dc00ea04000030
:020000040000fa
:0402e000ea0400002c
:020000040000fa
:0402e400ea04000028
:020000040000fa
:0402e800ea04000024
:020000040000fa
:0402ec00ea04000020
:020000040000fa
:0402f000ea0400001c
:020000040000fa
:0402f400ea04000018
:020000040000fa
:0402f800ea04000014
:020000040000fa
:0402fc00ea04000010
:020000040000fa
:04030000ea0400000b
:020000040000fa
:04030400ea04000007
:020000040000fa
:04030800ea04000003
:020000040000fa
:04030c00ea040000ff
:020000040000fa
:04031000ea040000fb
:020000040000fa
:04031400ea040000f7
:020000040000fa
:04031800ea040000f3
:020000040000fa
:04031c00e2040000f7
:020000040000fa
:04032000ea040000eb
:020000040000fa
:04032400ea040000e7
:020000040000fa
:04032800ea040000e3
:020000040000fa
:04032c00ea040000df
:020000040000fa
:04033000ea040000db
:020000040000fa
:04033400ea040000d7
:020000040000fa
:100400004f2f21000eff26000e0188000000000083
:10041000000020000000e000020032000001200087
:1004200020028800140007000d0207000000e00011
:1004300003003a006075220001002000020037002e
:100440000000200001002000810f70000100320038
:100450000f000700000020000000e0000200320052
:100460000000020000000000d22002000000000096
:100470000040da000000fe00400320000000e00021
:1004800002003200002020009001880000000600d9
:10049000a1028800800478000000eb001f003700f4
:1004a000e284440054a0b4009905ba00e2844400f8
:1004b00054a0b4009906ba00e284440054a0b400e9
:1004c0000006eb00476fde00fd07b200ae018800ba
:1004d000636ce10003003a000ad801000000eb0061
:1004e0000e003700606ce10008003a00004deb00a0
:1004f0000a05e800020039003420ec000af0a000f0
:100500008b05e900f9ff3e00040037006168e10057
:10051000010032000086eb000b00070019c7ba008b
:100520001905ba000e04e00003003a000a00e000da
:10053000dbff3a0000000600fe07b200ae028800b2
:100540008a047800f5ff37000cd0a300e20f4d00bd
:100550001c00390089027800354dba000a05e80010
:10056000020039003420ec000af0a0008b05e900fd
:100570000f003200254dba000a05e80002003900dc
:100580003420ec000af0a0008b05e90008003200de
:100590000c00e0000600320015cdba000a05e800a4
:1005a000020039003420ec000af0a0008b05e900bd
:1005b0008984e80054a0b4000b00e000e2ff3a0098
:1005c000000006009902ba00055d78008b05e9007d
:1005d000f7ff3200c82ade00055d78008b05e900d0
:1005e000f3ff32000c00e000f1ff320019ddba0029
:1005f000eeff3700e41f0400000000001e080400a6
:10060000000000004a0a040000000000000004008e
:10061000000000003200f8003400f800881f780065
:1006200018002000a80188000820200098018800f8
:100630004f0478000000fa00c028a900ffff37002f
:100640003200f8003400f800881f780018002000fd
:10065000a801880008202000980188004f04780035
:100660000000fa00c068a900ffff37003200f80060
:100670003400f800881f780018002000a8018800c6
:1006800008202000980188004f0478000000fa003c
:10069000c048a900ffff37003200f8003400f8001e
:1006a000881f780018002000a8018800082020007a
:1006b000980188004f0478000000fa00c088a90063
:1006c000ffff37000000fa000fc8a9000080fa0001
:1006d000004006003200f8003400f800881f78005f
:1006e00018002000a8018800082020009801880038
:1006f0004f0478000000fa000028a9000080fa00ea
:100700003400f9003200f900004006003600f8001d
:10071000809fbe00829fbe00849fbe00869fbe0059
:100720000000fa00d0618000708988006088800035
:10073000610060000000e000320032007060800064
:100740008000780060608000221b2100a413070055
:10075000d08d8000508e8800e08d8000608e8800f3
:1007600021112100a01c2100ad130700e21121007e
:100770006111210020112100871307001c0c0700c4
:10078000be0e0700ea0f070060888000620060006c
:100790000000e0000300320050898000408988009a
:1007a00002003700a08980004089880040898000cd
:1007b000611121002b130700e210210061112100bb
:1007c000a011210062130700411c2100e01021004c
:1007d0004b13070060898000021d21008000780013
:1007e000401c21006d120700a08e8000d01d8800e3
:1007f000908e8000201c8800808e8000701a8800f7
:1008000005003700ba23ef008423ef004e23ef00ea
:1008100010002000808988000e48a9000080fa009e
:100820004f03be004f02be004f01be004f00be008e
:100830003600f90000400600809fbe000000fa006c
:10084000e1958000d0958000808f500010003a0024
:10085000f195800000102000008060000000e000a2
:100860000b003a0000000000e111800000082000a9
:10087000008060000000e000fbff3200f095800087
:100880000090a000f09588002188a9001c00370086
:100890000188a90014003700e0958000104078001e
:1008a0000080fb0040128800e09580000000e80016
:1008b000e0958800e1958000802c2100808f500019
:1008c00002003a00002c2100e0958800f09580009d
:1008d0000080a100f0958800e1958000d09580000f
:1008e000808f500005003200f01180007000600021
:1008f0000000e000e8ff32000100370000000000c7
:100900000080fa004f00be0000400600809fbe003d
:100910000000fa0018003700b09580002112800016
:100920008140780001487800b09580000000e80020
:10093000b0958800b1958000002d2100808f500077
:1009400002003a00802c2100b0958800f0958000cc
:100950000010a100f0958800b1958000c09580003e
:10096000808f500004003a00f09580000000a00045
:10097000f095880004003700f011800062006000ec
:100980000000e000e4ff32000168a9000080fa00e6
:100990004f00be0000400600801f78000000fa00f3
:1009a000e0118000620060000000e0000100320001
:1009b0003c22a9000628a9000080fa004f00780018
:1009c000004006000000fa0017a8a9000080fa0005
:1009d000004006000040da000000fe000a00fa00b5
:1009e00011002000b1bf9f00c0bf9f006a80570068
:1009f000540707004fb897000080fa000000060077
:100a00000a00fa0051002000b1bf9f00c0bf9f0044
:100a10006a8057004d0707005fb897000080fa0012
:100a200000000600889fbe00800478009097800038
:100a30000000e00004003a000e0007000084eb0014
:100a40000000e00008003500989780000900e000f1
:100a50000500320009004400060007000000e00025
:100a600001003d000084eb00080078004f04be0048
:100a700000000600800078000100e00003003a005a
:100a80000000200090978800000005000080eb0027
:100a900002002000828f500002003e0091978800e3
:100aa0000000eb00000006000600fa00000f7800ce
:100ab000110798002207980000000000e111800053
:100ac00000082000008060000000e000fbff320012
:100ad0001e009000ae009000051007000080fa0094
:100ae0000000060000f0a7000000ea0000f0a700e8
:100af0000080ea00000006004f0ade008102780054
:100b000001f0a10003f823000118e10004003c00fb
:100b1000000028000400a600f0ff270000000600e7
:100b2000850078000200200003702400a606020061
:100b30000000000036060200000000000000060071
:100b4000800378000000eb001038e600000006008b
:100b5000889fbe008781cf00e28051000139dd000f
:100b6000000028008002510005027800c12add0043
:100b70000600240006a3b90005a4b90000002f0058
:100b80000981b900060341008783490005ccb900fb
:100b9000008020000981b9000603410087834900d5
:100ba00005ccb90000b02f000981b900060341004f
:100bb0008783490005ccb900003820000981b900bd
:100bc000060341008783490005ccb90000d62f00f9
:100bd0000981b900060341008783490005ccb900ab
:100be000002120000981b9000603410087834900e4
:100bf00005ccb90030e52f000981b900060341009a
:100c0000878349004f33de004138dd000003730065
:100c1000cfbbde000000280006034000e0834b004d
:100c20004109de00700011000233de000038dd00f3
:100c30000003730082bbde000100a3000500390041
:100c400024a8250004b0b9004f00de00c108dd0073
:100c500001037000060078004f04be00000006008b
:100c600000000500140020006c0037000001be00e9
:100c7000210007000470a70003f0a1006509b1007e
:100c8000160032000d0035006828e100060035002e
:100c9000f0ff2f00f1ff27000300e00013003b00ee
:100ca000010028000000050000004000818048008d
:100cb0008502e900fcff3a0008003700f88f420087
:100cc00002003c008000eb00000005008100d10024
:100cd0000080d3008502e800fcff3a000300e0003a
:100ce00002003b0060001000e080180000000600d9
:100cf0006011b80064003700c70ade00f107b200d7
:100d0000f50fb20008003200e1cf420002003200cd
:100d10000170a00024000500810f70000100320066
:100d20000408050044000500810f700002003a002d
:100d3000140005008502e9000000400081c0480061
:100d4000fcff3b000170a00024000500889fbe004e
:100d50008a9fbe008c1f7800a0000700a700330008
:100d600003866c006450e100240032006420e1003e
:100d7000270032006150e100220032006120e100d2
:100d8000210032008b854200eb07b1000134b8002e
:100d9000003ab8000804420089844a00013ab800c9
:100da0000030b8008880400009014a000400330088
:100db0000000400081804800020149008b05e900e5
:100dc000c909dd008301700001003200130020001a
:100dd000c814de004814dd004709de001200b2002e
:100de000c808de00088470005600070001f0a1006a
:100df0000cf0a70001f0a000890037006120e1009d
:100e00008b0032000801be000200be00f7ff370071
:100e10006150e100fcff3a0085003700889fbe006a
:100e20008a9fbe00841f78006c0007004f00780086
:100e300011003300f0ff2f00838f6c0006003b0091
:100e4000040565000a00a7000800370009f0a600a5
:100e50001000200008003700820f5400838f5c00d0
:100e6000030039001000200001003e0000002000b7
:100e700009f0a7000000ea004f05be004f04be00c5
:100e80000000e00000000600889fbe008a9fbe00b0
:100e9000008270000402710004827100260032009a
:100ea0000004be000200be006011b8006b09200003
:100eb000950220000182cf000a0039000541b100ef
:100ec0000082cf00070039000541b1000982cf0040
:100ed000040039000541b1000882cf00010039004b
:100ee0000541b10005425200120032000a003b00e9
:100ef00082817100610164008100d1000080d30013
:100f00008984d3000884d3008b05e8000442e800fc
:100f1000f7ff3a00070037000804440089844c00ba
:100f200000004800818048008b05e9000442e90088
:100f3000f9ff3a00030007004f05be004f04be0052
:100f40000000060081002000618055000b003d007c
:100f50000b00200061fe2f000100e1001d003400a5
:100f600082817100610164008904d1000884d3008a
:100f70000000e800faff3a00710020006100640000
:100f800003007000020060000900320061044400a8
:100f9000e0844c000988a500050032008b05e800bc
:100fa0006808e10002003a008904d1000884d300f7
:100fb000f20f20000258e10005003d00c75ddd0092
:100fc000f907b2008980750008007800000006006b
:100fd0000bf827008b007800000005000004be001d
:100fe00045ff07000003be000405be000200be006e
:100ff00041ff0700844f7500000006000200be009c
:101000006450e100050036006420e1000200360073
:101010000968a30001003a000800be000160a000ba
:101020004f0678004f05be004f04be0000000600ca
:10103000f0ff2f00f1ff2700f9ff3700889fbe0067
:1010400000047800010078008204780088017800ac
:1010500009017800110020000e000700890f5000e0
:10106000010032000004eb00080078004f04be00cd
:10107000000006000000fa00e88157004fb9970011
:1010800041232100e0812000580107000080fa0080
:1010900000000600889fbe008a9fbe008c9fbe0095
:1010a0008e1f7800000678000104780002007800a6
:1010b000830478000881b900020778000200e0008c
:1010c000420032000800e000410032008205780052
:1010d000c900900069009000808f50000400390022
:1010e00009007800500007000000e00029003500ea
:1010f00000402000190060000a0032000b01780057
:10110000a10020000c00780036000700800678005f
:101110000d00e00006003200610516000a85460059
:10112000040037000b0578008006eb000100370053
:101130000b05780049009000e90090008080500085
:101140008a8f500002003100010578008006eb0014
:101150000a0178008c0078002c0007008a85550071
:10116000490090000a004000c00498000d00e00013
:101170000400320009007800d60007000000e000fb
:1011800004003a000b00e000020032000a064600ac
:10119000cfff3700008020001900600002003200fd
:1011a00009007800cb00070000c020001900600093
:1011b0000200320049009000e00498008b055700bf
:1011c000050009008885d800010037000000eb0009
:1011d0004f0778004f06be004f05be004f04be000b
:1011e0000000060003003700b0cf100005003200f9
:1011f0000201e900800178000200e000faff3a00f5
:10120000000005000300780000000600800178005f
:1012100002003700b15978000201e9000200e00045
:10122000fcff3a0000000600889fbe008a1f78007d
:1012300000047800c8009000680190000000eb00f6
:10124000828f50003c0039001800780022002900ed
:1012500002016000e20f510007003200012024006b
:101260000000e00001003d0001202000008c700023
:101270000080eb0030003700020026000200600012
:10128000820f500009003a0038009000808f500013
:1012900006003900080078008e0007008000780002
:1012a0000080eb000100e00023003a001805780000
:1012b00000c020000000650018003a00a80490005b
:1012c0006002200008004000808f540013003a00a4
:1012d00000202000ee020700200498000000e0003b
:1012e00005003a0029049800490498008904e800a0
:1012f00039049800080037000a60a0000a0c780042
:1013000040049800012020008080400031049800b3
:10131000400c9800500c98000c000700280090002a
:1013200050049800380090006004980000002600e7
:10133000180c70000000eb004f0578004f04be0051
:1013400000000600a0a420009c003700881f780041
:10135000e82e21001804e00003003a00f9ff07001e
:1013600020c0b300004c78004f0478000000060055
:10137000889fbe0000047800080078005500070030
:101380008004780066800a00180000000000e00079
:101390000200320028009000580207000000eb0015
:1013a00020049800384090000004e000050035005b
:1013b0000000fb0089fd07000000e0000100320092
:1013c0008084eb00181090000000e000080032005c
:1013d0008bfd07000000e000010032008084eb007c
:1013e00018109000450207000000eb001014980050
:1013f0000008200018006000150032000001eb001a
:101400006000b800432821000202d00063027a0085
:10141000880f520005003a0000004000818048001b
:10142000008041000008eb0006003700610040002a
:10143000e08048000201e800e80f5000e08f58000b
:10144000f0ff3a00080078002c0207000e00370079
:10145000000c780000c0eb003044980060022000cf
:1014600008004000200498004004980050049800b0
:10147000400c980060049800500c9800700498008c
:1014800076004400000c9800090078004f04be006c
:1014900000000600881f78000004eb006140b800df
:1014a000e2ff2f00f3ff2f00cc04070022292100c8
:1014b000620078000000e00001003200acff07008d
:1014c0000804e800e80f5400f4ff3a004f047800e5
:1014d00000000600889fbe00000478000800e000bd
:1014e0000e003a008004eb008800d0004028210064
:1014f000610078000000e00004003200f5ff070002
:101500000000e00001003d008084eb000804e800da
:10151000e80f5400f4ff3a002500370000002200d5
:10152000180060008004eb0021003200a804900045
:101530000f00370009015100384090000000fb0007
:101540008900780058fd07000000e00007003c001b
:10155000280090004004980060049800500c980007
:101560001890a0008084eb001100370080844400b4
:1015700048019000828f5400eeff3900280090004f
:10158000400498009800780002c0200002816000aa
:1015900001003a003800900001e8a3000200320088
:1015a0006004980001003700500c98008004eb00a4
:1015b000090078004f04be00000006000100200072
:1015c0000100e00008003200010080000100e0009e
:1015d000050032008100e900010088008100d00090
:1015e0000200800000b17800000006006200fa00ee
:1015f000889fbe008a1f780000057800810478006b
:10160000020478008300780080f92f000f0040006a
:101610004a0407009a979f00a9979f000000eb00db
:10162000b09f9f001885fb008a04fb000a05ea00b2
:101630004f55de0050022000808f54000d00320014
:10164000e10f55000b003a000a017800880078008d
:101650002f9097009f91970003000100a0979f0093
:101660000000e0008e0032003f9897000000e80084
:10167000b09f9f000a04440050022000808f540055
:10168000040032000900e000e6ff3a003f989700ae
:10169000840037000000eb00909f9f00809f9f0018
:1016a000f0979f00e0979f00d0979f00c0979f0002
:1016b00007003700412e21000100500000004000cb
:1016c000812d210061007800df98970001007000f3
:1016d000d09f9f008804780009047800384578007e
:1016e0008a00fb00402e2100130207000000e000ea
:1016f000f0ff3a00a1c2b300814f55000e003a003e
:10170000cf8897000180e900c08f9f00100078000b
:10171000c09f9f000000e00005003d000000ea00bf
:10172000c09f9f005f9897000020a000d09f9f005f
:101730000904e8000f003700c09f9f000000eb0085
:1017400005003700f2ff2700820f50000200320030
:101750006a01b9000280400009047800880478001a
:10176000b900fb000103b100e98f5000f5ff36001e
:10177000c09f9f00e0c2b300984f100002003200eb
:101780000080eb0019003700a0c2b300d84f100052
:1017900007003a00cf8897000180e900c08f9f00c2
:1017a00010007800a09f9f000804e8001000370098
:1017b0000000eb00a09f9f00880078000500370024
:1017c000f3ff2700830f5000020032006a02b900c5
:1017d0000400410001047800880078003101fb001a
:1017e0000203b100e90f5100f5ff3600a09f9f00f2
:1017f000984478008900fb00002d2100ce010700ed
:101800000000e000020032000804e8000100370098
:101810008044eb00c97f9f0080c6b30080cf540096
:1018200004003a0098cf14000a003a0066405000c5
:1018300006003700c0c6b30080cf540005003a0050
:1018400098cf140003003a0065404000c07f9f001d
:101850000804e8001801fb00e3fb2f008f81410022
:1018600081f92f008f804000a0f92f000f00400069
:10187000100007000000e00009003a00e1fb2f0023
:101880008f804000a0f92f000f004000ef020700fa
:101890000000e000020035000804e80061ff3700a6
:1018a0000080eb004f0578004f04be000080fa0076
:1018b00000000600889fbe008a9fbe00e4c6b300f9
:1018c000844f5100be00320010003c006b425200b9
:1018d000844f51001800320005003c0054c2b30090
:1018e000844f5100f600320084c5b3000f0037006a
:1018f00044c6b300844f51001400320065424200d8
:10190000844f5100f1003a001000370004c7b300c3
:10191000844f5100dd003200560035006542420020
:10192000844f51005300320063424200844f510003
:10193000e6003a004f0037001181e9008208780084
:10194000f000900012417800de0037002062900025
:10195000c5c6b300854f520007003a0091027800d7
:1019600064825200840878001402be004fabde008f
:10197000860378001400370015c7b300854f520066
:1019800003003a0011047800680254000500370093
:10199000a5c6b300854f520006003a0091047800b6
:1019a00068825400840878005403be004402be00dc
:1019b000050037001182e9008408780014027800dd
:1019c000cfa2de00612bb9000498be000690be00d5
:1019d000a060900088c6b30088cf50000d00320090
:1019e00028c6b30088cf500004003a000402fb0070
:1019f000cfa2de00612bb9000800370048c7b30052
:101a000088cf5000030032006644440088cf500065
:101a100004003a00cfa2de00612bb9000498be009a
:101a20000690be003002be002003be00f000900011
:101a3000e00f5200e08f5a00e00f5b00e08f5b0088
:101a400002003d00d4c2b30008003700001290002d
:101a50000418a30002003200b4c2b3000300370030
:101a60000408a3005100320004c2b30084f17800de
:101a70004c00370020629000c5c6b300854f52006d
:101a800008003a00110578006402550084087800c7
:101a90001404be006055b8000802be000a03be0070
:101aa0001400370015c7b300854f520003003a00f9
:101ab000910478006882540005003700a5c6b30081
:101ac000854f520006003a00110578006802550063
:101ad000840878005403be004402be0005003700ad
:101ae0001182e90084087800140278008002eb007b
:101af0006033b8000498be000690be00a06090005d
:101b000088c6b30088cf50000d00320028c6b3004d
:101b100088cf500004003a000482fb008002eb00f2
:101b20006033b8000800370048c7b30088cf5000c2
:101b3000030032006644440088cf500004003a009d
:101b40008002eb006033b8000498be000690be002f
:101b5000801090000138a300140032003002be0053
:101b60002003be00e00f5200e08f5a00e00f5b0040
:101b7000e08f5b000d00320081c7b300814f510040
:101b80000300320081c5b300814f510007003a00c5
:101b9000f000900004c3b30084f178008100e800f5
:101ba00082f178008100e80071009800f000900058
:101bb0008181410063009800824078003e00370038
:101bc000a0619000c4c6b3001181e90084cf510028
:101bd000220032000a003c006442520084cf5100cf
:101be0002500320004c2e80084cf51001300320007
:101bf0006842520084cf51001e003a000a003700ac
:101c000044c7b30084cf51001b003200664242003b
:101c100084cf5100180032006942520084cf510035
:101c200014003a000500370082087800920078001e
:101c300040589000804878002c00370082087800d7
:101c400092007800600a9000cfa2de00612bb900fc
:101c50008498be008690be00240037008208780079
:101c60009200780060099000cf91de008288be006b
:101c70001e0037001181e900820878009200780088
:101c80006008900080087800180037001181e90092
:101c90008208780012027800cfa2de00612bb90022
:101ca0000498be000690be00f000900081814100c3
:101cb0006300980081c7b300b50007000b00370030
:101cc000f000900082f1780006003700f0009000ec
:101cd000818141000204e00001003a0052c2b300d9
:101ce000824978008100e800710098000000eb0054
:101cf0004f05be004f04be00000006000000e000db
:101d00002f003200c0017800e38f51002c00360014
:101d10000308a3002a003a00619780000100e00058
:101d200002003200810f50000400310011009800c1
:101d3000609788001600370082007800110190003b
:101d40000200e00002003200800f5100faff39006b
:101d50001102780084824000850f5000180039007d
:101d6000808f520003003a0083084200010078008f
:101d7000070037000200e00003003200830140004a
:101d8000830f51000e003900120098009000980057
:101d9000900090000100e0000900320010014000b6
:101da000828f500006003a00a22e21000009eb00ad
:101db0001001780011084100910090001100980076
:101dc00000000600889fbe00000478005197800044
:101dd0000100e00002003200010078000d00370031
:101de00061978000c02e210004003700910f54003d
:101df000250036000180e800910090000100e0001d
:101e0000faff3a0010003700920f54001e0036000f
:101e10000280e800100178000200e000faff3a00ba
:101e20001101780061978000c02e21000400370066
:101e3000910f5400140036000180e80091009000da
:101e4000828f5000faff3a0089978000888f5400f3
:101e50000100310088047800090078004200070082
:101e60000000e00004003a00888f540005003200b2
:101e70008904d100f5ff3700091878009fff07009b
:101e8000d2ff37000000eb004f04be000000060048
:101e9000881f7800630440000800a1008000eb0068
:101ea000800f540021003600e30f540001003e0073
:101eb0004800200008007800c2ff07008000eb0007
:101ec0000000e000190032009000780091017800d5
:101ed00064815100880f510003003100110190000e
:101ee00002087800070037000881400002087800e7
:101ef000910190001301980010017800110914005d
:101f000088087800100178000000eb000200e00073
:101f100004003200920190000300e0000100320052
:101f20000280e800509788008180e8000100780076
:101f30004f04780000000600020037000304e000b0
:101f4000060032000001780002007800b0417800fd
:101f500081cf5100f9ff3a00010037000001eb008a
:101f60000200780000000600800078000000eb000e
:101f70000100e0000500340001007800a9fa070024
:101f8000e10f400001003a000000eb0000000600f5
:101f9000fc874700889fbe008a9fbe008c9fbe00c2
:101fa0008e1f78000006780080c5b30080cf5000f7
:101fb0000a0032007740400080cf50000a00320013
:101fc0006940400080cf50000b003200502a2100b1
:101fd00080bf9f00ae0020000a0037004229210088
:101fe00082bf9f0006003700532a210083bf9f0055
:101ff0008e00200003003700542a210084bf9f0078
:102000000e0120003c02be002c03be000605be00ef
:102010000404be0040c6b30080cf5000030032006d
:102020006540400080cf50000b003a00e00f5200a6
:10203000e08f5a00e00f5b00e08f5b0006003d0080
:102040006000b8006011b800040450008584580096
:102050000605590087855900e80f57000400320033
:1020600040002000f00f570038003a000100370010
:1020700030002000e00f5400e08f5c00e00f5d00b6
:10208000e08f5d0004003a00dc0890008d01200024
:102090000100e000060032008e00e9008880600048
:1020a0008fba9700e5c07800f1ef9f007d01200016
:1020b000800078008100e900050033008b05d10025
:1020c0000a85d3008984d3000884d300f9ff370040
:1020d000089ebe000a96be00120037008d06e90079
:1020e0008e00e900848060000fb99700e2c178009b
:1020f00082fd2f000f01410003f17e008000780077
:102100008100e900050033008783d1000683d300f6
:102110008582d3000482d300f9ff3700049ebe00fd
:102120000696be003c02be002c03be00e00f52002b
:10213000e08f5a00e00f5b00e08f5b008b00340003
:102140000d00e000e5ff3c00880037002c609000a7
:1021500081c6b300814f50000b00320006003c00e6
:102160000004e00008003200e6c05000814f50003b
:102170004e003a0004003700c1c6b300814f500042
:102180004a003a00210037000800e00004003a004d
:102190005c0890008d0120000000e0000600320085
:1021a000050009000e84d8000fb99700e2c078003e
:1021b000f1ef9f007d012000050009000e84d8008a
:1021c0000a003700050009000e04d8008d06e9005a
:1021d0000e81b900020454008fb8970061417c0061
:1021e00081fd2f008f80400082f07e000004780087
:1021f0000800e000020032000d00e000f1ff3c00aa
:10220000cfc4de00614db90025003700e00f540057
:10221000e08f5c0004003a005c0890008d01200013
:102220000000e000070032006171b9000800be0044
:10223000670107008fb99700e3417800f3ef9f0033
:102240007d0120006171b9000800be005001070047
:102250000b0037006171b9000800be003d010700a6
:102260008d06e90000f1b900020454000fba97008e
:10227000e4427c0084fd2f000f02420005f27e0044
:102280000004be00e00f5000e08f58000200320052
:102290000d00e000efff3c004fcdde008a05780026
:1022a000089ebe000a96be0030003700e00f5400c2
:1022b000e08f5c00e00f5d00e08f5d0004003a00fd
:1022c0005c0890008d0120000000e0000900320051
:1022d0006172b900612bb9000800be000a01be009e
:1022e000e40107000fba970064427800f4ef9f0002
:1022f0007d0120006172b900612bb9000800be00a9
:102300000a01be00d40107000d0037006172b90058
:10231000612bb9000800be000a01be00d901070008
:102320008d06e90000f2b900040454008fba97004a
:1023300065427c0085fd2f008f82420084f27e0082
:10234000009ebe000296be003c04be002c05be00ee
:10235000e00f5400e08f5c00e00f5d00e08f5d0057
:10236000020034000d00e000e8ff3c00e80f5700d9
:1023700010003a000c1090000038a3000d0032004d
:10238000f78f560006003e0085fd2f008f82420029
:10239000e5c07e0000c3b30080cf500005003200ce
:1023a0008d06e90002c3b30081fd2f008f8040003d
:1023b00082f07e0078811600120e98006c0090006a
:1023c00083fd2f008f8141008d8041008ffb07002e
:1023d0001c089000dc089000810f500006003d00b2
:1023e00000805000000e98000c1090000040a100ea
:1023f000001698000f0037000100e0000d003d00be
:102400008c109000f4806000f08f500009003a00ba
:102410007c099000fc009000810051000c099000a4
:1024200082805000008050004240a900010034002a
:10243000000e98004f0778004f06be004f05be0003
:102440004f04be00cf01b100000006000400fa00f6
:10245000889fbe008a9fbe008c1f78000004780011
:1024600001067800f80d90007800900080855500f6
:102470000808900080855500180890008085550058
:102480002808900080855500380890008085550008
:1024900048089000808555000002220090bf9f00f0
:1024a00000032300a0bf9f00081090000028a30095
:1024b00015003a000b00e000130034000b05780013
:1024c0008a047800e20f5500010036002900200040
:1024d000c801900009017800ee8057005800900074
:1024e00003000100500498000000e0008c0032005e
:1024f0006808900009004000600c9800090555002c
:102500004240a900eeff3c00780190000200e0008c
:102510000c003400c80190008c0078005800900036
:1025200003000100500498008080eb000000e000f0
:102530007c003200e80890007800900000804000a5
:10254000600c9800880c90000900e0001100340035
:1025500009057800e28f5400010036002a002000af
:10256000c80190000a017800ec80570058009000e4
:1025700003000100500498000000e00068003200f1
:10258000680890000a004000600c98008a8454009b
:10259000edff3700180990000200e0000c00340045
:1025a000c8019000e800900058009000030001006e
:1025b000500498008080eb000000e00059003200d9
:1025c000e80890001808900000804000600c980017
:1025d000a80c90000900e000110034000905780003
:1025e000e28f5400010036002a002000c80190004c
:1025f0000a017800ec8057005800900003000100a9
:10260000500498000000e000450032006808900087
:102610000a004000600c98008a845400edff3700e7
:10262000380990000200e0000e003400e80090003d
:102630001808900080804000c80190005800900069
:1026400003000100500498008080eb000000e000cf
:1026500034003200e8089000380890000080400004
:10266000600c9800c80c90000900e00011003400d4
:1026700009057800e28f5400010036002a0020008e
:10268000c80190000a017800ec80570058009000c3
:1026900003000100500498000000e0002000320018
:1026a000680890000a004000600c98008a8454007a
:1026b000edff3700081090008000eb000028a30019
:1026c000180032000b00e000160034008b04780084
:1026d00009057800e28f5400010036002a0020002e
:1026e000c80190000a017800ee8057005800900061
:1026f00003000100500498000000e00008003200d0
:10270000680890000a004000600c98008a84540019
:102710004240a900eeff3c008000eb0001003700c2
:102720008080eb00010078004f0678004f05be0066
:102730004f04be000080fa00000006000108780087
:102740000000060000c0da000000060000c0da0049
:1027500000000600839f68000100e00002003d00c9
:1027600060001000e08018000300e00002003d005f
:1027700060011100e0811900050007004f00e00032
:1027800002003b0060001000e0801800000006001e
:102790006022b800060220000000d0008180d20034
:1027a0000482d2008582d2000000a0000202520002
:1027b00083825a00030031000202420083824a00f1
:1027c0000000a1000603e900f3ff3a000000060044
:1027d000efff07000400be0000000600020ab90077
:1027e000001bb9000200b8008100420081004300d4
:1027f00000000600889fbe008a9fbe003004420091
:10280000b0844a0030054b0090854b006000b10059
:102810000898be000a90be000440e10005c8e1002f
:1028200006d0e10007d8e100020031006800400056
:102830001008e8004f05be004f04be00000006006f
:10284000889fbe008a9fbe003004be002005be00e7
:102850000418540005985c0006185d0007985d0098
:10286000110020000440e10005c8e10006d0e100ad
:1028700007d8e100010039008000eb00108810004b
:102880004f05be004f04be00000006001200fa0013
:10289000889fbe008a9fbe008c9fbe00e0b79f004d
:1028a000f1b79f0082bf9f0093bf9f000605be0047
:1028b0000404be000000eb00d0b79f00c0b79f002b
:1028c000b0b79f00a0b79f0090b79f000006eb0035
:1028d0005fb19700cfb09700820141003fb09700f1
:1028e0000200e00004003d00370007007e80570032
:1028f000c0ff070003003700330007007e80570049
:10290000cfff0700dfb697000d00e0000c00350098
:102910006fb29700ffb297000fbb97009fbb970065
:1029200010002000010020006011b80000027200b9
:102930008182720002037300838373001b0007000f
:102940000c06e80001042000810f5600e0ff3a0069
:102950000d00e00004003d000802be000a03be00b6
:102960007e805700a3ff07005fa897000000e000eb
:1029700005003a001fb29700afb297003fb397002f
:10298000cfb39700090007006fb09700ffb0970022
:102990000fb997009fb997004f06be004f05be00c4
:1029a0004f04be000080fa0000000600010007008e
:1029b00000000600a4b79f00b5b79f00c6b79f00f0
:1029c000d7b79f00000006004f09de00828171002a
:1029d000b3b79f004f01de0081804000828070000d
:1029e000a1b79f008fb097004f09de0000004000a4
:1029f0000200700090b79f007fa897004f01de0093
:102a0000818040008280700081b79f000d00070028
:102a10004f3ade000000400004007000f0af9f005d
:102a2000080007000402420085824a0006034b00aa
:102a300087834b00dfff07000802be000a03be00c9
:102a4000000006002fb29700bfb297004fb3970067
:102a5000dfb3970000000600881f780018002000f0
:102a6000881f780089ff07008f87e9004f047800ee
:102a700000000600801feb0084ff07008f87e9003d
:102a800000000600889fbe008a9fbe00e00f500035
:102a9000e08f5800e00f5900e08f59000c003d0016
:102aa0006044b8006055b8000000540081805c00ac
:102ab00002015d0083815d00180020001500070001
:102ac00008003d00180007000004eb000500370077
:102ad0000004eb000f00070002003d001200070099
:102ae00018002000dcff07000800e00006003200ac
:102af0006022b8006033b8000000520081805a00a4
:102b000002015b0083815b004f05be004f04be00e5
:102b100000000600e00f5200e08f5a00e00f5b005b
:102b2000e08f5b00000006006044b8006055b8000c
:102b30000402540085825c0006035d0087835d000b
:102b400000000600889fbe008a9fbe008c1f780090
:102b5000e00f5000e08f5800e00f5900e08f59005f
:102b60000d003d006044b8006055b80000005400fe
:102b700081805c0002015d0083815d001c002000fb
:102b80000820e10009a8e1000ab0e1000bb8e1006b
:102b90000d003d00080037000006eb00e00f52007a
:102ba000e08f5a00e00f5b00e08f5b0006003d0005
:102bb0006044b8006055b8000402540085825c008f
:102bc00006035d0087835d00aaff07000c00e0009c
:102bd000060032006022b8006033b80000005200e6
:102be00081805a0002015b0083815b004f06780000
:0c2bf0004f05be004f04be0000000600b0
:020000040000fa
:102bfc0000000000480600008c0c0000c812000009
:102c0c00f91800001a1f0000282500001f2b0000d7
:102c1c00fc300000ba360000563c0000ce410000eb
:102c2c001d470000404c000033510000f5550000da
:102c3c00825a0000d75e0000f2620000cf660000ee
:102c4c006d6a0000ca6d0000e2700000b5730000f0
:102c5c0041760000847800007d7a0000297c000019
:102c6c008a7d00009d7e0000627f0000d87f0000fe
:102c7c00ff7f0000d87f0000627f00009d7e000077
:102c8c008a7d0000297c00007d7a00008478000099
:102c9c0041760000b5730000e2700000ca6d0000c0
:102cac006d6a0000cf660000f2620000d75e000083
:102cbc00825a0000f555000033510000404c0000d2
:102ccc001d470000ce410000563c0000ba36000003
:102cdc00fc3000001f2b0000282500001a1f0000ec
:102cec00f9180000c81200008c0c00004806000007
:102cfc0000000000b8f9000074f3000038ed00008b
:102d0c0007e70000e6e00000d8da0000e1d400009c
:102d1c0004cf000046c90000aac3000032be000068
:102d2c00e3b80000c0b30000cdae00000baa000059
:102d3c007ea5000029a100000e9d00003199000025
:102d4c0093950000369200001e8f00004b8c000003
:102d5c00bf8900007c87000083850000d7830000ba
:102d6c0076820000638100009e80000028800000b5
:102d7c0001800000288000009e800000638100001c
:102d8c0076820000d7830000838500007c870000da
:102d9c00bf8900004b8c00001e8f00003692000093
:102dac0093950000319900000e9d000029a10000b0
:102dbc007ea500000baa0000cdae0000c0b3000041
:102dcc00e3b8000032be0000aac3000046c90000f0
:102ddc0004cf0000e1d40000d8da0000e6e00000e7
:102dec0007e7000038ed000074f30000b8f90000ac
:020000040000fa
:102dfc0046720000616d0000653a00002030000052
:102e0c0078250000580a0000004f000043500000d5
:102e1c003a20000030780000255800000a0000001d
:102e2c004f660000667300006574000020410000ce
:102e3c003a20000025640000094f0000666600007f
:102e4c007365000074200000423a00002025000049
:082e5c00640a00000000000000
:020000040000fa
:102e64000000fa001100200050210a00860f000023
:102e7400110e2000b0210a00880f0000510020002c
:102e840064210a008a0f00001100200020210a009a
:102e94008a0f00001200200080072000a1092000f2
:102ea40053f82000804978008149780082497800ed
:102eb400207c8000000178000200a0006004200053
:102ec4007105200043f8200080497800814978008a
:102ed4008249780000000000207c800061006000ce
:102ee4000000e000fcff3a000080fa000000060049
:102ef4000000fa000000eb0051052000b1468800f4
:102f0400a10a2000b1468800006888001100200052
:102f140050210a00a40d000050c4b3002cedb700ea
:102f24005100200050210a00a60d0000610020007d
:102f3400d8210a00a60d00000080200051052000c1
:102f4400b1468800a10a2000b146880000688800c4
:102f54006b0607000080fa00000006000000fa007b
:102f64000023ef008000eb0010210a0000030000a2
:102f74000623ef000823ef003019210050188800c1
:102f84000223ef000423ef000c23ef000e23ef00d5
:102f94001023ef001223ef001423ef001623ef0099
:102fa4001823ef001a23ef001c23ef001e23ef0069
:102fb4002023ef002223ef002423ef002623ef0039
:102fc4002823ef001700070082000700ed00070028
:102fd4000a0007000868a9002868a90071002000f9
:102fe400ec210a006008000097e3a80061e3a80050
:102ff4002be3a8000080fa00000006000000fa009d
:103004004c010700908c2000d01d8800908c20007b
:10301400201c8800908c2000701a88000080fa0020
:10302400000006000000fa002a23ef002be3a900a9
:103034001100200043210a002a030000410020005f
:1030440020210a002a0300008000eb00a8210a00c6
:103054002a0300002c23ef002de3a9002dc3a800b0
:103064002da3a8002d63a8008000eb00a8210a006e
:103074002c0300002cc3a9008000eb0030210a00bf
:103084002c0300002e23ef003023ef0031e3a900ce
:1030940031c3a90031a3a9003183a9008000eb004a
:1030a400ba210a00300300008000eb0098210a00d6
:1030b400300300008000eb0076210a00300300009a
:1030c4008000eb0054210a00300300008000eb0074
:1030d40032210a00300300008000eb0010210a00b6
:1030e400300300003223ef008000eb00ec210a00e3
:1030f400320300003303a9008000eb0054210a00ce
:10310400320300003263a8003243a8003223a9002e
:103114003203a9003423ef008000eb00fb210a00f6
:10312400340300003543a9003523a9003503a80062
:103134001100200043210a00340300008000eb004a
:1031440020210a00340300003623ef0037e3a900ee
:1031540037c3a90037a3a9003783a9008000eb0077
:1031640098210a003603000036e3a90036c3a900fb
:1031740036a3a9008000eb0040210a0036030000ba
:103184003c23ef003e23ef004023ef004223ef00f7
:103194004423ef004623ef004823ef004a23ef00c7
:1031a4004c23ef004e23ef005023ef005223ef0097
:1031b400400b2000d01a8800400b2000e01a880041
:1031c4005423ef005623ef005823ef000080fa0049
:1031d400000006000000fa006023ef0061e3a9008c
:1031e4001100200043210a00600300004100200078
:1031f40020210a00600300008000eb00a8210a00df
:10320400600300006223ef0063e3a90063c3a80026
:1032140063a3a8006363a90021002000a8210a0079
:103224006203000062c3a9001100200030210a00db
:10323400620300006423ef006623ef0067e3a90044
:1032440067c3a90067a3a9006783a9008000eb00f6
:10325400ba210a00660300008000eb0098210a00ee
:10326400660300008000eb0076210a00660300007c
:103274008000eb0054210a00660300008000eb008c
:1032840032210a00660300008000eb0010210a00ce
:10329400660300006823ef008000eb00ec210a00c5
:1032a400680300006903a9008000eb0054210a00b0
:1032b400680300006863a8006843a8006823a900a5
:1032c4006803a9006a23ef008000eb00fb210a00d9
:1032d4006a0300006b43a9006b23a9006b03a900d8
:1032e4008000eb0043210a006a0300008000eb0029
:1032f40020210a006a0300006c23ef006de3a9009b
:103304006dc3a9006da3a9006d83a900310020003d
:1033140098210a006c0300006ce3a9006cc3a900a7
:103324006ca3a9008000eb0040210a006c0300009c
:103334007223ef007423ef007623ef007823ef006d
:103344007a23ef007c23ef007e23ef008023ef003d
:103354008223ef008423ef008623ef008823ef000d
:10336400400b2000801c8800400b2000901c88002b
:103374008a23ef008c23ef008e23ef000080fa00f5
:10338400000006000000fa009623ef0097e3a9006e
:103394001100200043210a00960300004100200090
:1033a40020210a00960300008000eb00a8210a00f7
:1033b400960300009823ef0099e3a90099c3a8009d
:1033c40099a3a8009963a90021002000a8210a005c
:1033d4009803000098c3a9001100200030210a00be
:1033e400980300009a23ef009c23ef009de3a900bb
:1033f4009dc3a9009da3a9009d83a9008000eb00a3
:10340400ba210a009c0300008000eb0098210a0006
:103414009c0300008000eb0076210a009c0300005e
:103424008000eb0054210a009c0300008000eb00a4
:1034340032210a009c0300008000eb0010210a00e6
:103444009c0300009e23ef008000eb00ec210a00a7
:103454009e0300009f03a9008000eb0054210a0092
:103464009e0300009e63a8009e43a8009e23a9001b
:103474009e03a900a023ef008000eb00fb210a00bb
:10348400a0030000a143a900a123a900a103a9004e
:103494008000eb0043210a00a00300008000eb0041
:1034a40020210a00a0030000a223ef00a3e3a90047
:1034b400a3c3a900a3a3a900a383a90031002000ea
:1034c40098210a00a2030000a2e3a900a2c3a90054
:1034d400a2a3a9008000eb0040210a00a20300007f
:1034e400a823ef00aa23ef00ac23ef00ae23ef00e4
:1034f400b023ef00b223ef00b423ef00b623ef00b4
:10350400b823ef00ba23ef00bc23ef00be23ef0083
:10351400400b2000301e8800400b2000401e880015
:10352400c023ef00c223ef00c423ef000080fa00a1
:10353400000006000000fa008000eb00ba210a0037
:103544009c0300008000eb00ba210a00660300001f
:103554008000eb00ba210a00300300009da3a800fc
:1035640067a3a80031a3a8009d83a8006783a800cf
:103574003183a8000080fa00000006000000fa0071
:103584008000eb00ba210a009c0300008000eb00dd
:10359400ba210a00660300008000eb00ba210a0089
:1035a400300300009da3a90067a3a90031a3a900cb
:1035b4009d83a9006783a9003183a9000080fa00d4
:1035c400000006000000fa00002bef0001eba90048
:1035d40001aba900022bef002100200065210a00a5
:1035e400020b000002eba800042bef008000eb00ac
:1035f40060210a00040b0000058ba900062bef00d4
:10360400f100200090210a00060b0000082bef00b7
:103614008000eb00fd210a00080b00000a2bef00dc
:103624000a0ba9000a2ba9000aeba9008000eb00f1
:10363400fe210a000a0b00008000eb00d8210a00da
:103644000a0b00000c2bef000c0ba9000c2ba9009b
:103654000e2bef008000eb0010210a000e0b00007f
:103664008000eb0032210a000e0b0000d42bef0087
:103674008100200090210a00d40b0000d62bef001b
:103684008000eb0060210a00d60b0000210020001e
:1036940098210a00d60b0000d82bef0081002000ef
:1036a40090210a00d80b0000da2bef008000eb0019
:1036b40060210a00da0b00002100200098210a0092
:1036c400da0b0000102bef00100ba800104ba80021
:1036d400142bef0015cba800202bef00222bef00ba
:1036e400302bef00322bef00f02bef00f22bef002a
:1036f400f82bef00fa2bef00022cef0002eca900ec
:10370400f1002000b8210a00020c000001eba8001f
:10371400002cef00000ca8000000000001608000f5
:1037240000102000008060000000e000fbff320079
:103734000a0ba800002ca800000000000160800013
:1037440000202000008060000000e000fbff320049
:103754000a2ba80000eca800000000000160800013
:1037640000002800008060000000e000fbff320041
:103774000aeba80022eba8000e48a9007100200063
:10378400a8210a00780800002e48a900200ba900ef
:103794000b68a90071002000ec210a006c080000ed
:1037a4002b68a900202ba9000b88a9007100200018
:1037b40020210a006e0800002b88a9004100200087
:1037c40040210a00800b000041002000c8210a00ab
:1037d400800b000041002000c8210a00960b000065
:1037e40010c0b3000080fa00000006003200fa00a6
:1037f400889fbe008a9fbe008c9fbe00608a8000a6
:1038040067005000670f6000008b8000b4f407006d
:1038140080007800300d2300808f500041003c0070
:10382400928880009e0078007f80400080004000e5
:103834002013210000804000100078000000510097
:10384400008a8800018a8000608b8000808f50008d
:1038540002003400608b8000008a8800018a8000a6
:10386400608b80000000ea00808f500003003d0060
:10387400608b80000000ea00008a8800018a8000d2
:10388400a08c80000180b9004609dd004a04de00f6
:1038940008047100ca8cde0008007800708a880071
:1038a400a2888000730220001e8041008000400036
:1038b4002013210000804000100078000000510017
:1038c400108a8800118a8000608b8000808f5000ed
:1038d40002003400608b8000108a8800118a800006
:1038e400608b80000000ea00808f500003003d00e0
:1038f400608b80000000ea00108a8800118a800032
:10390400a08c80000180b900460add004a06de0072
:103914000c067200ca8ede000c007800808a8800d3
:103924004200370092888000608a80007f00400057
:103934008000400020132100008040001000780027
:1039440000005100008a8800018a8000708b80008a
:10395400808f500002003400708b8000008a880041
:10396400018a8000708b80000000ea00808f500084
:1039740003003d00708b80000000ea00008a88008c
:10398400018a8000a08c80000180b9004909dd0013
:103994004705de000a057100c78dde000a007800c5
:1039a400708a8800a2888000608a80007002b0005b
:1039b40080004000201321000080400010007800a7
:1039c40000005100108a8800118a8000708b8000ea
:1039d400808f500002003400708b8000108a8800b1
:1039e400118a8000708b80000000ea00808f5000f4
:1039f40003003d00708b80000000ea00108a8800fc
:103a0400118a8000a08c80000180b900490add0081
:103a1400c701de0083017200330798004789de0086
:103a2400420798003e009000808a8800608a8000e7
:103a34000000e80067006000608a8800608a8000f7
:103a4400928880007f004000800040002013210005
:103a54000080400002087800608a8000a28880000c
:103a64007002b0008000400020132100008040005c
:103a7400020878007288800091888000908c800011
:103a84000180b900420add00ce01de00830172002c
:103a940053079800ce89de00630798005e0090000b
:103aa40080005100708a80000080500000888800e7
:103ab40082888000a1888000908c80000180b900f9
:103ac400c209dd004e02de00048271007407980012
:103ad4004e8ade00040f98007e00900080005100a2
:103ae400808a80000080500010888800a1898000ae
:103af400808c80000080400081102100580607005f
:103b0400421021008110210000102100a1060700ad
:103b140021888000908a800000805000cf80de00e1
:103b24001007980021079800a28a8000b38a8000b9
:103b3400f18a80001e0090000180b900020040005c
:103b440083804800a08a8800b18a8800a08a800007
:103b5400b18a8000c109dd004f01de0002817100dd
:103b6400120f98004f8ade00240f98001e08900060
:103b7400908a880031888000c08a800000805000cc
:103b8400cf80de001007980021079800d28a8000b9
:103b9400e38a8000f18a80001e0090000180b90051
:103ba4000200400083804800d08a8800e18a8800af
:103bb400d08a8000e18a8000c109dd004f01de0067
:103bc40002817100320f98004f8ade00440f980082
:103bd4003e089000c08a8800008b8000c0f3070074
:103be400214e2000810f500027003400c08a80003d
:103bf4000000e00012003400c18a8000908a800036
:103c040000805000cf80de00100798002107980044
:103c14009e009000c08c80000180b900c109dd00c5
:103c24004f01de0002817100520f98004f8ade00be
:103c3400640f98005e089000d0898800380037002f
:103c4400c18a8000908a800000804000cf80de001e
:103c540010079800210798009e009000c08c8000f7
:103c64000180b900c109dd004f01de00028171004d
:103c7400720f98004f8ade00041798007e089000a7
:103c8400d089880026003700008b80000000e00007
:103c940012003400c18a8000908a800000805000a5
:103ca400cf80de0010079800210798009e00900046
:103cb400c08c80000180b900c109dd004f01de0025
:103cc40002817100121798004f8ade0024179800b1
:103cd4001e109000d089880011003700c18a80002e
:103ce400908a800000804000cf80de00100798009a
:103cf400210798009e009000c08c80000180b900cc
:103d0400c109dd004f01de00028171003217980005
:103d14004f8ade00441798003e109000d089880036
:103d2400d089800000004000d0898800b2898000da
:103d3400c389800091898000d08980000180b90006
:103d44000200400083804800b0898800c18988004f
:103d5400b0898000c1898000c109dd004f01de0007
:103d640002817100521798004f8ade006417980090
:103d74005e109000a0898800d1898000008b8000ab
:103d840000805000cf80de001007980021079800c3
:103d9400228b8000338b8000118b80001e009000ea
:103da4000180b9000200400083804800208b880015
:103db400318b8800208b8000318b8000c109dd00ad
:103dc4004f01de0002817100721798004f8ade00f5
:103dd400041f98007e109000008b88004f06be00e0
:103de4004f05be004f04be000080fa00000006002c
:103df4000000fa00405b2000b08c8800b08c80008a
:103e0400a08c8800e02b2300908c880040f12100d6
:103e1400d08c8800d08c8000c08c88006000b800f2
:103e2400b0898800c18988000000eb00d08988002f
:103e34000000eb00608a88006000b800a08a880057
:103e4400b18a88006000b800d08a8800e18a8800be
:103e540040442000708b880010112100608b880082
:103e6400004b2000f08a8800c02e2000108b8800b0
:103e7400e06f20009089880000002200808c880078
:103e84000080fa00000006000000fa00ac22ef00f7
:103e9400ade2a900ad82a90011002000ba210a00f8
:103ea400ac020000ad02a800ace2a900acc2a900bb
:103eb400aca2a800ac82a800ac62a800ae22ef00bd
:103ec400b022ef000fc8a9002fc8a800570ea90000
:103ed400ade2a80000dd2d0061002000ec05070024
:103ee4000080fa00000006000200fa00000f7800cb
:103ef40000f9250011002000e50507005b0ea9006c
:103f040080fc2a0001002000e105070000000000f9
:103f1400a0158000620060000000e000fcff3a0091
:103f24009e007800c115880000000000a0158000e4
:103f3400610060000000e000fcff3a0080fc2a0001
:103f440001002000d20507005b0ea80000f925003f
:103f540011002000ce050700c01580000080fa0083
:103f6400000006000200fa0010b12100000f7800e2
:103f74009e1f7800e06f2900801f78003cf4070042
:103f8400e48757001e007800d7ff07000080fa007e
:103f9400000006000200fa0010712200000f7800f1
:103fa4009e1f7800e06f2900801f780030f407001e
:103fb400e48757001e007800cbff07000080fa005a
:103fc400000006000200fa0000802a00000f7800ba
:103fd4009e1f7800e06f2900801f780024f40700fa
:103fe400e48757001e007800bfff07000080fa0036
:103ff400000006000200fa00000f78001e0078009e
:10400400e20f500036003200e20f500005003e007f
:104014000000e00008003200e10f50001b003200f5
:104024005c003700e30f500042003200e40f500000
:10403400550032005700370001e1a9002028a900eb
:104044000028a9004100200064210a004008000063
:104054000421ef00a0052000400888002100200072
:1040640098210a00000100000021a8000041a900d5
:104074008000eb0054210a000001000001e1a800c7
:104084002028a80010c0b3004300370001e1a900b4
:104094002028a9000028a9004100200064210a006a
:1040a400400800000421ef00400b20004008880075
:1040b4002100200098210a00000100000021a8002e
:1040c4000041a9008000eb0054210a000001000017
:1040d40001e1a8002028a80010c0b3002e0037007a
:1040e40001e1a9002028a9000028a900410020001e
:1040f40064210a00400800000421ef00803e2000f3
:10410400400888003100200098210a0000010000c6
:104114000021a8000041a9001100200054210a0038
:104124000001000001e1a8002028a80010c0b3008d
:104134001900370001e1a9002028a9000028a900de
:104144004100200064210a00400800000421ef001f
:1041540020a12700400888003100200098210a008f
:10416400000100000021a8000041a9003100200046
:1041740054210a000001000001e1a8002028a80041
:1041840010c0b300040037002028a90010c0b300f9
:10419400010037000040eb000080fa000000060038
:1041a4000000fa0072cea90076cea9000c11a90075
:1041b4002bfb07004efb070068fb070001fd07000f
:1041c40031ff070076cea80000a82400d1552000b6
:1041d4002f05070063ff07006eff070040fe210064
:1041e400801f7800b0702900801f7800a0f30700ba
:1041f400e487570040fe2100801f7800b07029003a
:10420400801f78009af30700e487570000a8240071
:10421400d15520001e05070076cea900811b210080
:10422400401b210078010700c18d8000a08d800013
:10423400811f7800801f780060712900801f78003a
:104244008bf30700e687570044e0a9002301070029
:10425400cafc07000c11a80060888000620060009e
:104264000000e0000200320076cea800faff37001a
:1042740076cea900f8ff37000200fa00889fbe003e
:1042840060888000620060000000e0002b003200c3
:1042940060888000640060000000e0000a003200d2
:1042a4000c51a9000000eb00008d88000000eb0019
:1042b400f08c88000000eb00608d88006000b8007e
:1042c400408d8800518d88002039210061eb230046
:1042d40008f20700e08c8800e08c8000008d8800e4
:1042e40000898000308f8800008d8000208f880036
:1042f400318f8000208f800023122100621d210055
:104304003004070010898000e0888800f08880006d
:10431400c08f8800f08c8000b08f8800c18f80002f
:10432400b08f800043122100821e21002504070063
:1043340020898000d08888008f0037006088800042
:10434400680060000000e00015003200d0618000c9
:10435400e11b2100c0040700008e80008138210089
:104364000100b8004109dd004f00de0000007100cb
:10437400cf08de0080007800400d2300008040005c
:10438400108e8800118e8000309c2000808f500099
:1043940017003c00409c2000108e88001400370059
:1043a400d0618000e11b2100ab040700008e800077
:1043b400017122000100b8004109dd004f00de0058
:1043c40000007100cf08de0080007800409c2000cf
:1043d40000804000108e8800118e8000309c2000e8
:1043e400808f500002003c00409c2000108e88000a
:1043f400308d8000e20f500004003c00308d8000be
:104404000000e800308d88001b003700e18c80003c
:10441400108e800000805000208d8800208d800048
:104424000000e00005003d00e18c8000108d80005c
:1044340000804000e08c880004003700e18c80009c
:10444400108d800000805000e08c8800208d80005a
:10445400a3f1070080007800108d80000000400068
:10446400808f500002003d00108e8000e08c880098
:104474000000eb00308d88006088800064006000dc
:104484000000e000090032000c51a900008d8000fa
:104494006101b9004d18dd00c310de008100700019
:1044a4004d10dd00d08f8800e18f8800008b8000e4
:1044b40050908800e08c80004090880051908000eb
:1044c4004090800063122100a21f2100bd03070059
:1044d40030898000008d8800f0888000c08f8800bb
:1044e400f08c8000b08f8800c18f8000b08f800076
:1044f40043122100821e2100b2030700208980009c
:10450400d088880021898000208980000180b9003a
:104514004109dd004f04de0008047100cf8cde0089
:1045240008007800000f780080142e00a1f7230003
:1045340070f107009e00780001005000000f780021
:104544001e0078007df10700008f8800008980003c
:10455400308f8800008d8000208f8800318f80008c
:10456400208f800023122100621d21009503070083
:1045740010898000e08888004f04be000080fa00a3
:10458400000006000000fa000000200001f02300f3
:1045940058f10700f08d88000000200001f023008e
:1045a40054f10700908d88000000200001f02300e2
:1045b40050f10700b08d880020882a00b17f2300c5
:1045c4004cf10700108d880030002000108d880009
:1045d4003019210060898800a0702d0031ca2300a1
:1045e40044f10700608f8800f026210031a82300e1
:1045f40040f10700708f880070e72b00f1f723006b
:104604003cf10700808f8800f0ff2700908f88001e
:10461400908f80000000ea00a08f88006000b8003e
:10462400408f8800518f88002431ef00a0702d0046
:1046340031ca23002ff10700d08e8800f026210014
:1046440031a823002bf10700e08e880070e72b00cf
:10465400f1f7230027f10700f08e8800f0ff270010
:10466400008f8800008f80000000ea00108f88000f
:104674006000b800b08e8800c18e88002231ef003f
:104684000000200001f023001af10700f08f8800d9
:10469400a0702d0031ba230016f1070000908800a5
:1046a40070e72b00f1f7230012f107001090880047
:1046b4000000250020908800209080000000ea007f
:1046c400309088006000b800d08f8800e18f8800a7
:1046d4002631ef000080fa00000006000000fa0016
:1046e4002e48a900ba23ef008423ef004e23ef00e5
:1046f40090fb07000c11a9000000eb00e08c88007f
:104704000c31a8000c71a9000c51a8009dff0700f2
:10471400b7fd07000e48a900d061800070898800a9
:104724002e48a8000080fa00000006000000fa00ed
:10473400881f780060888000620060000000e0004c
:1047440028003200618d8000f0f92000808f500035
:1047540004003e00608d80000000e800608d880049
:1047640015003700408d8000518d80005ff10700f7
:1047740018c0b300928828008380240038f1070011
:104784000000e000010035000044eb000804e000f4
:1047940007003200408d8000518d80006a00400087
:1047a400e0804800408d8800518d88000200370069
:1047b4000c51a8000c31a900408d8000518d80005f
:1047c4004609dd004a00de0000007100ca08de0070
:1047d4008000780050898000008040005089880063
:1047e40006003700808c80000000e00003003400e5
:1047f400808c80000000e900808c88004f047800e1
:104804000080fa00000006000e00fa00500798002d
:10481400610798006000b800008fbe006000b80017
:1048240020079800310798000000eb00400798002b
:104834000e48a900d0618000708988002e48a80025
:104844000000eb0040079800140037003031ef00ff
:104854000000000080898000e10f5000fdff3a0055
:10486400606080008000eb001e0f40005e974800ef
:10487400706080008000eb002e039000be03900067
:104884000600400087804800200798003107980000
:104894004e0090000000e80040079800ce00900011
:1048a400f0072000808f5000e8ff36001e00be0095
:1048b4004909dd004702de0004027100c78ade00f8
:1048c400840078005e009000010878002e009000bb
:1048d400be009000490add004701de0002017200bb
:1048e400c789de00820078006e009000010878001d
:1048f4003031ef002e48a9000080fa0000000600c5
:104904000000fa0000082000c01188003a22ef00dd
:104914003c22ef0020022000f0118800200c20002f
:10492400001288004222ef004c22ef004e22ef00da
:104934005022ef005222ef005422ef005622ef00e3
:104944005822ef005a22ef005c22ef002168a800f1
:1049540049010700002c2100e0958800002c21006b
:10496400d0958800802c2100c0958800802c2100df
:10497400b0958800f09580000010a000f0958800a4
:10498400f09580000090a000f0958800f0958000dc
:104994000080a100f0958800f09580000000a1003f
:1049a400f09588000080fa00000006000200fa007a
:1049b4000040eb00004f7800c0958000104f780055
:1049c400c09580000000e800c0958800c195800073
:1049d400002d2100808f500002003a00802c21001d
:1049e400c0958800c1958000b0958000808f5000ec
:1049f40003003a00f09580000010a000f0958800b4
:104a0400f09580000000a100f09588001e40780019
:104a14000080fa00000006000600fa00881f7800f3
:104a240010079800210798000000eb00000f7800a1
:104a340009003700f0958000620060000000e0008b
:104a44000a003a001e0090001e044000d7ff070031
:104a5400004c78001e0fe8002e0090009e007800a5
:104a6400808f5000f3ff3900010037000000000080
:104a74001e0078004f0478000080fa000000060051
:104a84000200fa00004f78002188a900d095800028
:104a94001e487800d09580000000e800d09588007a
:104aa400d1958000802c2100808f500002003a00b4
:104ab400002c2100d0958800f09580000090a10082
:104ac400f0958800e1958000d0958000808f50009b
:104ad40003003a00f09580000080a000f095880063
:104ae4002188a8000080fa00000006000600fa00f1
:104af40010079800210798000000eb00000f7800d1
:104b04000a003700f195800000102000008060004a
:104b14000000e0000a003a001e0090001e00400061
:104b2400104078001e0fe800d5ff07002e0090000b
:104b34009e007800808f5000f2ff3900010037009a
:104b4400000000001e0078000080fa00000006004b
:104b54000200fa000000eb00000f7800f1958000dd
:104b640000202000008060000000e000010032000e
:104b74001e40a000f195800000102000008060001d
:104b84000000e000010032001e30a000f09580001b
:104b9400610060000000e000010032001e00a0007f
:104ba400f0958000620060000000e0000200320026
:104bb4001e20a000010037001e10a0001e00780077
:104bc4000080fa00000006000200fa00000f7800de
:104bd400c09580009e004000002d2100808f500071
:104be40008003900c09580009e004000002d21007f
:104bf4000000ea0000804000812c21006140780020
:104c040003003700c09580001e004000104078006b
:104c14000080fa00000006000800fa00200798004f
:104c2400310798000000eb001007980010c0b30093
:104c3400004f78003e009000e70f500007003e0050
:104c4400f0958000620060000000e00003003a007c
:104c54002e0090000000e00003003a000040eb004a
:104c6400004f780030003700c09580008000780045
:104c74003e00900080804000802c21000000ea006b
:104c8400008040006700600010079800c195800014
:104c9400b0958000808f50000a003100c1958000db
:104ca4003e00900080804000b09580000000e90044
:104cb400808f5000150036000040eb00004f780054
:104cc40012003700c1958000b0958000808f50009d
:104cd4000e0036009e009000802c21008080400051
:104ce400c0958000808f5000080031009e00900025
:104cf400802c210080804000b0958000808f50007f
:104d0400020039000040eb00004f78001e4078009c
:104d14000004e000040032003e009000aaff0700f7
:104d2400ae009000804878001e4078000080fa00b1
:104d3400000006000000fa00f095800061006000a9
:104d44000000e0000f003a00c1958000b09580009b
:104d5400808f500005003600c095800080007800e8
:104d6400b09580000080500007003700c095800097
:104d740080007800b09580000080500068004000fa
:104d8400010037000000eb000080fa00000006007c
:104d94000000fa00f19580000010200000806000ff
:104da4000000e0000f003a00e1958000d0958000fb
:104db400808f500005003600e09580008000780068
:104dc400d09580000080500007003700e0958000f7
:104dd40080007800d095800000805000680040007a
:104de400010037000000eb000080fa00000006001c
:104df4000000fa00f09580006200600000f0a70057
:104e04000000ea000000ea004f00de0000407800e5
:104e14000080fa00000006000000fa00f19580000e
:104e2400001020000080600000f0a7000000ea00ed
:104e34000000ea004f00de00004078000080fa0025
:104e4400000006000400fa00f01180008000eb006e
:104e5400008fbe001e00be00c001dd000200200065
:104e6400e01180008000eb0000007100818071007f
:104e74000080fa00000006000000fa0039e2a800f1
:104e840038a2a8003882a8000080fa0000000600ba
:104e94000000fa0039e2a90038a2a9003882a9006a
:084ea4000080fa000000060086
:020000040000fa
:104eac0032110000da000000800000000011000048
:104ebc003200000080000000b61200001a00000052
:104ecc0080000000001000000001000082000000c3
:104edc0000004800068c0c00c812f900181a1f00bc
:104eec0028251f002bfc3000ba3656003cce410062
:104efc001d4740004c335100f55582005ad75e00d7
:104f0c00f262cf00666d6a00ca6de20070b5730084
:104f1c0041768400787d7a00297c8a007d9d7e0014
:104f2c00627fd8007fff7f00d87f62007f9d7e006c
:104f3c008a7d29007c7d7a008478410076b57300e7
:104f4c00e270ca006d6d6a00cf66f20062d75e0037
:104f5c00825af50055335100404c1d0047ce41009c
:104f6c00563cba0036fc30001f2b2800251a1f00b7
:104f7c00f918c800128c0c004806000000b8f900a3
:104f8c0074f33800ed07e700e6e0d800dae1d4006e
:104f9c0004cf4600c9aac30032bee300b8c0b300b8
:104fac00cdae0b00aa7ea50029a10e009d31990063
:104fbc0093953600921e8f004b8cbf00897c870026
:104fcc008385d7008376820063819e0080288000d1
:104fdc0001802800809e80006381760082d7830048
:104fec0083857c0087bf89004b8c1e008f36920016
:104ffc0093953100990e9d0029a17e00a50baa0066
:10500c00cdaec000b3e3b80032beaa00c346c9009f
:10501c0004cfe100d4d8da00e6e00700e738ed0071
:10502c0074f3b800f90000000c12000088000000b6
:10503c008200000001000000003212003312320026
:10504c001232120032123200122212000000000042
:10505c000000000000000000000000000000000044
:10506c0000000000000000000002080001015a00ce
:10507c00125b12005a125a00125a12005a124a00ab
:10508c001200000000000000000000000000000002
:10509c000000000000000000000000000000020002
:1050ac000802020082128300128212008212820015
:1050bc0012821200721200000000000000000000ba
:1050cc0000000000000000000000000000000000d4
:1050dc00000000000c123400125c120000000000f2
:1050ec00000000000000000000000000ee120000b4
:1050fc000200000080000000d01200001a00000026
:10510c0082000000686a6c00747a4c000000010098
:10511c000002000004000800001000000000200045
:10512c002b2d230030000000f012000002000000c4
:10513c008200000004000000ea12000004000000dd
:10514c008000000094120000220000008200000089
:10515c0030313200333435003637380039414200b3
:10516c0043444500460030003132330034353600bc
:10517c003738390061626300646566000000000026
:10518c00f21200000200000080000000000000008d
:020000040000fa
:10519c008a1f780000057800810378000a029000cd
:1051ac009a0290002a039000020578000400e000a7
:1051bc00400035000500e000140035008501780042
:1051cc0004017800070078000000d0000282b800cb
:1051dc00050178000382b8008501780082805300b5
:1051ec00838050008180d1000103780082804000d0
:1051fc008102780083804000010278000405980049
:10520c001505980026059800690037000600e00097
:10521c00140035008401780006017800070078003e
:10522c000000d0000282b800050178000382b800ab
:10523c008501780082805300838050008180d100ea
:10524c000103780082804000810278008380400056
:10525c0001027800060598001405980025059800b1
:10526c00530037008501ea000601ea0007007800c8
:10527c000000d0000282b800050178000382b8005b
:10528c008501780082805300838050008180d1009a
:10529c000103780082804000810278008380400006
:1052ac000102780005059800140598002605980061
:1052bc003f0037000500e0002a0035000600e00042
:1052cc00140035008601780005017800070078008d
:1052dc000000d0000282b800050178000382b800fb
:1052ec008501780082805300838050008180d1003a
:1052fc0001037800828040008102780083804000a6
:10530c000102780005059800160598002405980000
:10531c00270037008601ea000401ea000700780044
:10532c000000d0000282b800050178000382b800aa
:10533c008501780082805300838050008180d100e9
:10534c000103780082804000810278008380400055
:10535c0001027800040598001605980025059800b0
:10536c00130037008401ea000501ea000700780009
:10537c000000d0000282b800050178000382b8005a
:10538c008501780082805300838050008180d10099
:10539c000103780082804000810278008380400005
:1053ac000102780006059800150598002405980060
:1053bc00100020004f057800000006004400f800a3
:1053cc00240e2000240288000000ca000180ca00bc
:1053dc000030cb000400cc00820078000301780080
:1053ec00110090000080ca0001009000400188006c
:1053fc00a10290001301c0007c00c8000000cb008b
:10540c000600cc00d10190000330e10004003c0008
:10541c00e10190000330e1000100340086017800c6
:10542c0003097800b10290001301c000030353007c
